:0A0191000809000000000000000053
:0B018600EF1FAC0670011E4C70F6224B
:0D017900A8077401088002C333D8FCFF22E0
:10013F00E4FEEFC4131313540124FF92B4EF25E030
:10014F00FFC2B600D2B6000EBE08E7C2B500D2B5E8
:01015F00009F
:01016000227C
:08019C007580FFE4FF02013F42
:10016100AE05120179EFF4F580AF0612013F7F640D
:080171007E0012018602019CD0
:1000E700EF540314600E14600F1460102403701B88
:1000F7001514800A15138006051480020513AF1422
:0C01070012017974092513F8EF26F62286
:10011300751304751404751201E4F508F511FEEE68
:10012300B5130EAF1412017974092513F8A60780CD
:0B0133000674092EF8E4F60EBE08E486
:01013E00229E
:10008F00E4FB120113E4FAAF0274092AF8E6FD1239
:10009F0001610ABA08F10508E508D3941E401AE475
:1000AF00F508AF111200E70BE511C31304F512EBBE
:1000BF00C3951240040511E4FBE51370C8E514B4B1
:1000CF0008C37F107E2712018612019C7F507EC3CA
:0800DF0012018612011380AD2D
:03000000020003F8
:0C000300787FE4F6D8FD75811402004AF5
:10000F0002008FE493A3F8E493A34003F68001F278
:10001F0008DFF48029E493A3F85407240CC8C333F2
:10002F00C4540F4420C8834004F456800146F6DFC1
:10003F00E4800B0102040810204080900191E47EBF
:10004F00019360BCA3FF543F30E509541FFEE493B6
:10005F00A360010ECF54C025E060A840B8E493A37D
:10006F00FAE493A3F8E493A3C8C582C8CAC583CAA8
:10007F00F0A3C8C582C8CAC583CADFE9DEE780BE60
:01019B000063
:00000001FF
