:0E0FF700C20A7D017F20120F9E120D7080FB3A
:0310260001510075
:100F1200E590300A03C48000540FFEEE24F96018F5
:100F220024FC601124FE600A24FE600F04700C7F12
:0D0F320004227F03227F02227F01227F0024
:010F3F00228F
:100E19007551017DD07C077F32120E4EE5531425A2
:100E2900E025E0FFE552142FFFC39400400CEFD3F7
:100E39009409500674302FFF800474372FFFC20ABB
:050E49007D01020F9E77
:100E810075900FC20A120F128F52E55260097F0A44
:100E91007E00120F868004E4F551227590F0D20A8B
:100EA100120F128F53E5536007E5517003120E19AB
:010EB100221E
:100D7000E4F54DAF4DA8077408088002C313D8FCF2
:100D8000F4F590D20A120F128F53E5537017E54D08
:100D90002401FFE433FE7C00EFB55209ECB50605F3
:100DA000E4F5518021E553601DE55170197F0AFE7D
:100DB000120F86D20A120F128F53E5536008E54DC9
:0F0DC00004F552120E19054DE54DC3940440A4DD
:010DCF002201
:100E4E008F4E8C4F8D50AF4E154EEF6025B295AC38
:100E5E004FAD50E41200A8A804A905AA06AB077F5F
:100E6E00007E507D437C471200061200E1121010E6
:030E7E0080D422FB
:100F6700003F065B4F666D7D077F6F777C585E7924
:0F0F77007176300E38543F7367506D3E3E6E40BA
:06102900010800010900AE
:100FCC00C374089FFF1392A2EFC313FF1392A3EFF6
:050FDC00C3131392A4F1
:010FE10022ED
:100AF600EF1205780BF72D0B91300B91310B9132DC
:100B06000B91330B91340B91350B91360B91370BBF
:100B160091380B91390B98410B9D420BA2430BA7C1
:100B2600440BAC450BB1460BB6480BBB490BC04A50
:100B36000BC54C0BCA4E0BCF4F0BD4500BD9510BD8
:100B4600DE520BE3530BE8550BED560BF2590B989F
:100B5600610B9D620BA2630BA7640BAC650BB166C0
:100B66000BB6680BBB690BC06A0BC56C0BCA6E0B68
:100B7600CF6F0BD4700BD9710BDE720BE3730BE8DE
:100B8600750BED760BF27900000BFEEF900F3893A4
:100B9600FF22900F72805D900F738058900F7480C3
:100BA60053900F75804E900F768049900F77804452
:100BB600900F78803F900F79803A900F7A80359029
:100BC6000F7B8030900F7C802B900F7D8026900FBE
:100BD6007E8021900F7F801C900F808017900F8160
:100BE6008012900F82800D900F838008900F848072
:0B0BF60003900F85E493FF227F002294
:100F9E00AE05AD07AF06120FCCAF05120AF68F8065
:070FAE00300A03438080229A
:080D0E008B128A1389148D1564
:100D1600E4F517C374099515FFE517C39F504AAB51
:100D260012AA13A91485178275830012051BFF608A
:100D360038B42E041515802DE5152517FDE5172465
:100D460001FBE433FAE516758300B50308E583B5C0
:100D56000203D38001C3920A120F9E7F017E001206
:090D66000F86E4F580051780AA50
:010D6F002261
:080DD0008B188A19891A8D1B8A
:100DD800E4F51CF51DAB18AA19A91A851C827583A0
:100DE8000012051BFF6008642E6004051C80E6AB3A
:100DF80018AA19A91A120FE2C3E51C9FE49E500312
:100E0800851C1DAB18AA19A91A851D16AD1B020D44
:010E18000ECB
:100FB5008D54C3EE6480948050028001C39209125F
:070FC5000EB2AD54020DD085
:0B100500854248120EE3AD43020DD0FF
:060C8D008B498A4A894BE5
:100C9300E4F580AB49AA4AA94B850882F58312057E
:100CA3001BFFB42E0C74092508F876010508050905
:100CB30022E5082DC39509F54C740A2508F8E624A6
:100CC300FF920AAD4C120F9EAB49AA4AA94B850865
:100CD3008275830012051B70047F0180027F00E58B
:100CE3004CB408047E0180027E00EE4F601AE4F5E6
:100CF30008E5096004E4F50922780A7C007D007B9D
:0A0D0300FF7A0F796702066A0508FF
:010D0D0022C3
:0B101B00256400257500252E2A6600C4
:0B101000EF1FAC0670011E4C70F622B2
:100F8600AB07AA06EB1BAE0270011A4E60097F641E
:080F96007E0012101080ED2214
:040EB2008E1E8F1FE2
:100EB60030090B7525FF75261075271B80097525CA
:100EC600FF75261075271E851E28851F297B017A2A
:0C0ED60000790A1206E37B017A00790A19
:010EE20022ED
:080EE3008F478E468D458C44BB
:100EEB007525FF7526107527217528008548298FD4
:100EFB002D8E2C8D2B8C2A7B017A0079001206E328
:060F0B007B017A00790071
:010F110022BD
:10000300020157EC5D046005E85904700302014DD9
:10001300120118580460F6EC4860F2EC7004FDFE1F
:10002300FF22C860DB2481C85009C39860025006D0
:100033000201549850CAF582E9294B4A7005AB82F4
:1000430002014375F0007C1A7880C3EF9BEE9AEDB2
:1000530099400DC3EF9BFFEE9AFEED99FDE842F048
:10006300DC23ACF0D0E0FFD0E0FED0E0FDAB82209B
:10007300E7101BEB60BAEC2CFCEF33FFEE33FEED25
:1000830033FD02012FE803F830E705C0F075F000F7
:10009300EF2FFFEE33FEED33FD40B830E7C280AA09
:1000A30075F020800E75F010800575F0087D007ED8
:1000B300007F003392D530D50312055AEC3340103C
:1000C300EF33FFEE33FEED33FDEC33FCD5F0ED22E1
:0E00D300E5F0247EA2D513CC92E7CDCEFF221D
:1000E100EDD2E7CD33EC3392D524814006E4FFFE17
:1000F100FDFC22FCE4CFCECDCC24E0501174FF8076
:10010100EDC3CC13CCCD13CDCE13CECF13CF047012
:07011100F030D5DE02055AB3
:10068700E5392425F8E6053922782230070278254E
:10069700E475F0011205680205022000EB7F2ED2F7
:1006A700008018EF540F2490D43440D4FF30040B4B
:1006B700EF24BFB41A0050032461FFE53A60021526
:1006C7003A053DE53D7002053C30070D7822E4759B
:1006D700F001120568EF020548020F407403D207C4
:1006E7008003E4C207F5398B228A238924E4F53A8B
:1006F700F53CF53DE53A60077F201206C280F575A7
:100707003BFFC201C200C202C203C205C206C20841
:10071700120690FF700D3007057F001206D3AF3D1C
:10072700AE3C22B4255FC2D5C204120690FF24D086
:10073700B40A00501A75F00A783A30D50508B6FFA2
:100747000106C6A426F620D5047002D20380D92458
:10075700CFB41A00EF5004C2E5D2040209C0D20197
:1007670080C6D20080C0D20280BCD2D580BAD20562
:1007770080B47F201206C22002077401B53A0040F8
:10078700F1120687FF1206C20206FBD208D20680C4
:1007970095120687FB120687FA120687F94A4B70ED
:1007A7000679B77A0A7BFF20022EE53A602A7E0097
:1007B7008E8275830012051B60060EEE653B70F096
:1007C700C2D5EBC0E0EAC0E0E9C0E0EE120A20D0F3
:1007D700E0F9D0E0FAD0E0FB120502FF60AAEBC017
:1007E700E0EAC0E0E9C0E01206C2D0E02401F9D097
:1007F700E03400FAD0E0FBE53B0460DCD53BD98070
:1008070087D20280A2120A0360F7E53B7001041247
:100817000162A93B600DE53B600914F53B120AAA8A
:10082700EF60F3EA30E702F404C3995077EAF4255E
:100837003B0430E701E404F53B800D120A0360C175
:10084700EA053B253B120162EA7838F630E701E416
:10085700253B04D53B0420050114120A20E4C0E01F
:10086700120AAA7838E6601320E70714F61206AAD8
:10087700802204F6D0E014C0E07F001206AAE53B10
:1008870060071206A1153B800B3005031206A1D0A5
:10089700E00206FBD0E00480C5120A0360A0E53B36
:1008A700041201627838EAF6E53B2005026001048C
:0508B7002404120A20D8
:1008BC0074FF04C0E0120AAA1206AAE53B20050246
:1008CC0060031206A1D0E0B53BE87F451206B47870
:1008DC0038E67F2B30E7047F2DF404C0E01206C20B
:1008EC00D0E075F00A84C0F01206ABD0E01206AB73
:1008FC000206FB791080027908C206C2088008D271
:10090C00D5790A8004790AC2D5E53B047002F53B1F
:10091C00E4FAFDFEFF120687FC7B08200113120689
:10092C0087FD7B1030000A120687FE120687FF7BBC
:10093C0020EC3382D592D55013C3E43000069FFFD0
:10094C00E49EFEE42001039DFDE49CFCE4CBF8C294
:10095C0001EC700CCFCECDCCE824F8F870F38017F6
:10096C00C3EF33FFEE33FEED33FDEC33FCEB33FB27
:10097C00994002FB0FD8E9EB300105F8D0E0C448F0
:10098C00B201C0E00AEC4D4E4F78207B0070C2EAF9
:10099C00B53B0040BCC0E0120A22D0F0D0E02001F0
:1009AC0004C4C0E0C4B201C0F01206ABD0F0D5F064
:1009BC00EB0206FB12057807985308FF5807694CA1
:1009CC0007654209034F090B44090B49077E43098C
:1009DC00115508424608A045080C470AD750076D28
:1009EC002D07712E07942B0775230792200AC02A16
:1009FC00072D480000078CE53BB4FF03753B06123E
:100A0C000687FC120687FD120687FE120687FF7802
:100A1C0031020191790AA2D5200314300509B910CD
:100A2C00020404B9080104A2D520060250010420D6
:100A3C0002689202B53A005034C0E07F20300319AE
:100A4C007F30A20272067205500F120A79C202C2DE
:100A5C0006C205C2087F30800F300503E9C0E012E2
:100A6C0006C2300503D0E0F9D0E0B53ACC3005171A
:100A7C007F30B9100C1206C27F583004077F788083
:100A8C0003B908031206C23002057F2D0206C27F8D
:100A9C00202008F87F2B2006F322920280CF7F00C3
:100AAC00B4070050052431F8E6FF22286E756C6CF3
:100ABC002900D2011206873001F8C201783A30D5EC
:100ACC000108F602072D2D504349581206872403BE
:100ADC00B405004001E4900AD2931206B3743A12A2
:0A0AEC0006B3D203753A040208FFB6
:10011800E9D2E7C933E833F892D5EDD2E7CD33EC2D
:0701280033FC5002B2D522A6
:10012F00EC30E7100FBF000C0EBE00080DBD000431
:10013F000BEB6014A2D5EB13FCED92E7FD2274FFDD
:10014F00FCFDFEFF22E480F8A2D574FF13FC7D8036
:03015F00E480EF4A
:10016200F920E72824F950037907E4F42402FB1864
:10017200DBFDE624FB5014E9600DE4F618E604F614
:0F018200B40A08E4F6D9F57401F60A22C2D522B0
:10019100ED33EC3392D5FA602AB4FF33EDC2E77B3D
:1001A100FF60067A0179B6E4227A0179BF20D5048D
:1001B1007A0179BA224E614E002B494E46002D49F3
:1001C1004E4600E47A08F608DAFC7B00740722E860
:1001D100C0E0ECC0E0EDC0E0EEC0E0EFC0E0EA75E9
:1001E100F010A4CAABF075F04DA42BFBE435F0FC84
:1001F100EA2410FAEB34C5FBEC34D9FCEDC2E7FF7D
:1002010075F056A4F42411C5F0F434C58FF0A42A76
:10021100E5F03BE43CF620E7141204C2D0E0FFD045
:10022100E0FED0E0FDD0E0FC1200068014F40412E0
:1002310004C2D0E0FFD0E0FED0E0FDD0E0FC12032C
:100241008CD0E0F8E6FAEDD2E7CD33EC332482FB33
:10025100E4C3CF33CFCE33CECD33CD33DBF37B0706
:1002610075F00A846004F6081B0AE5F0F6088FF0C1
:10027100740AA4FFACF08EF0740AA42CFEACF0500A
:10028100010C8DF0740AA42CFDE435F0F608DBDED8
:03029100740722CD
:1002940002014DE86480F8E933E83360110460F04A
:1002A400ED33EC337009E8FCE9FDEAFEEBFF2204D0
:1002B40060DED3EB9FEA9EE99DE8C2E78CF0C2F7CB
:1002C40095F0400CE8CCF8E9CDF9EACEFAEBCFFB97
:1002D40012011885D0F05804700320D5B3E80470D7
:1002E400075002B2D502015792D5EC0460F7E4CC72
:1002F400C0E0C398F8603B94186008400DD0E0FB60
:1003040002012FE4FBFAC9FC8028E830E406E4C9C2
:10031400FBE4CAFCE830E305E4C9CACBFCE85407B3
:100324006010F8C3E913F9EA13FAEB13FBEC13FCBE
:10033400D8F130F52FC3E49CFCEF9BFFEE9AFEED61
:1003440099FDD0E0FBEF4E4D4C701222DB0302010D
:1003540054EC2CFCEF33FFEE33FEED33FDED30E7D0
:10036400EB02012FEF2BFFEE3AFEED39FDD0E0FB5F
:1003740050130BBB0003020157ED13FDEE13FEEF08
:0803840013FFEC13FC02012F32
:10038C00EC4D6011E8497017ED33EC3304600DE46B
:10039C00FCFFFEFD22E933E8330470F802014D1234
:1003AC00011858046009E4CC248150062850090235
:1003BC000157284003020154C0E0EB4A7044B98055
:1003CC0006D0E0FB020143EF4E701CBD8008EBFF32
:1003DC00EAFEE9FD80EBE98DF0A4FEE5F002047580
:1003EC00E9CDF9EAFEEBFFEF89F0A4FCE5F0CE894C
:1003FC00F0A42EFFE435F0CD89F0A42DFEE435F009
:10040C008067EF4E7005BD80D780C3EF8BF0A4AC36
:10041C00F0EE8BF0A42CFCE435F0F8EF8AF0A42C71
:10042C00E5F038FCE433CB8DF0A42CFCE5F03BF884
:10043C00EE8AF0A42CFCE5F038F8E433CF89F0A474
:10044C002CFCE5F038CF3400CE89F0A42FFFE5F07A
:10045C003EFEE433C98DF0A42EFEE5F039CD8AF0D2
:10046C00A42FFFE5F03EFEE43DFD33D0E0FB50074A
:10047C000BBB000F020157EC2CFCEF33FFEE33FEED
:06048C00ED33FD02012F1B
:100492003F8000004120000042C80000447A000072
:1004A200461C400047C35000497424004B189680F4
:1004B2004CBEBC205A0E1BCA6753C21C749DC5AEEB
:1004C200FB60065407601C23231204F0EB543860CF
:1004D200091204DC1204EB12038CECF8EDF9EEFACB
:1004E200EFCB22EB1204EB80F1543803241C90046E
:1004F20092FE93FC0EEE93FD0EEE930ECE93FF2230
:03000000020C01EE
:0C0C0100787FE4F6D8FD758154020C48A1
:10050200BB010689828A83E0225002E722BBFE02F7
:09051200E32289828A83E493222A
:10051B00BB010CE58229F582E5833AF583E0225095
:10052B0006E92582F8E622BBFE06E92582F8E222DF
:0D053B00E58229F582E5833AF583E49322F9
:10054800BB010689828A83F0225002F722BBFE0192
:02055800F3228C
:0E055A00C3E49FFFE49EFEE49DFDE49CFC22B2
:10056800FAE6FB0808E6F925F0F618E6CA3AF62294
:10057800D083D082F8E4937012740193700DA3A312
:1005880093F8740193F5828883E473740293686026
:06059800EFA3A3A380DF26
:100F4000EFB40A07740D120F4B740A309811A89968
:100F5000B8130CC2983098FDA899C298B811F63011
:070F600099FDC299F59922E9
:10059E00E709F60870FA8046E709F20870FA803E1D
:1005AE0088828C83E709F0A370FA807EE309F6084F
:1005BE0070FA8076E309F20870FA806E88828C8376
:1005CE00E309F0A370FA806289828A83E0A3F608B9
:1005DE0070FA805689828A83E0A3F20870FA804A04
:1005EE0080D280FA80C680D4806580F280318010FF
:1005FE0080A680EA809A80A880DA80E280CA803164
:10060E0089828A83ECFAE493A3C8C582C8CCC583D9
:10061E00CCF0A3C8C582C8CCC583CC70E9800D8947
:10062E00828A83E493A3F60870F9ECFAA9F0EDFB45
:10063E002289828A83ECFAE0A3C8C582C8CCC5831E
:10064E00CCF0A3C8C582C8CCC583CC70EA80DD8946
:10065E00828A83E493A3F20870F980CE88F0ED24A9
:10066E0002B4040050C4F582EB2402B4040050BA64
:09067E0023234582239005EE734D
:100FE200E4FFFE120502600C0FEF70010E09E970BA
:050FF200F20A80EF226D
:100C0D00020FF7E493A3F8E493A34003F68001F2F7
:100C1D0008DFF48029E493A3F85407240CC8C333E8
:100C2D00C4540F4420C8834004F456800146F6DFB7
:100C3D00E4800B0102040810204080901026E47E11
:100C4D00019360BCA3FF543F30E509541FFEE493AC
:100C5D00A360010ECF54C025E060A840B8E493A373
:100C6D00FAE493A3F8E493A3C8C582C8CAC583CA9E
:100C7D00F0A3C8C582C8CAC583CADFE9DEE780BE56
:01102F0000C0
:00000001FF
