:0E130100C20A7D017F201212BF1210CC80FBA9
:03131A00014C0083
:10120E00E590300A03C48000540FFEEE24F96018F6
:10121E0024FC601124FE600A24FE600F04700C7F13
:0D122E0004227F03227F02227F01227F0025
:01123B002290
:10117500754C017DD07C077F321211AAE54E1425EE
:10118500E025E0FFE54D142FFFC39400400CEFD39D
:101195009409500674302FFF800474372FFFC20A5C
:0511A5007D010212BFF4
:1011DD0075900FC20A12120E8F4DE54D60097F0AF0
:1011ED007E001212A78004E4F54C227590F0D20A0D
:1011FD0012120E8F4EE54E6007E54C7003121175FD
:01120D0022BE
:1010CC00E4F548AF48A8077408088002C313D8FC9D
:1010DC00F4F590D20A12120E8F4EE54E7017E548B9
:1010EC002401FFE433FE7C00EFB54D09ECB5060599
:1010FC00E4F54C8021E54E601DE54C70197F0AFE2D
:10110C001212A7D20A12120E8F4EE54E6008E54855
:0F111C0004F54D1211750548E548C3940440A42D
:01112B0022A1
:1011AA008F498C4A8D4BAF491549EF6025B295ACF2
:1011BA004AAD4BE412031FA804A905AA06AB077F90
:1011CA00007E507D437C4712020412035812130F0B
:0311DA0080D4229C
:0B130F00EF1FAC0670011E4C70F622B0
:1012A700AB07AA06EB1BAE0270011A4E60097F64FA
:0812B7007E0012130F80ED22EE
:101286002564003F065B4F666D7D077F6F777C5850
:101296005E797176300E38543F7367506D3E3E6E00
:0112A6004007
:1012D600C374089FFF1392A2EFC313FF1392A3EFE9
:0512E600C3131392A4E4
:0112EB0022E0
:100D6A00EF1206890E6B2D0E05300E05310E053277
:100D7A000E05330E05340E05350E05360E05370EF3
:100D8A0005380E05390E0C410E11420E16430E1B84
:100D9A00440E20450E25460E2A480E2F490E344A87
:100DAA000E394C0E3E4E0E434F0E48500E4D510E0C
:100DBA0052520E57530E5C550E61560E66590E0C62
:100DCA00610E11620E16630E1B640E20650E2566F7
:100DDA000E2A680E2F690E346A0E396C0E3E6E0E9C
:100DEA00436F0E48700E4D710E52720E57730E5CA1
:100DFA00750E61760E667900000E72EF90125993A5
:100E0A00FF22901293805D901294805890129580E0
:100E1A0053901296804E901297804990129880446F
:100E2A00901299803F90129A803A90129B80359046
:100E3A00129C803090129D802B90129E80269012D8
:100E4A009F80219012A0801C9012A180179012A25C
:100E5A0080129012A3800D9012A480089012A5808F
:0B0E6A00039012A6E493FF227F0022F9
:1012BF00AE05AD07AF061212D6AF05120D6A8F80BD
:0712CF00300A034380802276
:081049008B128A1389148D1526
:10105100E4F517C374099515FFE517C39F506BABF2
:1010610012AA13A91485178275830012060C605AFF
:10107100B42E041515804FE5172401FFE433FE7CDF
:1010810000EFB5161DECB50619AB12AA13A914850C
:10109100178275830012060CFFE5152517FDD20A8C
:1010A1008017AB12AA13A914851782758300120643
:1010B1000CFFE5152517FDC20A1212BF7F017E0044
:0A10C1001212A7E4F58005178089DC
:0110CB002202
:08112C008B188A19891A8D1B2A
:10113400E4F51CF51DAB18AA19A91A851C82758340
:101144000012060CFF6008642E6004051C80E6ABE8
:1011540018AA19A91A1212ECC3E51C9FE49E5003A5
:10116400851C1DAB18AA19A91A851D16AD1B0210E2
:011174004931
:021263008D1EDE
:101265007525FF7526127527868E288F297B017AAD
:1012750000790A12070B7B017A00790AAD1E02116B
:011285002C3C
:080E75008F418E408D3F8C3E41
:100E7D00AC42E41203248F0F8E0E8D0D8C0C7F006F
:100E8D007E007D207C41120C53AB41AA40A93FA8A6
:100E9D003E1200FBC004C005C006C007E4FFFEFD06
:100EAD00FCAB41AA40A93FA83E1202A1600B40092C
:100EBD00E4FFFE7D807C3F8007E4FFFE7D807CBFEC
:100ECD00E4FBFAF9783F1200FBD003D002D001D039
:100EDD000012000A1203587525FF75261275278614
:100EED008E288F297B017A00790012070BE542606D
:100EFD00147B017A0079001212ECC3EF9542FFEEDC
:100F0D009400FE80047E007F008F167B017A0079AD
:060F1D0000AD4302104983
:100003000203C4E86480F8E933E83360110460F064
:10001300ED33EC337009E8FCE9FDEAFEEBFF220463
:1000230060DED3EB9FEA9EE99DE8C2E78CF0C2F75E
:1000330095F0400CE8CCF8E9CDF9EACEFAEBCFFB2A
:1000430012038F85D0F05804700320D5B3E80470F1
:10005300075002B2D50203CE92D5EC0460F7E4CC8C
:10006300C0E0C398F8603B94186008400DD0E0FBF3
:100073000203A6E4FBFAC9FC8028E830E406E4C9DD
:10008300FBE4CAFCE830E305E4C9CACBFCE8540747
:100093006010F8C3E913F9EA13FAEB13FBEC13FC52
:1000A300D8F130F52FC3E49CFCEF9BFFEE9AFEEDF5
:1000B30099FDD0E0FBEF4E4D4C701222DB0302039F
:1000C300CBEC2CFCEF33FFEE33FEED33FDED30E7ED
:1000D300EB0203A6EF2BFFEE3AFEED39FDD0E0FB7A
:1000E30050130BBB00030203CEED13FDEE13FEEF23
:0800F30013FFEC13FC0203A64D
:1000FB00EC4D6011E8497017ED33EC3304600DE4FF
:10010B00FCFFFEFD22E933E8330470F80203C4124E
:10011B00038F58046009E4CC24815006285009024F
:10012B0003CE2840030203CBC0E0EB4A7044B980F6
:10013B0006D0E0FB0203BAEF4E701CBD8008EBFF4C
:10014B00EAFEE9FD80EBE98DF0A4FEE5F00201E4A7
:10015B00E9CDF9EAFEEBFFEF89F0A4FCE5F0CE89DF
:10016B00F0A42EFFE435F0CD89F0A42DFEE435F09C
:10017B008067EF4E7005BD80D780C3EF8BF0A4ACCA
:10018B00F0EE8BF0A42CFCE435F0F8EF8AF0A42C05
:10019B00E5F038FCE433CB8DF0A42CFCE5F03BF818
:1001AB00EE8AF0A42CFCE5F038F8E433CF89F0A408
:1001BB002CFCE5F038CF3400CE89F0A42FFFE5F00E
:1001CB003EFEE433C98DF0A42EFEE5F039CD8AF066
:1001DB00A42FFFE5F03EFEE43DFD33D0E0FB5007DE
:1001EB000BBB000F0203CEEC2CFCEF33FFEE33FE08
:0601FB00ED33FD0203A636
:100201000203CEEC5D046005E8590470030203C4E7
:1002110012038F580460F6EC4860F2EC7004FDFEA6
:10022100FF22C860DB2481C85009C39860025006D0
:100231000203CB9850CAF582E9294B4A7005AB827B
:100241000203BA75F0007C1A7880C3EF9BEE9AED39
:1002510099400DC3EF9BFFEE9AFEED99FDE842F048
:10026100DC23ACF0D0E0FFD0E0FED0E0FDAB82209B
:10027100E7101BEB60BAEC2CFCEF33FFEE33FEED25
:1002810033FD0203A6E803F830E705C0F075F0007E
:10029100EF2FFFEE33FEED33FD40B830E7C280AA09
:1002A10074F8CC6480CCC86480C8F58204604FC304
:1002B100EB9FF5F0EA9E42F0E99D42F0E89C45F0A3
:1002C100603C501DE5825FFFE582D313CB5BCBF42D
:1002D1002B5582FB50280ABA002409B90020088056
:1002E1001DE5825BFBE582D313CF5FCFF4C3132FF0
:1002F1005582FF50090EBE00050DBD00010CC3EB78
:100301009FF5F0EA9E42F0E99D42F0E89C45F060DD
:0903110007CC4820E701B3EC22FF
:10031A0075F020800E75F010800575F0087D007E5E
:10032A00007F003392D530D50312064BEC334010D0
:10033A00EF33FFEE33FEED33FDEC33FCD5F0ED2267
:0E034A00E5F0247EA2D513CC92E7CDCEFF22A3
:10035800EDD2E7CD33EC3392D524814006E4FFFE9D
:10036800FDFC22FCE4CFCECDCC24E0501174FF80FC
:10037800EDC3CC13CCCD13CDCE13CECF13CF047099
:07038800F030D5DE02064B48
:1006AF00E5392425F8E60539227822300702782526
:1006BF00E475F0011206790205F32000EB7F2ED2CC
:1006CF00008018EF540F2490D43440D4FF30040B23
:1006DF00EF24BFB41A0050032461FFE53A600215FE
:1006EF003A053DE53D7002053C30070D7822E47573
:1006FF00F001120679EF02063902123C7403D20799
:10070F008003E4C207F5398B228A238924E4F53A62
:10071F00F53CF53DE53A60077F201206EA80F57556
:10072F003BFFC201C200C202C203C205C206C20819
:10073F001206B8FF700D3007057F001206FBAF3DA4
:10074F00AE3C22B4255FC2D5C2041206B8FF24D036
:10075F00B40A00501A75F00A783A30D50508B6FF7A
:10076F000106C6A426F620D5047002D20380D92430
:10077F00CFB41A00EF5004C2E5D2040209E8D20147
:10078F0080C6D20080C0D20280BCD2D580BAD2053A
:10079F0080B47F201206EA2002077401B53A0040A8
:1007AF00F11206AFFF1206EA020723D208D2068023
:1007BF00951206AFFB1206AFFA1206AFF94A4B704D
:1007CF000679DF7A0A7BFF20022EE53A602A7E0047
:1007DF008E8275830012060C60060EEE653B70F07C
:1007EF00C2D5EBC0E0EAC0E0E9C0E0EE120A48D0A3
:1007FF00E0F9D0E0FAD0E0FB1205F3FF60AAEBC0FE
:10080F00E0EAC0E0E9C0E01206EAD0E02401F9D046
:10081F00E03400FAD0E0FBE53B0460DCD53BD98047
:10082F0087D20280A2120A2B60F7E53B70010412F7
:10083F000404A93B600DE53B600914F53B120AD295
:10084F00EF60F3EA30E702F404C3995077EAF42536
:10085F003B0430E701E404F53B800D120A2B60C125
:10086F00EA053B253B120404EA7838F630E701E449
:10087F00253B04D53B0420050114120A48E4C0E0CF
:10088F00120AD27838E6601320E70714F61206D260
:10089F00802204F6D0E014C0E07F001206D2E53BC0
:1008AF0060071206C9153B800B3005031206C9D02D
:1008BF00E0020723D0E00480C5120A2B60A0E53BBD
:1008CF00041204047838EAF6E53B200502600104BF
:0508DF002404120A4888
:1008E40074FF04C0E0120AD21206D2E53B200502CE
:1008F40060031206C9D0E0B53BE87F451206DC78F8
:1009040038E67F2B30E7047F2DF404C0E01206EABA
:10091400D0E075F00A84C0F01206D3D0E01206D3FA
:10092400020723791080027908C206C2088008D21F
:10093400D5790A8004790AC2D5E53B047002F53BF7
:10094400E4FAFDFEFF1206AFFC7B08200113120639
:10095400AFFD7B1030000A1206AFFE1206AFFF7B1C
:1009640020EC3382D592D55013C3E43000069FFFA8
:10097400E49EFEE42001039DFDE49CFCE4CBF8C26C
:1009840001EC700CCFCECDCCE824F8F870F38017CE
:10099400C3EF33FFEE33FEED33FDEC33FCEB33FBFF
:1009A400994002FB0FD8E9EB300105F8D0E0C448C8
:1009B400B201C0E00AEC4D4E4F78207B0070C2EAD1
:1009C400B53B0040BCC0E0120A4AD0F0D0E02001A0
:1009D40004C4C0E0C4B201C0F01206D3D0F0D5F014
:1009E400EB02072312068907C05309275807914CC5
:1009F400078D42092B4F09334409334907A643099C
:100A04003955086A4608C8450834470AFF5007950F
:100A14002D07992E07BC2B079D2307BA200AE82A25
:100A2400075548000007B4E53BB4FF03753B0612C5
:100A340006AFFC1206AFFD1206AFFE1206AFFF783A
:100A440031020433790AA2D5200314300509B91000
:100A5400020404B9080104A2D520060250010420AE
:100A640002689202B53A005034C0E07F2030031986
:100A74007F30A20272067205500F120AA1C202C28E
:100A840006C205C2087F30800F300503E9C0E012BA
:100A940006EA300503D0E0F9D0E0B53ACC300517CA
:100AA4007F30B9100C1206EA7F583004077F788033
:100AB40003B908031206EA3002057F2D0206EA7F15
:100AC400202008F87F2B2006F322920280CF7F009B
:100AD400B4070050052431F8E6FF22286E756C6CCB
:100AE4002900D2011206AF3001F8C201783A30D59C
:100AF4000108F60207552D504349581206AF240346
:100B0400B405004001E4900AFA931206DB743A1229
:0A0B140006DBD203753A040209273C
:100C53008F0B8E0A8D098C08E4FFFE7D807C3FABF1
:100C63000BAA0AA909A8081202A17009AF0BAE0AC0
:100C7300AD09AC0822AF0BAE0AAD09AC081203D91B
:100C8300FBAF0FAE0EAD0DAC0C1203D9FFBF0108C5
:100C9300E4FFFE7D807C3F22EF64046022EB64046A
:100CA300601DBB0127E4FFFEFDFCAB0FAA0EA90DDF
:100CB300A80C1202A160084006E4FFFEFDFC2274AA
:100CC300FFF50FF50EF50DF50C020D61E4F510F5CA
:100CD30011FFFEFDFCAB0BAA0AA909A8081202A189
:100CE300504BAF0FAE0EAD0DAC0C1203588E108FE0
:100CF30011AC10AD11EC12031FC8ECC8C9EDC9CA81
:100D0300EECACBEFCBAF0FAE0EAD0DAC0C1200069F
:100D1300E4FBFAF9F81202A170A5AF0BAE0AAD0914
:100D2300AC081203F38F0B8E0A8D098C08AF0BAE40
:100D33000AAD09AC08120B52AB0FAA0EA90DA80CF1
:100D43001200FB120F5B8F0F8E0E8D0D8C0CE511B5
:100D530030E00B1203F38F0F8E0E8D0D8C0CAF0F43
:070D6300AE0EAD0DAC0C2239
:10038F00E9D2E7C933E833F892D5EDD2E7CD33ECB4
:07039F0033FC5002B2D5222D
:1003A600EC30E7100FBF000C0EBE00080DBD0004B8
:1003B6000BEB6014A2D5EB13FCED92E7FD2274FF64
:1003C600FCFDFEFF22E480F8A2D574FF13FC7D80BD
:0303D600E480EFD1
:1003D900ED33EC33601004700FED547F7005740237
:0A03E90092E0227404220422E422B0
:1003F300ED33EC33600A047003BD8004ECB2E7FC18
:0104030022D6
:10040400F920E72824F950037907E4F42402FB18BF
:10041400DBFDE624FB5014E9600DE4F618E604F66F
:0F042400B40A08E4F6D9F57401F60A22C2D5220B
:10043300ED33EC3392D5FA602AB4FF33EDC2E77B98
:10044300FF60067A047958E4227A04796120D5049E
:100453007A04795C224E614E002B494E46002D49A9
:100463004E4600E47A08F608DAFC7B00740722E8BB
:10047300C0E0ECC0E0EDC0E0EEC0E0EFC0E0EA7544
:10048300F010A4CAABF075F04DA42BFBE435F0FCDF
:10049300EA2410FAEB34C5FBEC34D9FCEDC2E7FFD8
:1004A30075F056A4F42411C5F0F434C58FF0A42AD2
:1004B300E5F03BE43CF620E714120566D0E0FFD0FC
:1004C300E0FED0E0FDD0E0FC1202048014F404123C
:1004D3000566D0E0FFD0E0FED0E0FDD0E0FC1200E6
:1004E300FBD0E0F8E6FAEDD2E7CD33EC332482FB20
:1004F300E4C3CF33CFCE33CECD33CD33DBF37B0762
:1005030075F00A846004F6081B0AE5F0F6088FF01C
:10051300740AA4FFACF08EF0740AA42CFEACF05065
:10052300010C8DF0740AA42CFDE435F0F608DBDE33
:0305330074072228
:100F230033DA929E35B16011377FE5FE392184892A
:100F33003AAEC3FF3C1D955B3D6358473E75FDF0DC
:100F43003F3172183F800000C2D50203CE0203C4B2
:100F5300BD80FA50F30203CBED33EC330460F17B35
:100F63003B7AAA79B8783F1200FBED33EC3392D584
:100F7300247B5011A2D570DB500BED448024045028
:100F830004A2D580CEEFFBEEFAEDF9ECF81203588C
:100F9300EFF582F404FC12032412000AC082900FBE
:100FA3002374091205B5ED33CC33D0F092D525F077
:0A0FB300A2D57001C313CC13FD2278
:100B1E003E9248DA3ECCCCCD3F2AAAAB4000000034
:100B2E003F8000003F9837F03FB504F33FD744FCB9
:100B3E003E3172173EB172173F0515913EDE5BD9FD
:100B4E00D2098002C209EDD2E7F8CD33EC3304703E
:100B5E000BBD800592D50203CE0203C440FBD31415
:100B6E0060F2F5F07C3FEE7A00C39496C8948B4009
:100B7E00230AC89469C8941A401A0AC89468C8947B
:100B8E001F40110AC8945AC89425400805F07A00EF
:100B9E00CDC2E7CDC0F08C448D458E468F47EA23FB
:100BAE0023C0E0242EF582E4340BF583120669127D
:100BBE00000AECC0E0EDC0E0EEC0E0EFC0E01206CF
:100BCE0059A844A945AA46AB47120006D0E0FBD06F
:100BDE00E0FAD0E0F9D0E0B2E7F81202048C448DCE
:100BEE00458E468F47900B1E74031205A6A844A986
:100BFE0045AA46AB471200FBD0E0600F243AF582BF
:100C0E00E4340BF58312066912000A8C448D458E6E
:100C1E00468F47D0E0C3947FFDE49400FC12031F7F
:100C2E007B187A727931783F1200FBA844A945AA45
:100C3E0046AB4712000A30090B7BD97A5B79DE7816
:050C4E003E1200FB2234
:100536003F8000004120000042C80000447A0000CD
:10054600461C400047C35000497424004B1896804F
:100556004CBEBC205A0E1BCA6753C21C749DC5AE46
:10056600FB60065407601C2323120594EB54386085
:100576000912058012058F1200FBECF8EDF9EEFA70
:10058600EFCB22EB12058F80F1543803241C900523
:1005960036FE93FC0EEE93FD0EEE930ECE93FF22E7
:1005A600C0E0EFFBEEFAEDF9ECF81200FBD0E0F557
:1005B600F0EFFBEEFAEDF9ECF8120659A3A3A3A3AC
:1005C600E8C0E0E9C0E0EAC0E0EBC0E0C0F012003D
:1005D600FB120669A3A3A3A312000AD0F0D0E0FB86
:0D05E600D0E0FAD0E0F9D0E0F8D5F0D42252
:03000000020FBD2F
:0C0FBD00787FE4F6D8FD75814E02100428
:1005F300BB010689828A83E0225002E722BBFE0206
:09060300E32289828A83E4932238
:10060C00BB010CE58229F582E5833AF583E02250A3
:10061C0006E92582F8E622BBFE06E92582F8E222ED
:0D062C00E58229F582E5833AF583E4932207
:10063900BB010689828A83F0225002F722BBFE01A0
:02064900F3229A
:0E064B00C3E49FFFE49EFEE49DFDE49CFC22C0
:10065900E493FC740193FD740293FE740393FF22E7
:10066900E493F8740193F9740293FA740393FB22E7
:10067900FAE6FB0808E6F925F0F618E6CA3AF62282
:10068900D083D082F8E4937012740193700DA3A300
:1006990093F8740193F5828883E473740293686014
:0606A900EFA3A3A380DF14
:10123C00EFB40A07740D121247740A309811A8996A
:10124C00B8130CC2983098FDA899C298B811F63012
:07125C0099FDC299F59922EA
:1012EC00E4FFFE1205F3600C0FEF70010E09E970BC
:0512FC00F20A80EF2260
:100FC900021301E493A3F8E493A34003F68001F22A
:100FD90008DFF48029E493A3F85407240CC8C33329
:100FE900C4540F4420C8834004F456800146F6DFF8
:100FF900E4800B010204081020408090131AE47E5B
:10100900019360BCA3FF543F30E509541FFEE493EC
:10101900A360010ECF54C025E060A840B8E493A3B3
:10102900FAE493A3F8E493A3C8C582C8CAC583CADE
:10103900F0A3C8C582C8CAC583CADFE9DEE780BE96
:01131D0000CF
:00000001FF
