:100A5800AB07AA06759850438920D3EB9480EA9493
:100A68007040047F8080027F008F87D3EB9480EAF8
:100A78009470E44005FF7EE180047F807E70FDFC79
:100A8800C004C005C006C007E4F9F8D007D006D0F6
:100A980005D004120AAAEFF404F58DF58BC2ABD287
:020AA8008E229C
:080BBD008F993099FDC29922C5
:0E0B8D007F007EE1120A587F02120BBD80FE2F
:0B0BB200256400257500252E2A660032
:0B0BA700EF1FAC0670011E4C70F62220
:100B7500AB07AA06EB1BAE0270011A4E60097F6433
:080B85007E00120BA780ED2297
:040AEE008E3E8F3F6A
:100AF20030090B7525FF75260B7527B28009752500
:100B0200FF75260B7527B5853E28853F297B007A20
:0C0B12000079081206457B007A00790883
:010B1E0022B4
:080B1F008F1D8E1C8D1B8C1A2A
:100B27007525FF75260B7527B8752800851E298F33
:100B37002D8E2C8D2B8C2A7B007A0079101206457E
:060B47007B007A0079102A
:010B4D002285
:1005E900E5392425F8E605392278223007027825ED
:1005F900E475F0011204E502048D2000EB7F2ED290
:10060900008018EF540F2490D43440D4FF30040BE9
:10061900EF24BFB41A0050032461FFE53A600215C4
:100629003A053DE53D7002053C30070D7822E47539
:10063900F0011204E5EF0204D3020B4E7403D20752
:100649008003E4C207F5398B228A238924E4F53A29
:10065900F53CF53DE53A60077F2012062480F575E3
:100669003BFFC201C200C202C203C205C206C208E0
:100679001205F2FF700D3007057F00120635AF3DF8
:10068900AE3C22B4255FC2D5C2041205F2FF24D0C4
:10069900B40A00501A75F00A783A30D50508B6FF41
:1006A9000106C6A426F620D5047002D20380D924F7
:1006B900CFB41A00EF5004C2E5D204020922D201D4
:1006C90080C6D20080C0D20280BCD2D580BAD20501
:1006D90080B47F201206242002077401B53A004035
:1006E900F11205E9FF12062402065DD208D206803E
:1006F900951205E9FB1205E9FA1205E9F94A4B7069
:100709000679197A0A7BFF20022EE53A602A7E00D3
:100719008E827583001204A660060EEE653B70F0AA
:10072900C2D5EBC0E0EAC0E0E9C0E0EE120982D030
:10073900E0F9D0E0FAD0E0FB12048DFF60AAEBC02B
:10074900E0EAC0E0E9C0E0120624D0E02401F9D0D3
:10075900E03400FAD0E0FBE53B0460DCD53BD9800E
:1007690087D20280A212096560F7E53B7001041285
:100779000003A93B600DE53B600914F53B120A0C27
:10078900EF60F3EA30E702F404C3995077EAF425FD
:100799003B0430E701E404F53B800D12096560C1B3
:1007A900EA053B253B120003EA7838F630E701E415
:1007B900253B04D53B0420050114120982E4C0E05D
:1007C900120A0C7838E6601320E70714F612060CB3
:1007D900802204F6D0E014C0E07F0012060CE53B4D
:1007E9006007120603153B800B300503120603D080
:1007F900E002065DD0E00480C512096560A0E53B12
:10080900041200037838EAF6E53B2005026001048A
:05081900240412098215
:10081E0074FF04C0E0120A0C12060CE53B20050220
:10082E006003120603D0E0B53BE87F45120616784A
:10083E0038E67F2B30E7047F2DF404C0E012062447
:10084E00D0E075F00A84C0F012060DD0E012060D4D
:10085E0002065D791080027908C206C2088008D2AD
:10086E00D5790A8004790AC2D5E53B047002F53BBE
:10087E00E4FAFDFEFF1205E9FC7B082001131205C8
:10088E00E9FD7B1030000A1205E9FE1205E9FF7B37
:10089E0020EC3382D592D55013C3E43000069FFF6F
:1008AE00E49EFEE42001039DFDE49CFCE4CBF8C233
:1008BE0001EC700CCFCECDCCE824F8F870F3801795
:1008CE00C3EF33FFEE33FEED33FDEC33FCEB33FBC6
:1008DE00994002FB0FD8E9EB300105F8D0E0C4488F
:1008EE00B201C0E00AEC4D4E4F78207B0070C2EA98
:1008FE00B53B0040BCC0E0120984D0F0D0E020012E
:10090E0004C4C0E0C4B201C0F012060DD0F0D5F0A0
:10091E00EB02065D1204F506FA5308615806CB4C3D
:10092E0006C74208654F086D44086D4906E0430846
:10093E00735507A446080245076E470A395006CF7D
:10094E002D06D32E06F62B06D72306F4200A222ACE
:10095E00068F48000006EEE53BB4FF03753B06121A
:10096E0005E9FC1205E9FD1205E9FE1205E9FF781D
:10097E0031020032790AA2D5200314300509B910CC
:10098E00020404B9080104A2D52006025001042075
:10099E0002689202B53A005034C0E07F203003194D
:1009AE007F30A20272067205500F1209DBC202C21C
:1009BE0006C205C2087F30800F300503E9C0E01281
:1009CE000624300503D0E0F9D0E0B53ACC30051757
:1009DE007F30B9100C1206247F583004077F7880C0
:1009EE0003B908031206243002057F2D0206247F68
:1009FE00202008F87F2B2006F322920280CF7F0062
:100A0E00B4070050052431F8E6FF22286E756C6C91
:100A1E002900D2011205E93001F8C201783A30D529
:100A2E000108F602068F2D504349581205E924039A
:100A3E00B405004001E4900A3493120615743A127C
:0A0A4E000615D203753A0402086190
:10000300F920E72824F950037907E4F42402FB18C4
:10001300DBFDE624FB5014E9600DE4F618E604F674
:0F002300B40A08E4F6D9F57401F60A22C2D52210
:10003200ED33EC3392D5FA602AB4FF33EDC2E77B9D
:10004200FF60067A007957E4227A00796020D504AD
:100052007A00795B224E614E002B494E46002D49B3
:100062004E4600E47A08F608DAFC7B00740722E8C0
:10007200C0E0ECC0E0EDC0E0EEC0E0EFC0E0EA7549
:10008200F010A4CAABF075F04DA42BFBE435F0FCE4
:10009200EA2410FAEB34C5FBEC34D9FCEDC2E7FFDD
:1000A20075F056A4F42411C5F0F434C58FF0A42AD7
:1000B200E5F03BE43CF620E714120403D0E0FFD065
:1000C200E0FED0E0FDD0E0FC1203368014F404120E
:1000D2000403D0E0FFD0E0FED0E0FDD0E0FC12024D
:1000E2002DD0E0F8E6FAEDD2E7CD33EC332482FBF3
:1000F200E4C3CF33CFCE33CECD33CD33DBF37B0767
:1001020075F00A846004F6081B0AE5F0F6088FF021
:10011200740AA4FFACF08EF0740AA42CFEACF0506A
:10012200010C8DF0740AA42CFDE435F0F608DBDE38
:030132007407222D
:10013500020478E86480F8E933E83360110460F07C
:10014500ED33EC337009E8FCE9FDEAFEEBFF220430
:1001550060DED3EB9FEA9EE99DE8C2E78CF0C2F72B
:1001650095F0400CE8CCF8E9CDF9EACEFAEBCFFBF7
:1001750012044385D0F05804700320D5B3E8047009
:10018500075002B2D502048292D5EC0460F7E4CCA4
:10019500C0E0C398F8603B94186008400DD0E0FBC0
:1001A50002045AE4FBFAC9FC8028E830E406E4C9F5
:1001B500FBE4CAFCE830E305E4C9CACBFCE8540714
:1001C5006010F8C3E913F9EA13FAEB13FBEC13FC1F
:1001D500D8F130F52FC3E49CFCEF9BFFEE9AFEEDC2
:1001E50099FDD0E0FBEF4E4D4C701222DB0302046B
:1001F5007FEC2CFCEF33FFEE33FEED33FDED30E706
:10020500EB02045AEF2BFFEE3AFEED39FDD0E0FB91
:1002150050130BBB0003020482ED13FDEE13FEEF3A
:0802250013FFEC13FC02045A64
:10022D00EC4D6011E8497017ED33EC3304600DE4CB
:10023D00FCFFFEFD22E933E8330470F80204781266
:10024D00044358046009E4CC248150062850090267
:10025D00048228400302047FC0E0EB4A7044B98059
:10026D0006D0E0FB02046EEF4E701CBD8008EBFF64
:10027D00EAFEE9FD80EBE98DF0A4FEE5F002031640
:10028D00E9CDF9EAFEEBFFEF89F0A4FCE5F0CE89AC
:10029D00F0A42EFFE435F0CD89F0A42DFEE435F069
:1002AD008067EF4E7005BD80D780C3EF8BF0A4AC97
:1002BD00F0EE8BF0A42CFCE435F0F8EF8AF0A42CD2
:1002CD00E5F038FCE433CB8DF0A42CFCE5F03BF8E5
:1002DD00EE8AF0A42CFCE5F038F8E433CF89F0A4D5
:1002ED002CFCE5F038CF3400CE89F0A42FFFE5F0DB
:1002FD003EFEE433C98DF0A42EFEE5F039CD8AF033
:10030D00A42FFFE5F03EFEE43DFD33D0E0FB5007AA
:10031D000BBB000F020482EC2CFCEF33FFEE33FE1F
:06032D00ED33FD02045A4D
:10033300020482EC5D046005E8590470030204784A
:10034300120443580460F6EC4860F2EC7004FDFEBE
:10035300FF22C860DB2481C85009C398600250069D
:1003630002047F9850CAF582E9294B4A7005AB8293
:1003730002046E75F0007C1A7880C3EF9BEE9AED51
:1003830099400DC3EF9BFFEE9AFEED99FDE842F015
:10039300DC23ACF0D0E0FFD0E0FED0E0FDAB822068
:1003A300E7101BEB60BAEC2CFCEF33FFEE33FEEDF2
:1003B30033FD02045AE803F830E705C0F075F00096
:1003C300EF2FFFEE33FEED33FD40B830E7C280AAD6
:1003D3003F8000004120000042C80000447A000032
:1003E300461C400047C35000497424004B189680B4
:1003F3004CBEBC205A0E1BCA6753C21C749DC5AEAB
:10040300FB60065407601C2323120431EB5438604D
:100413000912041D12042C12022DECF8EDF9EEFA68
:10042300EFCB22EB12042C80F1543803241C9003ED
:10043300D3FE93FC0EEE93FD0EEE930ECE93FF22AE
:10044300E9D2E7C933E833F892D5EDD2E7CD33ECFF
:0704530033FC5002B2D52278
:10045A00EC30E7100FBF000C0EBE00080DBD000403
:10046A000BEB6014A2D5EB13FCED92E7FD2274FFAF
:10047A00FCFDFEFF22E480F8A2D574FF13FC7D8008
:03048A00E480EF1C
:03000000020B9B55
:0C0B9B00787FE4F6D8FD75813F020B8DD9
:10048D00BB010689828A83E0225002E722BBFE026D
:09049D00E32289828A83E49322A0
:1004A600BB010CE58229F582E5833AF583E022500B
:1004B60006E92582F8E622BBFE06E92582F8E22255
:0D04C600E58229F582E5833AF583E493226F
:1004D300BB010689828A83F0225002F722BBFE0108
:0204E300F32202
:100AAA00C2D5E830E70FB2D5E4C39BFBE49AFAE477
:100ABA0099F9E498F8EC30E717B2D5120AE0120572
:100ACA0057E4C39BFBE49AFAE499F9E498F88003A3
:100ADA0012055730D50DE4C39FFFE49EFEE49DFD49
:040AEA00E49CFC226A
:1004E500FAE6FB0808E6F925F0F618E6CA3AF62218
:1004F500D083D082F8E4937012740193700DA3A396
:1005050093F8740193F5828883E4737402936860A9
:06051500EFA3A3A380DFA9
:100B4E00EFB40A07740D120B59740A309811A89954
:100B5E00B8130CC2983098FDA899C298B811F63007
:070B6E0099FDC299F59922DF
:10051B0075F008758200EF2FFFEE33FECD33CDCC97
:10052B0033CCC58233C5829BED9AEC99E58298401A
:10053B000CF582EE9BFEED9AFDEC99FC0FD5F0D6F7
:10054B00E4CEFBE4CDFAE4CCF9A88222B800C1B921
:10055B000059BA002DEC8BF084CFCECDFCE5F0CB5F
:10056B00F97818EF2FFFEE33FEED33FDEC33FCEB98
:10057B0033FB10D703994004EB99FB0FD8E5E4F953
:10058B00FA227818EF2FFFEE33FEED33FDEC33FC40
:10059B00C933C910D7059BE99A4007EC9BFCE99A34
:1005AB00F90FD8E0E4C9FAE4CCFB2275F010EF2F79
:1005BB00FFEE33FEED33FDCC33CCC833C810D70779
:1005CB009BEC9AE899400AED9BFDEC9AFCE899F8B4
:0E05DB000FD5F0DAE4CDFBE4CCFAE4C8F92247
:00000001FF
