:1000A5004063361C386CC6020C1890DE7B0918308C
:0800B50002C66C381C366340E2
:10004700E4F509F50AE4F508E508250A9000A59303
:10005700FDAF081200820508E508C3940840E905CA
:1000670009E509D3940840DDE4F5097408250AF584
:0B0077000AD3941040CFE4F50A80CAC1
:0B00E100EF1FAC0670011E4C70F622F1
:1000BD00AB07AA06EB1BAE0270011A4E60097F64F6
:0800CD007E001200E180ED222B
:020003008F0C60
:10000500E4F50DE50CC4131313540124FF92B4E574
:100015000C25E0F50CC2B67F017E001200E1D2B6D8
:100025007F017E001200E1050DE50DC3940840D364
:10003500C2B57F017E001200E1D2B57F017E0002CC
:0200450000E1D8
:0400EC007580FF22FA
:100082008F0BAE05AF06120003AF0BA807748008F2
:100092008002C313D8FCF4F5807F647E001200E175
:0300A2000200EC6D
:030000000200D526
:0C00D500787FE4F6D8FD75810D0200472D
:00000001FF
