:0B0AEB007DE87C037F64120A0D80FE92
:100A0D008F0D8C0E8D0FAF0D150DEF6025B295ACC2
:100A1D000EAD0FE41200A8A804A905AA06AB077F26
:100A2D00007E507D437C471200061200E1120AF64B
:030A3D0080D42240
:0B0B0100256400257500252E2A6600E3
:0B0AF600EF1FAC0670011E4C70F622D2
:100AC700AB07AA06EB1BAE0270011A4E60097F64E2
:080AD7007E00120AF680ED22F8
:040A40008E108F1174
:100A440030090B7525FF75260B752701800975255F
:100A5400FF75260B7527048510288511297B017ADB
:0C0A640000790A1205FA7B017A00790A79
:010A70002263
:080A71008F0B8E0A8D098C0821
:100A79007525FF75260B752707752800850C298FA5
:100A89002D8E2C8D2B8C2A7B017A0079001205FA88
:060A99007B017A007900E8
:010A9F002234
:10000300020157EC5D046005E85904700302014DD9
:10001300120118580460F6EC4860F2EC7004FDFE1F
:10002300FF22C860DB2481C85009C39860025006D0
:100033000201549850CAF582E9294B4A7005AB82F4
:1000430002014375F0007C1A7880C3EF9BEE9AEDB2
:1000530099400DC3EF9BFFEE9AFEED99FDE842F048
:10006300DC23ACF0D0E0FFD0E0FED0E0FDAB82209B
:10007300E7101BEB60BAEC2CFCEF33FFEE33FEED25
:1000830033FD02012FE803F830E705C0F075F000F7
:10009300EF2FFFEE33FEED33FD40B830E7C280AA09
:1000A30075F020800E75F010800575F0087D007ED8
:1000B300007F003392D530D50312055AEC3340103C
:1000C300EF33FFEE33FEED33FDEC33FCD5F0ED22E1
:0E00D300E5F0247EA2D513CC92E7CDCEFF221D
:1000E100EDD2E7CD33EC3392D524814006E4FFFE17
:1000F100FDFC22FCE4CFCECDCC24E0501174FF8076
:10010100EDC3CC13CCCD13CDCE13CECF13CF047012
:07011100F030D5DE02055AB3
:10059E00E5392425F8E60539227822300702782538
:1005AE00E475F0011205680205022000EB7F2ED2E1
:1005BE00008018EF540F2490D43440D4FF30040B35
:1005CE00EF24BFB41A0050032461FFE53A60021510
:1005DE003A053DE53D7002053C30070D7822E47585
:1005EE00F001120568EF020548020AA07403D20753
:1005FE008003E4C207F5398B228A238924E4F53A75
:10060E00F53CF53DE53A60077F201205D980F5757A
:10061E003BFFC201C200C202C203C205C206C2082B
:10062E001205A7FF700D3007057F001205EAAF3DDA
:10063E00AE3C22B4255FC2D5C2041205A7FF24D05A
:10064E00B40A00501A75F00A783A30D50508B6FF8C
:10065E000106C6A426F620D5047002D20380D92442
:10066E00CFB41A00EF5004C2E5D2040208D7D2016B
:10067E0080C6D20080C0D20280BCD2D580BAD2054C
:10068E0080B47F201205D92002077401B53A0040CC
:10069E00F112059EFF1205D9020612D208D206806B
:1006AE009512059EFB12059EFA12059EF94A4B7095
:1006BE000679CE7A097BFF20022EE53A602A7E006B
:1006CE008E8275830012051B60060EEE653B70F080
:1006DE00C2D5EBC0E0EAC0E0E9C0E0EE120937D0C7
:1006EE00E0F9D0E0FAD0E0FB120502FF60AAEBC001
:1006FE00E0EAC0E0E9C0E01205D9D0E02401F9D06B
:10070E00E03400FAD0E0FBE53B0460DCD53BD98059
:10071E0087D20280A212091A60F7E53B700104121B
:10072E000162A93B600DE53B600914F53B1209C15E
:10073E00EF60F3EA30E702F404C3995077EAF42548
:10074E003B0430E701E404F53B800D12091A60C149
:10075E00EA053B253B120162EA7838F630E701E400
:10076E00253B04D53B0420050114120937E4C0E0F3
:10077E001209C17838E6601320E70714F61205C196
:10078E00802204F6D0E014C0E07F001205C1E53BE4
:10079E0060071205B8153B800B3005031205B8D063
:1007AE00E0020612D0E00480C512091A60A0E53BF3
:1007BE00041201627838EAF6E53B20050260010476
:0507CE002404120937AC
:1007D30074FF04C0E01209C11205C1E53B20050204
:1007E30060031205B8D0E0B53BE87F451205CB782E
:1007F30038E67F2B30E7047F2DF404C0E01205D9DF
:10080300D0E075F00A84C0F01205C2D0E01205C230
:10081300020612791080027908C206C2088008D243
:10082300D5790A8004790AC2D5E53B047002F53B09
:10083300E4FAFDFEFF12059EFC7B0820011312055E
:100843009EFD7B1030000A12059EFE12059EFF7B63
:1008530020EC3382D592D55013C3E43000069FFFBA
:10086300E49EFEE42001039DFDE49CFCE4CBF8C27E
:1008730001EC700CCFCECDCCE824F8F870F38017E0
:10088300C3EF33FFEE33FEED33FDEC33FCEB33FB11
:10089300994002FB0FD8E9EB300105F8D0E0C448DA
:1008A300B201C0E00AEC4D4E4F78207B0070C2EAE3
:1008B300B53B0040BCC0E0120939D0F0D0E02001C4
:1008C30004C4C0E0C4B201C0F01205C2D0F0D5F038
:1008D300EB02061212057806AF5308165806804C31
:1008E300067C42081A4F0822440822490695430809
:1008F300285507594607B74507234709EE5006848D
:100903002D06882E06AB2B068C2306A92009D72A91
:10091300064448000006A3E53BB4FF03753B0612FB
:10092300059EFC12059EFD12059EFE12059EFF7894
:1009330031020191790AA2D5200314300509B910B7
:10094300020404B9080104A2D520060250010420C0
:1009530002689202B53A005034C0E07F2030031998
:100963007F30A20272067205500F120990C202C2B2
:1009730006C205C2087F30800F300503E9C0E012CC
:1009830005D9300503D0E0F9D0E0B53ACC300517EE
:100993007F30B9100C1205D97F583004077F788057
:1009A30003B908031205D93002057F2D0205D97F4B
:1009B300202008F87F2B2006F322920280CF7F00AD
:1009C300B4070050052431F8E6FF22286E756C6CDD
:1009D3002900D20112059E3001F8C201783A30D5C0
:1009E3000108F60206442D5043495812059E24037C
:1009F300B405004001E49009E9931205CA743A1260
:0A0A030005CAD203753A0402081672
:10011800E9D2E7C933E833F892D5EDD2E7CD33EC2D
:0701280033FC5002B2D522A6
:10012F00EC30E7100FBF000C0EBE00080DBD000431
:10013F000BEB6014A2D5EB13FCED92E7FD2274FFDD
:10014F00FCFDFEFF22E480F8A2D574FF13FC7D8036
:03015F00E480EF4A
:10016200F920E72824F950037907E4F42402FB1864
:10017200DBFDE624FB5014E9600DE4F618E604F614
:0F018200B40A08E4F6D9F57401F60A22C2D522B0
:10019100ED33EC3392D5FA602AB4FF33EDC2E77B3D
:1001A100FF60067A0179B6E4227A0179BF20D5048D
:1001B1007A0179BA224E614E002B494E46002D49F3
:1001C1004E4600E47A08F608DAFC7B00740722E860
:1001D100C0E0ECC0E0EDC0E0EEC0E0EFC0E0EA75E9
:1001E100F010A4CAABF075F04DA42BFBE435F0FC84
:1001F100EA2410FAEB34C5FBEC34D9FCEDC2E7FF7D
:1002010075F056A4F42411C5F0F434C58FF0A42A76
:10021100E5F03BE43CF620E7141204C2D0E0FFD045
:10022100E0FED0E0FDD0E0FC1200068014F40412E0
:1002310004C2D0E0FFD0E0FED0E0FDD0E0FC12032C
:100241008CD0E0F8E6FAEDD2E7CD33EC332482FB33
:10025100E4C3CF33CFCE33CECD33CD33DBF37B0706
:1002610075F00A846004F6081B0AE5F0F6088FF0C1
:10027100740AA4FFACF08EF0740AA42CFEACF0500A
:10028100010C8DF0740AA42CFDE435F0F608DBDED8
:03029100740722CD
:1002940002014DE86480F8E933E83360110460F04A
:1002A400ED33EC337009E8FCE9FDEAFEEBFF2204D0
:1002B40060DED3EB9FEA9EE99DE8C2E78CF0C2F7CB
:1002C40095F0400CE8CCF8E9CDF9EACEFAEBCFFB97
:1002D40012011885D0F05804700320D5B3E80470D7
:1002E400075002B2D502015792D5EC0460F7E4CC72
:1002F400C0E0C398F8603B94186008400DD0E0FB60
:1003040002012FE4FBFAC9FC8028E830E406E4C9C2
:10031400FBE4CAFCE830E305E4C9CACBFCE85407B3
:100324006010F8C3E913F9EA13FAEB13FBEC13FCBE
:10033400D8F130F52FC3E49CFCEF9BFFEE9AFEED61
:1003440099FDD0E0FBEF4E4D4C701222DB0302010D
:1003540054EC2CFCEF33FFEE33FEED33FDED30E7D0
:10036400EB02012FEF2BFFEE3AFEED39FDD0E0FB5F
:1003740050130BBB0003020157ED13FDEE13FEEF08
:0803840013FFEC13FC02012F32
:10038C00EC4D6011E8497017ED33EC3304600DE46B
:10039C00FCFFFEFD22E933E8330470F802014D1234
:1003AC00011858046009E4CC248150062850090235
:1003BC000157284003020154C0E0EB4A7044B98055
:1003CC0006D0E0FB020143EF4E701CBD8008EBFF32
:1003DC00EAFEE9FD80EBE98DF0A4FEE5F002047580
:1003EC00E9CDF9EAFEEBFFEF89F0A4FCE5F0CE894C
:1003FC00F0A42EFFE435F0CD89F0A42DFEE435F009
:10040C008067EF4E7005BD80D780C3EF8BF0A4AC36
:10041C00F0EE8BF0A42CFCE435F0F8EF8AF0A42C71
:10042C00E5F038FCE433CB8DF0A42CFCE5F03BF884
:10043C00EE8AF0A42CFCE5F038F8E433CF89F0A474
:10044C002CFCE5F038CF3400CE89F0A42FFFE5F07A
:10045C003EFEE433C98DF0A42EFEE5F039CD8AF0D2
:10046C00A42FFFE5F03EFEE43DFD33D0E0FB50074A
:10047C000BBB000F020157EC2CFCEF33FFEE33FEED
:06048C00ED33FD02012F1B
:100492003F8000004120000042C80000447A000072
:1004A200461C400047C35000497424004B189680F4
:1004B2004CBEBC205A0E1BCA6753C21C749DC5AEEB
:1004C200FB60065407601C23231204F0EB543860CF
:1004D200091204DC1204EB12038CECF8EDF9EEFACB
:1004E200EFCB22EB1204EB80F1543803241C90046E
:1004F20092FE93FC0EEE93FD0EEE930ECE93FF2230
:03000000020ADF12
:0C0ADF00787FE4F6D8FD75813D020AEB3B
:10050200BB010689828A83E0225002E722BBFE02F7
:09051200E32289828A83E493222A
:10051B00BB010CE58229F582E5833AF583E0225095
:10052B0006E92582F8E622BBFE06E92582F8E222DF
:0D053B00E58229F582E5833AF583E49322F9
:10054800BB010689828A83F0225002F722BBFE0192
:02055800F3228C
:0E055A00C3E49FFFE49EFEE49DFDE49CFC22B2
:10056800FAE6FB0808E6F925F0F618E6CA3AF62294
:10057800D083D082F8E4937012740193700DA3A312
:1005880093F8740193F5828883E473740293686026
:06059800EFA3A3A380DF26
:100AA000EFB40A07740D120AAB740A309811A899B2
:100AB000B8130CC2983098FDA899C298B811F630B6
:070AC00099FDC299F599228E
:00000001FF
