:10105A00C2007D017F30121001120D42120DE6808E
:01106A00F88D
:090FEA0001540001520101530100
:10106B00EF14FFF87401088002C333D8FCF452A0CC
:01107B002252
:10107C00EF14FFF87401088002C333D8FC42A0229D
:100FBA00EF14FEF8E5A0088002C313D8FC540160C0
:070FCA000302106B12107C02
:010FD10022FD
:040E54008E1D8F1E42
:100E5800E4F51FE51F04FF12106BAF1EAE1D121044
:100E6800D0051FE51FC3940840E9E4F51FE51F04FA
:0D0E7800FF12107C051FE51FC3940840F019
:010E8500224A
:040F39008E4F8F50F8
:100F3D00E4F551E55104FF12106BAF50AE4F121096
:100F4D00D0E55104FF12107C0551E551C3940840C2
:010F5D00E2B1
:010F5E002270
:100F5F00E552D394084010755201E4FEEE04FF12DF
:0E0F6F00107C0EBE08F622AF5212106B055217
:010F7D002251
:100EE600E55364016007E553D39408401075530138
:100EF600AF5312106B7F0812107C055322E5531472
:0B0F0600FF12107CAF5312106B05535C
:010F110022BD
:0310E9002564007B
:070FF300021A0000011801C1
:0E109B00C2007D017F311210017F06020FBAE4
:0110EC0022E1
:0E10A900C2007D017F331210017F08020FBAD2
:100E2100051BE51B7002051A752DFF752E10752F18
:100E3100E9AE1AFF7C007D0A1204E58E308F317B0A
:100E4100007A0079221206B57B007A0079227D01B1
:030E5100020D9DF2
:0110ED0022E0
:0E10B700C2007D017F321210017F07020FBAC6
:0310E6000210A94C
:0F108C00C2007D017F30121001E4F51AF51B221E
:100F9D00E51C24FE600D14600D14600D2403700C0F
:0D0FAD000210ED0210B70210E612108C22A7
:100D4200E518603130B10930B00630B20320B32566
:100D5200E4F5187F0AFE120FD220B10475190122A0
:100D620020B0047519022220B2047519032220B39F
:100D7200267519042230B12230B01F30B21C30B3B4
:100D8200197518017F0A7E00120FD230B10C30B0F3
:0A0D92000930B20630B303E4F5198E
:010D9C002234
:100DE600E51914601414601A146020146026240493
:100DF6007028120F9DE4F51C22751C017519050259
:100E0600109B751C027519050210EC751C037519EB
:0B0E1600050210A9751C04120E212219
:100F7E00003F065B4F666D7D077F6F777C585E790D
:0F0F8E007176300E38543F7367506D3E3E6E40A3
:060FFA00010800010900DE
:10102F00C374089FFF1392A2EFC313FF1392A3EF92
:05103F00C3131392A48D
:011044002289
:100AC800EF12054A0BC92D0B63300B63310B6332F0
:100AD8000B63330B63340B63350B63360B63370BD4
:100AE80063380B63390B6A410B6F420B74430B7904
:100AF800440B7E450B83460B88480B8D490B924A65
:100B08000B974C0B9C4E0BA14F0BA6500BAB510BEC
:100B1800B0520BB5530BBA550BBF560BC4590B6AE1
:100B2800610B6F620B74630B79640B7E650B8366D4
:100B38000B88680B8D690B926A0B976C0B9C6E0B7C
:100B4800A16F0BA6700BAB710BB0720BB5730BBA20
:100B5800750BBF760BC47900000BD0EF900F4F9345
:100B6800FF22900F89805D900F8A8058900F8B80AC
:100B780053900F8C804E900F8D8049900F8E80443B
:100B8800900F8F803F900F90803A900F9180359012
:100B98000F928030900F93802B900F948026900FA7
:100BA800958021900F96801C900F978017900F9832
:100BB8008012900F99800D900F9A8008900F9B805B
:0B0BC80003900F9CE493FF227F0022AB
:10100100AE05AD07AF0612102FAF05120AC88F80CB
:071011003000034380802240
:080CE0008B308A3189328D331B
:100CE800E4F535C374099533FFE535C39F504AAB26
:100CF80030AA31A9328535827583001204A6FF60B7
:100D080038B42E041533802DE5332535FDE535241B
:100D180001FBE433FAE534758300B50308E583B5D0
:100D28000203D38001C392001210017F017E0012DA
:090D38000FD2E4F580053580AA14
:010D4100228F
:080D9D008B2A8A2B892C8D2D75
:100DA500E4F52EF52FAB2AAA2BA92C852E82758367
:100DB500001204A6FF6008642E6004052E80E6ABD1
:100DC5002AAA2BA92C121045C3E52E9FE49E500399
:100DD500852E2FAB2AAA2BA92C852F34AD2D020CDD
:010DE500E02D
:101018008D57C3EE6480948050028001C3920912F8
:071028000E86AD57020D9D7D
:0B10C50085164A120EB7AD17020D9DF4
:060C5F008B4B8A4C894D0D
:100C6500E4F580AB4BAA4CA94D850882F5831204A7
:100C7500A6FFB42E0C74092508F8760105080509A8
:100C850022E5082DC39509F54E740A2508F8E624D2
:100C9500FF9200AD4E121001AB4BAA4CA94D850831
:100CA500827583001204A670047F0180027F00E52F
:100CB5004EB408047E0180027E00EE4F601AE4F512
:100CC50008E5096004E4F50922780A7C007D007BCB
:0A0CD500FF7A0F797E02063C050845
:010CDF0022F2
:0B10DB00256400257500252E2A660004
:0B10D000EF1FAC0670011E4C70F622F2
:100FD200AB07AA06EB1BAE0270011A4E60097F64D2
:080FE2007E001210D080ED2208
:040E86008E558F56A0
:100E8A0030090B752DFF752E10752FDB8009752D16
:100E9A00FF752E10752FDE8555308556317B017A08
:0C0EAA0000790A1206B57B017A00790A73
:010EB6002219
:080EB7008F498E488D478C46DF
:100EBF00752DFF752E10752FE1753000854A318F16
:100ECF00358E348D338C327B017A0079001206B562
:060EDF007B017A0079009E
:010EE50022EA
:10065900E541242DF8E6054122782A300702782D54
:10066900E475F00112053A02048D2000EB7F2ED2C9
:10067900008018EF540F2490D43440D4FF30040B79
:10068900EF24BFB41A0050032461FFE5426002154C
:10069900420545E5457002054430070D782AE475A1
:1006A900F00112053AEF0204D3020F127403D207C4
:1006B9008003E4C207F5418B2A8A2B892CE4F54291
:1006C900F544F545E54260077F2012069480F575EB
:1006D90043FFC201C200C202C203C205C206C20868
:1006E900120662FF700D3007057F001206A5AF459F
:1006F900AE4422B4255FC2D5C204120662FF24D0DB
:10070900B40A00501A75F00A784230D50508B6FFC8
:100719000106C6A426F620D5047002D20380D92486
:10072900CFB41A00EF5004C2E5D204020992D201F3
:1007390080C6D20080C0D20280BCD2D580BAD20590
:1007490080B47F201206942002077401B54200404C
:10075900F1120659FF1206940206CDD208D206807C
:1007690095120659FB120659FA120659F94A4B70A5
:100779000679897A0A7BFF20022EE542602A7E00EB
:100789008E827583001204A660060EEE654370F032
:10079900C2D5EBC0E0EAC0E0E9C0E0EE1209F2D050
:1007A900E0F9D0E0FAD0E0FB12048DFF60AAEBC0BB
:1007B900E0EAC0E0E9C0E0120694D0E02401F9D0F3
:1007C900E03400FAD0E0FBE5430460DCD543D9808E
:1007D90087D20280A21209D560F7E543700104129D
:1007E9000003A943600DE543600914F543120A7C2F
:1007F900EF60F3EA30E702F404C3995077EAF4258D
:10080900430430E701E404F543800D1209D560C1C2
:10081900EA05432543120003EA7840F630E701E48C
:10082900254304D54304200501141209F2E4C0E06C
:10083900120A7C7840E6601320E70714F612067C5A
:10084900802204F6D0E014C0E07F0012067CE54364
:1008590060071206731543800B300503120673D027
:10086900E00206CDD0E00480C51209D560A0E543B9
:10087900041200037840EAF6E5432005026001040A
:0508890024041209F235
:10088E0074FF04C0E0120A7C12067CE543200502C8
:10089E006003120673D0E0B543E87F4512068678F2
:1008AE0040E67F2B30E7047F2DF404C0E01206945F
:1008BE00D0E075F00A84C0F012067DD0E012067DFD
:1008CE000206CD791080027908C206C2088008D2CD
:1008DE00D5790A8004790AC2D5E543047002F5433E
:1008EE00E4FAFDFEFF120659FC7B082001131206E6
:1008FE0059FD7B1030000A120659FE120659FF7B75
:10090E0020EC3382D592D55013C3E43000069FFFFE
:10091E00E49EFEE42001039DFDE49CFCE4CBF8C2C2
:10092E0001EC700CCFCECDCCE824F8F870F3801724
:10093E00C3EF33FFEE33FEED33FDEC33FCEB33FB55
:10094E00994002FB0FD8E9EB300105F8D0E0C4481E
:10095E00B201C0E00AEC4D4E4F78207B0070C2EA27
:10096E00B5430040BCC0E01209F4D0F0D0E0200145
:10097E0004C4C0E0C4B201C0F012067DD0F0D5F0C0
:10098E00EB0206CD12054A076A5308D158073B4CB5
:10099E0007374208D54F08DD4408DD4907504308A4
:1009AE00E35508144608724507DE470AA950073F6B
:1009BE002D07432E07662B0747230764200A922A2A
:1009CE0006FF480000075EE543B4FF0375430612B9
:1009DE000659FC120659FD120659FE120659FF78E9
:1009EE0039020032790AA2D5200314300509B91054
:1009FE00020404B9080104A2D52006025001042005
:100A0E0002689202B542005034C0E07F20300319D4
:100A1E007F30A20272067205500F120A4BC202C23A
:100A2E0006C205C2087F30800F300503E9C0E01210
:100A3E000694300503D0E0F9D0E0B542CC3005176E
:100A4E007F30B9100C1206947F583004077F7880DF
:100A5E0003B908031206943002057F2D0206947F17
:100A6E00202008F87F2B2006F322920280CF7F00F1
:100A7E00B4070050052439F8E6FF22286E756C6C19
:100A8E002900D2011206593001F8C201784230D540
:100A9E000108F60206FF2D50434958120659240349
:100AAE00B405004001E4900AA493120685743A122C
:0A0ABE000685D2037542040208D138
:10000300F920E72824F950037907E4F42402FB18C4
:10001300DBFDE624FB5014E9600DE4F618E604F674
:0F002300B40A08E4F6D9F57401F60A22C2D52210
:10003200ED33EC3392D5FA602AB4FF33EDC2E77B9D
:10004200FF60067A007957E4227A00796020D504AD
:100052007A00795B224E614E002B494E46002D49B3
:100062004E4600E47A08F608DAFC7B00740722E8C0
:10007200C0E0ECC0E0EDC0E0EEC0E0EFC0E0EA7549
:10008200F010A4CAABF075F04DA42BFBE435F0FCE4
:10009200EA2410FAEB34C5FBEC34D9FCEDC2E7FFDD
:1000A20075F056A4F42411C5F0F434C58FF0A42AD7
:1000B200E5F03BE43CF620E714120403D0E0FFD065
:1000C200E0FED0E0FDD0E0FC1203368014F404120E
:1000D2000403D0E0FFD0E0FED0E0FDD0E0FC12024D
:1000E2002DD0E0F8E6FAEDD2E7CD33EC332482FBF3
:1000F200E4C3CF33CFCE33CECD33CD33DBF37B0767
:1001020075F00A846004F6081B0AE5F0F6088FF021
:10011200740AA4FFACF08EF0740AA42CFEACF0506A
:10012200010C8DF0740AA42CFDE435F0F608DBDE38
:030132007407222D
:10013500020478E86480F8E933E83360110460F07C
:10014500ED33EC337009E8FCE9FDEAFEEBFF220430
:1001550060DED3EB9FEA9EE99DE8C2E78CF0C2F72B
:1001650095F0400CE8CCF8E9CDF9EACEFAEBCFFBF7
:1001750012044385D0F05804700320D5B3E8047009
:10018500075002B2D502048292D5EC0460F7E4CCA4
:10019500C0E0C398F8603B94186008400DD0E0FBC0
:1001A50002045AE4FBFAC9FC8028E830E406E4C9F5
:1001B500FBE4CAFCE830E305E4C9CACBFCE8540714
:1001C5006010F8C3E913F9EA13FAEB13FBEC13FC1F
:1001D500D8F130F52FC3E49CFCEF9BFFEE9AFEEDC2
:1001E50099FDD0E0FBEF4E4D4C701222DB0302046B
:1001F5007FEC2CFCEF33FFEE33FEED33FDED30E706
:10020500EB02045AEF2BFFEE3AFEED39FDD0E0FB91
:1002150050130BBB0003020482ED13FDEE13FEEF3A
:0802250013FFEC13FC02045A64
:10022D00EC4D6011E8497017ED33EC3304600DE4CB
:10023D00FCFFFEFD22E933E8330470F80204781266
:10024D00044358046009E4CC248150062850090267
:10025D00048228400302047FC0E0EB4A7044B98059
:10026D0006D0E0FB02046EEF4E701CBD8008EBFF64
:10027D00EAFEE9FD80EBE98DF0A4FEE5F002031640
:10028D00E9CDF9EAFEEBFFEF89F0A4FCE5F0CE89AC
:10029D00F0A42EFFE435F0CD89F0A42DFEE435F069
:1002AD008067EF4E7005BD80D780C3EF8BF0A4AC97
:1002BD00F0EE8BF0A42CFCE435F0F8EF8AF0A42CD2
:1002CD00E5F038FCE433CB8DF0A42CFCE5F03BF8E5
:1002DD00EE8AF0A42CFCE5F038F8E433CF89F0A4D5
:1002ED002CFCE5F038CF3400CE89F0A42FFFE5F0DB
:1002FD003EFEE433C98DF0A42EFEE5F039CD8AF033
:10030D00A42FFFE5F03EFEE43DFD33D0E0FB5007AA
:10031D000BBB000F020482EC2CFCEF33FFEE33FE1F
:06032D00ED33FD02045A4D
:10033300020482EC5D046005E8590470030204784A
:10034300120443580460F6EC4860F2EC7004FDFEBE
:10035300FF22C860DB2481C85009C398600250069D
:1003630002047F9850CAF582E9294B4A7005AB8293
:1003730002046E75F0007C1A7880C3EF9BEE9AED51
:1003830099400DC3EF9BFFEE9AFEED99FDE842F015
:10039300DC23ACF0D0E0FFD0E0FED0E0FDAB822068
:1003A300E7101BEB60BAEC2CFCEF33FFEE33FEEDF2
:1003B30033FD02045AE803F830E705C0F075F00096
:1003C300EF2FFFEE33FEED33FD40B830E7C280AAD6
:1003D3003F8000004120000042C80000447A000032
:1003E300461C400047C35000497424004B189680B4
:1003F3004CBEBC205A0E1BCA6753C21C749DC5AEAB
:10040300FB60065407601C2323120431EB5438604D
:100413000912041D12042C12022DECF8EDF9EEFA68
:10042300EFCB22EB12042C80F1543803241C9003ED
:10043300D3FE93FC0EEE93FD0EEE930ECE93FF22AE
:10044300E9D2E7C933E833F892D5EDD2E7CD33ECFF
:0704530033FC5002B2D52278
:10045A00EC30E7100FBF000C0EBE00080DBD000403
:10046A000BEB6014A2D5EB13FCED92E7FD2274FFAF
:10047A00FCFDFEFF22E480F8A2D574FF13FC7D8008
:03048A00E480EF1C
:03000000020BD31D
:0C0BD300787FE4F6D8FD758157020C1AFB
:10048D00BB010689828A83E0225002E722BBFE026D
:09049D00E32289828A83E49322A0
:1004A600BB010CE58229F582E5833AF583E022500B
:1004B60006E92582F8E622BBFE06E92582F8E22255
:0D04C600E58229F582E5833AF583E493226F
:1004D300BB010689828A83F0225002F722BBFE0108
:0204E300F32202
:1004E500BC000BBE0029EF8DF084FFADF022E4CCFB
:1004F500F875F008EF2FFFEE33FEEC33FCEE9DECC4
:10050500984005FCEE9DFE0FD5F0E9E4CEFD22ED09
:10051500F8F5F0EE8420D21CFEADF075F008EF2F53
:10052500FFED33FD4007985006D5F0F222C398FD44
:050535000FD5F0EA22E1
:10053A00FAE6FB0808E6F925F0F618E6CA3AF622C2
:10054A00D083D082F8E4937012740193700DA3A340
:10055A0093F8740193F5828883E473740293686054
:06056A00EFA3A3A380DF54
:100F1200EFB40A07740D120F1D740A309811A899C4
:100F2200B8130CC2983098FDA899C298B811F6303F
:070F320099FDC299F5992217
:10057000E709F60870FA8046E709F20870FA803E4B
:1005800088828C83E709F0A370FA807EE309F6087D
:1005900070FA8076E309F20870FA806E88828C83A4
:1005A000E309F0A370FA806289828A83E0A3F608E7
:1005B00070FA805689828A83E0A3F20870FA804A32
:1005C00080D280FA80C680D4806580F2803180102D
:1005D00080A680EA809A80A880DA80E280CA803192
:1005E00089828A83ECFAE493A3C8C582C8CCC58308
:1005F000CCF0A3C8C582C8CCC583CC70E9800D8976
:10060000828A83E493A3F60870F9ECFAA9F0EDFB73
:100610002289828A83ECFAE0A3C8C582C8CCC5834C
:10062000CCF0A3C8C582C8CCC583CC70EA80DD8974
:10063000828A83E493A3F20870F980CE88F0ED24D7
:1006400002B4040050C4F582EB2402B4040050BA92
:0906500023234582239005C073A9
:10104500E4FFFE12048D600C0FEF70010E09E970CC
:05105500F20A80EF2209
:100BDF0002105AE493A3F8E493A34003F68001F2C2
:100BEF0008DFF48029E493A3F85407240CC8C33317
:100BFF00C4540F4420C8834004F456800146F6DFE6
:100C0F00E4800B0102040810204080900FEAE47E7C
:100C1F00019360BCA3FF543F30E509541FFEE493DA
:100C2F00A360010ECF54C025E060A840B8E493A3A1
:100C3F00FAE493A3F8E493A3C8C582C8CAC583CACC
:100C4F00F0A3C8C582C8CAC583CADFE9DEE780BE84
:0110000000EF
:00000001FF
