:10138300C2007D017F301213411211211211C58059
:01139300F861
:0B13EE00EF1FAC0670011E4C70F622D1
:10131100AB07AA06EB1BAE0270011A4E60097F648F
:081321007E001213EE80ED22A4
:10139400EF14FFF87401088002C333D8FCF452A0A0
:0113A4002226
:1013A500EF14FFF87401088002C333D8FC42A02271
:10132900EF14FEF8E5A0088002C313D8FC5401604D
:07133900030213941213A537
:01134000228A
:041231008E1D8F1E61
:10123500E4F51FE51F04FF121394AF1EAE1D121334
:10124500EE051FE51FC3940840E9E4F51FE51F04FB
:0D125500FF1213A5051FE51FC3940840F00C
:011262002269
:04128A008E4A8F4BAE
:10128E00E4F54CE54C04FF121394AF4BAE4A121327
:10129E00EEE54C04FF1213A5054CE54CC394084033
:0112AE00E25D
:0112AF00221C
:031404002564005C
:0713F900021A0000011801B7
:0E13C400C2007D017F311213417F0602132902
:0114070022C2
:0E13D200C2007D017F331213417F08021329F0
:1011FE00051BE51B7002051A752DFF752E14752F34
:10120E0004AE1AFF7C007D0A12064B8E308F317BA6
:10121E00007A0079221207607B007A0079227D0124
:03122E0002117C2E
:0114080022C1
:0E13E000C2007D017F321213417F07021329E4
:031401000213D201
:0F13B500C2007D017F30121341E4F51AF51B22AF
:1012F400E51C24FE600D14600D14600D2403700CB5
:0D1304000214080213E00214011213B522B6
:10112100E518603130B10930B00630B20320B32583
:10113100E4F5187F0AFE12131120B104751901227A
:1011410020B0047519022220B2047519032220B3BC
:10115100267519042230B12230B01F30B21C30B3D1
:10116100197518017F0A7E0012131130B10C30B0CD
:0A1171000930B20630B303E4F519AB
:01117B002251
:1011C500E51914601414601A14601E1460242404B4
:1011D50070261212F4E4F51C22751C01751905021E
:1011E50013C4751C0275190522751C0375190502B2
:0911F50013D2751C041211FE2234
:1012D3002564003F065B4F666D7D077F6F777C5803
:1012E3005E797176300E38543F7367506D3E3E6EB3
:0112F30040BA
:10135800C374089FFF1392A2EFC313FF1392A3EF66
:05136800C3131392A461
:01136D00225D
:100DBF00EF1206DE0EC02D0E5A300E5A310E5A3279
:100DCF000E5A330E5A340E5A350E5A360E5A370EF5
:100DDF005A380E5A390E61410E66420E6B430E7031
:100DEF00440E75450E7A460E7F480E84490E894A89
:100DFF000E8E4C0E934E0E984F0E9D500EA2510E0E
:100E0F00A7520EAC530EB1550EB6560EBB590E610E
:100E1F00610E66620E6B630E70640E75650E7A66F8
:100E2F000E7F680E84690E896A0E8E6C0E936E0E9D
:100E3F00986F0E9D700EA2710EA7720EAC730EB14D
:100E4F00750EB6760EBB7900000EC7EF9012A69303
:100E5F00FF229012E0805D9012E180589012E280A4
:100E6F00539012E3804E9012E480499012E5804433
:100E7F009012E6803F9012E7803A9012E88035900A
:100E8F0012E980309012EA802B9012EB802690129C
:100E9F00EC80219012ED801C9012EE80179012EFD3
:100EAF0080129012F0800D9012F180089012F28053
:0B0EBF00039012F3E493FF227F002257
:10134100AE05AD07AF06121358AF05120DBF8F8062
:0713510030000343808022FD
:08109E008B308A3189328D3359
:1010A600E4F535C374099533FFE535C39F506BAB43
:1010B60030AA31A93285358275830012060C605A32
:1010C600B42E041533804FE5352401FFE433FE7C4E
:1010D60000EFB5341DECB50619AB30AA31A932853F
:1010E600358275830012060CFFE5332535FDD200E7
:1010F6008017AB30AA31A932853582758300120676
:101106000CFFE5332535FDC2001213417F017E0039
:0A111600121311E4F58005358089FD
:0111200022AC
:08117C008B2A8A2B892C8D2D92
:10118400E4F52EF52FAB2AAA2BA92C852E82758384
:101194000012060CFF6008642E6004052E80E6AB86
:1011A4002AAA2BA92C12136EC3E52E9FE49E50038A
:1011B400852E2FAB2AAA2BA92C852F34AD2D0210F6
:0111C4009E8C
:0212B0008D4D62
:1012B200752DFF752E12752FD38E308F317B017AEB
:1012C20000790A1207607B017A00790AAD4D02119A
:0112D2007C9F
:080ECA008F158E148D138C129C
:100ED200AC16E41202848F0F8E0E8D0D8C0C7F00E7
:100EE2007E007D207C41120CA8AB15AA14A913A880
:100EF200121200FBC004C005C006C007E4FFFEFDDD
:100F0200FCAB15AA14A913A812120201600B400926
:100F1200E4FFFE7D807C3F8007E4FFFE7D807CBF96
:100F2200E4FBFAF9783F1200FBD003D002D001D0E3
:100F32000012000A1202B8752DFF752E12752FD3FA
:100F42008E308F317B017A007900120760E51660DE
:100F5200147B017A00790012136EC3EF9516FFEE2F
:100F62009400FE80047E007F008F347B017A00793A
:060F720000AD1702109E05
:10000300020324E86480F8E933E83360110460F004
:10001300ED33EC337009E8FCE9FDEAFEEBFF220463
:1000230060DED3EB9FEA9EE99DE8C2E78CF0C2F75E
:1000330095F0400CE8CCF8E9CDF9EACEFAEBCFFB2A
:100043001202EF85D0F05804700320D5B3E8047092
:10005300075002B2D502032E92D5EC0460F7E4CC2C
:10006300C0E0C398F8603B94186008400DD0E0FBF3
:10007300020306E4FBFAC9FC8028E830E406E4C97D
:10008300FBE4CAFCE830E305E4C9CACBFCE8540747
:100093006010F8C3E913F9EA13FAEB13FBEC13FC52
:1000A300D8F130F52FC3E49CFCEF9BFFEE9AFEEDF5
:1000B30099FDD0E0FBEF4E4D4C701222DB0302039F
:1000C3002BEC2CFCEF33FFEE33FEED33FDED30E78D
:1000D300EB020306EF2BFFEE3AFEED39FDD0E0FB1A
:1000E30050130BBB000302032EED13FDEE13FEEFC3
:0800F30013FFEC13FC020306ED
:1000FB00EC4D6011E8497017ED33EC3304600DE4FF
:10010B00FCFFFEFD22E933E8330470F802032412EE
:10011B0002EF58046009E4CC2481500628500902F0
:10012B00032E28400302032BC0E0EB4A7044B98036
:10013B0006D0E0FB02031AEF4E701CBD8008EBFFEC
:10014B00EAFEE9FD80EBE98DF0A4FEE5F00201E4A7
:10015B00E9CDF9EAFEEBFFEF89F0A4FCE5F0CE89DF
:10016B00F0A42EFFE435F0CD89F0A42DFEE435F09C
:10017B008067EF4E7005BD80D780C3EF8BF0A4ACCA
:10018B00F0EE8BF0A42CFCE435F0F8EF8AF0A42C05
:10019B00E5F038FCE433CB8DF0A42CFCE5F03BF818
:1001AB00EE8AF0A42CFCE5F038F8E433CF89F0A408
:1001BB002CFCE5F038CF3400CE89F0A42FFFE5F00E
:1001CB003EFEE433C98DF0A42EFEE5F039CD8AF066
:1001DB00A42FFFE5F03EFEE43DFD33D0E0FB5007DE
:1001EB000BBB000F02032EEC2CFCEF33FFEE33FEA8
:0601FB00ED33FD020306D6
:1002010074F8CC6480CCC86480C8F58204604FC3A4
:10021100EB9FF5F0EA9E42F0E99D42F0E89C45F043
:10022100603C501DE5825FFFE582D313CB5BCBF4CD
:100231002B5582FB50280ABA002409B900200880F6
:100241001DE5825BFBE582D313CF5FCFF4C3132F90
:100251005582FF50090EBE00050DBD00010CC3EB18
:100261009FF5F0EA9E42F0E99D42F0E89C45F0607E
:0902710007CC4820E701B3EC22A0
:10027A0075F020800E75F010800575F0087D007EFF
:10028A00007F003392D530D5031206A0EC3340101C
:10029A00EF33FFEE33FEED33FDEC33FCD5F0ED2208
:0E02AA00E5F0247EA2D513CC92E7CDCEFF2244
:1002B800EDD2E7CD33EC3392D524814006E4FFFE3E
:1002C800FDFC22FCE4CFCECDCC24E0501174FF809D
:1002D800EDC3CC13CCCD13CDCE13CECF13CF04703A
:0702E800F030D5DE0206A094
:10070400E541242DF8E6054122782A300702782DA8
:10071400E475F0011206CE0205F32000EB7F2ED221
:10072400008018EF540F2490D43440D4FF30040BCD
:10073400EF24BFB41A0050032461FFE542600215A0
:10074400420545E5457002054430070D782AE475F5
:10075400F0011206CEEF0206390212637403D207C7
:100764008003E4C207F5418B2A8A2B892CE4F542E5
:10077400F544F545E54260077F2012073F80F57593
:1007840043FFC201C200C202C203C205C206C208BC
:1007940012070DFF700D3007057F00120750AF459B
:1007A400AE4422B4255FC2D5C20412070DFF24D083
:1007B400B40A00501A75F00A784230D50508B6FF1D
:1007C4000106C6A426F620D5047002D20380D924DB
:1007D400CFB41A00EF5004C2E5D204020A3DD2019C
:1007E40080C6D20080C0D20280BCD2D580BAD205E5
:1007F40080B47F2012073F2002077401B5420040F5
:10080400F1120704FF12073F020778D208D20680CC
:1008140095120704FB120704FA120704F94A4B70F5
:100824000679347A0B7BFF20022EE542602A7E0093
:100834008E8275830012060C60060EEE654370F01E
:10084400C2D5EBC0E0EAC0E0E9C0E0EE120A9DD0F8
:10085400E0F9D0E0FAD0E0FB1205F3FF60AAEBC0A8
:10086400E0EAC0E0E9C0E012073FD0E02401F9D09B
:10087400E03400FAD0E0FBE5430460DCD543D980E2
:1008840087D20280A2120A8060F7E5437001041245
:100894000364A943600DE543600914F543120B2773
:1008A400EF60F3EA30E702F404C3995077EAF425E1
:1008B400430430E701E404F543800D120A8060C16B
:1008C400EA05432543120364EA7840F630E701E47D
:1008D400254304D5430420050114120A9DE4C0E015
:1008E400120B277840E6601320E70714F612072757
:1008F400802204F6D0E014C0E07F00120727E5430D
:10090400600712071E1543800B30050312071ED023
:10091400E0020778D0E00480C5120A8060A0E543B5
:10092400041203647840EAF6E543200502600104FA
:050934002404120A9DDD
:1009390074FF04C0E0120B27120727E543200502C4
:10094900600312071ED0E0B543E87F4512073178EE
:1009590040E67F2B30E7047F2DF404C0E012073F07
:10096900D0E075F00A84C0F0120728D0E0120728F9
:10097900020778791080027908C206C2088008D275
:10098900D5790A8004790AC2D5E543047002F54392
:10099900E4FAFDFEFF120704FC7B0820011312078D
:1009A90004FD7B1030000A120704FE120704FF7BC6
:1009B90020EC3382D592D55013C3E43000069FFF53
:1009C900E49EFEE42001039DFDE49CFCE4CBF8C217
:1009D90001EC700CCFCECDCCE824F8F870F3801779
:1009E900C3EF33FFEE33FEED33FDEC33FCEB33FBAA
:1009F900994002FB0FD8E9EB300105F8D0E0C44873
:100A0900B201C0E00AEC4D4E4F78207B0070C2EA7B
:100A1900B5430040BCC0E0120A9FD0F0D0E02001ED
:100A290004C4C0E0C4B201C0F0120728D0F0D5F068
:100A3900EB0207781206DE081553097C5807E64CC5
:100A490007E24209804F09884409884907FB43099D
:100A59008E5508BF46091D450889470B545007EABA
:100A69002D07EE2E08112B07F223080F200B3D2A24
:100A790007AA4800000809E543B4FF0375430612B5
:100A89000704FC120704FD120704FE120704FF788D
:100A990039020393790AA2D5200314300509B91044
:100AA900020404B9080104A2D52006025001042059
:100AB90002689202B542005034C0E07F2030031929
:100AC9007F30A20272067205500F120AF6C202C2E4
:100AD90006C205C2087F30800F300503E9C0E01265
:100AE900073F300503D0E0F9D0E0B542CC30051717
:100AF9007F30B9100C12073F7F583004077F788088
:100B090003B9080312073F3002057F2D02073F7F13
:100B1900202008F87F2B2006F322920280CF7F0045
:100B2900B4070050052439F8E6FF22286E756C6C6D
:100B39002900D2011207043001F8C201784230D5E8
:100B49000108F60207AA2D50434958120704240345
:100B5900B405004001E4900B4F93120730743A1228
:0A0B69000730D20375420402097C34
:100CA8008F0B8E0A8D098C08E4FFFE7D807C3FAB9C
:100CB8000BAA0AA909A8081202017009AF0BAE0A0B
:100CC800AD09AC0822AF0BAE0AAD09AC0812033966
:100CD800FBAF0FAE0EAD0DAC0C120339FFBF010810
:100CE800E4FFFE7D807C3F22EF64046022EB640415
:100CF800601DBB0127E4FFFEFDFCAB0FAA0EA90D8A
:100D0800A80C12020160084006E4FFFEFDFC2274F4
:100D1800FFF50FF50EF50DF50C020DB6E4F510F51F
:100D280011FFFEFDFCAB0BAA0AA909A808120201D3
:100D3800504BAF0FAE0EAD0DAC0C1202B88E108F2B
:100D480011AC10AD11EC12027FC8ECC8C9EDC9CACC
:100D5800EECACBEFCBAF0FAE0EAD0DAC0C1200064A
:100D6800E4FBFAF9F812020170A5AF0BAE0AAD095F
:100D7800AC081203538F0B8E0A8D098C08AF0BAE8B
:100D88000AAD09AC08120BA7AB0FAA0EA90DA80C47
:100D98001200FB120FB08F0F8E0E8D0D8C0CE5110B
:100DA80030E00B1203538F0F8E0E8D0D8C0CAF0F8E
:070DB800AE0EAD0DAC0C22E4
:1002EF00E9D2E7C933E833F892D5EDD2E7CD33EC55
:0702FF0033FC5002B2D522CE
:10030600EC30E7100FBF000C0EBE00080DBD000458
:100316000BEB6014A2D5EB13FCED92E7FD2274FF04
:10032600FCFDFEFF22E480F8A2D574FF13FC7D805D
:03033600E480EF71
:10033900ED33EC33601004700FED547F70057402D7
:0A03490092E0227404220422E42250
:10035300ED33EC33600A047003BD8004ECB2E7FCB8
:010363002277
:10036400F920E72824F950037907E4F42402FB1860
:10037400DBFDE624FB5014E9600DE4F618E604F610
:0F038400B40A08E4F6D9F57401F60A22C2D522AC
:10039300ED33EC3392D5FA602AB4FF33EDC2E77B39
:1003A300FF60067A0379B8E4227A0379C120D50481
:1003B3007A0379BC224E614E002B494E46002D49EB
:1003C3004E4600E47A08F608DAFC7B00740722E85C
:1003D300C0E0ECC0E0EDC0E0EEC0E0EFC0E0EA75E5
:1003E300F010A4CAABF075F04DA42BFBE435F0FC80
:1003F300EA2410FAEB34C5FBEC34D9FCEDC2E7FF79
:1004030075F056A4F42411C5F0F434C58FF0A42A72
:10041300E5F03BE43CF620E714120566D0E0FFD09C
:10042300E0FED0E0FDD0E0FC1204998014F4041245
:100433000566D0E0FFD0E0FED0E0FDD0E0FC120086
:10044300FBD0E0F8E6FAEDD2E7CD33EC332482FBC0
:10045300E4C3CF33CFCE33CECD33CD33DBF37B0702
:1004630075F00A846004F6081B0AE5F0F6088FF0BD
:10047300740AA4FFACF08EF0740AA42CFEACF05006
:10048300010C8DF0740AA42CFDE435F0F608DBDED4
:03049300740722C9
:100F780033DA929E35B16011377FE5FE39218489D5
:100F88003AAEC3FF3C1D955B3D6358473E75FDF087
:100F98003F3172183F800000C2D502032E0203249D
:100FA800BD80FA50F302032BED33EC330460F17B80
:100FB8003B7AAA79B8783F1200FBED33EC3392D52F
:100FC800247B5011A2D570DB500BED4480240450D3
:100FD80004A2D580CEEFFBEEFAEDF9ECF81202B8D8
:100FE800EFF582F404FC12028412000AC082900F0A
:100FF8007874091205B5ED33CC33D0F092D525F0CD
:0A100800A2D57001C313CC13FD2222
:100B73003E9248DA3ECCCCCD3F2AAAAB40000000DF
:100B83003F8000003F9837F03FB504F33FD744FC64
:100B93003E3172173EB172173F0515913EDE5BD9A8
:100BA300D2098002C209EDD2E7F8CD33EC330470E9
:100BB3000BBD800592D502032E02032440FBD31400
:100BC30060F2F5F07C3FEE7A00C39496C8948B40B4
:100BD300230AC89469C8941A401A0AC89468C89426
:100BE3001F40110AC8945AC89425400805F07A009A
:100BF300CDC2E7CDC0F08C468D478E488F49EA239E
:100C030023C0E02483F582E4340BF5831206BE127D
:100C1300000AECC0E0EDC0E0EEC0E0EFC0E0120679
:100C2300AEA846A947AA48AB49120006D0E0FBD0BC
:100C3300E0FAD0E0F9D0E0B2E7F81204998C468DDF
:100C4300478E488F49900B7374031205A6A846A9D3
:100C530047AA48AB491200FBD0E0600F248FF5820E
:100C6300E4340BF5831206BE12000A8C468D478EC0
:100C7300488F49D0E0C3947FFDE49400FC12027FC7
:100C83007B187A727931783F1200FBA846A947AAEC
:100C930048AB4912000A30090B7BD97A5B79DE78BD
:050CA3003E1200FB22DF
:1004960002032EEC5D046005E85904700302032490
:1004A6001202EF580460F6EC4860F2EC7004FDFEB0
:1004B600FF22C860DB2481C85009C3986002500639
:1004C60002032B9850CAF582E9294B4A7005AB8284
:1004D60002031A75F0007C1A7880C3EF9BEE9AED42
:1004E60099400DC3EF9BFFEE9AFEED99FDE842F0B1
:1004F600DC23ACF0D0E0FFD0E0FED0E0FDAB822004
:10050600E7101BEB60BAEC2CFCEF33FFEE33FEED8D
:1005160033FD020306E803F830E705C0F075F00086
:10052600EF2FFFEE33FEED33FD40B830E7C280AA71
:100536003F8000004120000042C80000447A0000CD
:10054600461C400047C35000497424004B1896804F
:100556004CBEBC205A0E1BCA6753C21C749DC5AE46
:10056600FB60065407601C2323120594EB54386085
:100576000912058012058F1200FBECF8EDF9EEFA70
:10058600EFCB22EB12058F80F1543803241C900523
:1005960036FE93FC0EEE93FD0EEE930ECE93FF22E7
:1005A600C0E0EFFBEEFAEDF9ECF81200FBD0E0F557
:1005B600F0EFFBEEFAEDF9ECF81206AEA3A3A3A357
:1005C600E8C0E0E9C0E0EAC0E0EBC0E0C0F012003D
:1005D600FB1206BEA3A3A3A312000AD0F0D0E0FB31
:0D05E600D0E0FAD0E0F9D0E0F8D5F0D42252
:03000000021012D9
:0C101200787FE4F6D8FD75814D0210597E
:1005F300BB010689828A83E0225002E722BBFE0206
:09060300E32289828A83E4932238
:10060C00BB010CE58229F582E5833AF583E02250A3
:10061C0006E92582F8E622BBFE06E92582F8E222ED
:0D062C00E58229F582E5833AF583E4932207
:10063900BB010689828A83F0225002F722BBFE01A0
:02064900F3229A
:10064B00BC000BBE0029EF8DF084FFADF022E4CC93
:10065B00F875F008EF2FFFEE33FEEC33FCEE9DEC5C
:10066B00984005FCEE9DFE0FD5F0E9E4CEFD22EDA2
:10067B00F8F5F0EE8420D21CFEADF075F008EF2FEC
:10068B00FFED33FD4007985006D5F0F222C398FDDD
:05069B000FD5F0EA227A
:0E06A000C3E49FFFE49EFEE49DFDE49CFC226B
:1006AE00E493FC740193FD740293FE740393FF2292
:1006BE00E493F8740193F9740293FA740393FB2292
:1006CE00FAE6FB0808E6F925F0F618E6CA3AF6222D
:1006DE00D083D082F8E4937012740193700DA3A3AB
:1006EE0093F8740193F5828883E4737402936860BF
:0606FE00EFA3A3A380DFBF
:10126300EFB40A07740D12126E740A309811A8991C
:10127300B8130CC2983098FDA899C298B811F630EB
:0712830099FDC299F59922C3
:10136E00E4FFFE1205F3600C0FEF70010E09E97039
:05137E00F20A80EF22DD
:10101E00021383E493A3F8E493A34003F68001F252
:10102E0008DFF48029E493A3F85407240CC8C333D3
:10103E00C4540F4420C8834004F456800146F6DFA2
:10104E00E4800B01020408102040809013F9E47E26
:10105E00019360BCA3FF543F30E509541FFEE49397
:10106E00A360010ECF54C025E060A840B8E493A35E
:10107E00FAE493A3F8E493A3C8C582C8CAC583CA89
:10108E00F0A3C8C582C8CAC583CADFE9DEE780BE41
:0114000000EB
:00000001FF
