:070124007F011200E880FEDC
:03001300020016D2
:10001600C0E0C0F0C083C082C0D075D000C000C0B0
:1000260001C002C003C004C005C006C00720B30F4C
:100036007F0A7E001200B820B3057F011200D0D0DF
:1000460007D006D005D004D003D002D001D000D00E
:0A005600D0D082D083D0F0D0E03289
:0B011900EF1FAC0670011E4C70F622B8
:1000B800AB07AA06EB1BAE0270011A4E60097F64FB
:0800C8007E0012011980ED22F7
:1000E800EF14600904700AD288D2A88004D28AD298
:0400F800AAD2AF22B7
:1000FC00EF14FFF87401088002C333D8FCF452A04B
:01010C0022D0
:10000300EF14FFF87401088002C333D8FC42A02226
:1000D000EF14FEF8E5A0088002C313D8FC540160B9
:0700E000030200FC12000303
:0100E70022F6
:040060008E088F096E
:10006400E4F50AE50A04FF1200FCAF09AE08120128
:1000740019050AE50AC3940840E9E4F50AE50A0407
:0D008400FF120003050AE50AC3940840F0CE
:01009100224C
:040092008E0B8F0C36
:10009600E4F50DE50D04FF1200FCAF0CAE0B1201EA
:1000A60019E50D04FF120003050DE50DC394084084
:0100B600E267
:0100B7002226
:0300000002010DED
:0C010D00787FE4F6D8FD75810D02012416
:00000001FF
