:101765007D337C07E4FF1210E5D28C1215B380FBA4
:03000B000214DA02
:1014DA00C0E0C0F0C083C082C0D075D000C000C0D8
:1014EA0001C002C003C004C005C006C007758ACD8A
:1014FA00758CF8AF5D7E00D20012161A7D011212A9
:10150A00B9D007D006D005D004D003D002D001D07C
:0C151A0000D0D0D082D083D0F0D0E032DE
:0C174000015A00015D00015B0001560031
:1015E900E590300A03C48000540FFEEE24F9601818
:1015F90024FC601124FE600A24FE600F04700F7F32
:1016090004227F03227F02227F01227FFF227F00A3
:0116190022AE
:10175300755A01E55C1425E025E0FFE559142FF5E2
:021763005D2205
:1015B30075900FC20A1215E98F59E559B4FF04E477
:1015C300F55A22E559601EE55A701A7F0AFE121673
:1015D300E67590F0D20A1215E98F5CE55C6006F4BB
:0615E30060031217532201
:10133A00E4F573AF73A8077408088002C313D8FCD6
:10134A00F4F590D20A1215E98F5CE55C7010E5732A
:10135A002401FFE433FEEF65597001EE6040E55C5D
:10136A00B4FF17E5732401FFE433FE7C00EFB5599F
:10137A0009ECB50605E4F55A8024E55C6020E55AD7
:10138A00701C7F0AFE1216E6D20A1215E98F5CE576
:10139A005C600BF46008E57304F559121753057382
:0713AA00E573C39404408CBD
:0113B1002219
:10148700E55B1460261460332402704675900FC222
:101497000A1215E98F59E559B4FF04E4F55A22E514
:1014A70059602FE55A702B755B01220556E556C327
:1014B700940A401EE4F556755B02227590F0D20A35
:1014C7001215E98F5CE55C6006F46003121753E4BC
:0214D700F55BC3
:0114D90022F0
:1013B200E5586021D3940A4019E4F558D20A12156F
:1013C200E98F5CE55C605BF46058E55704F559020F
:1013D2001753055822AF57A8077408088002C31391
:1013E200D8FCF4F590D20A1215E98F5CE55CB4FFE3
:1013F20017E5572401FFE433FE7C00EFB55909ECF1
:10140200B50605E4F55A800EE55C600AF46007E56E
:101412005A70030558220557E557C394044003E464
:02142200F5577C
:0114240022A5
:0B178000256400257500252E2A660058
:0B177500EF1FAC0670011E4C70F62246
:1016E600AB07AA06EB1BAE0270011A4E60097F64B7
:0816F6007E0012177580ED2241
:04161A008E228F236A
:10161E0030000B7527FF75281775298080097527EF
:10162E00FF75281775298385222A85232B7B007A3F
:0C163E000079081208CD7B007A007908C2
:01164A00227D
:08164B008F6D8E6C8D6B8C6AB3
:101653007527FF752817752986752A00856E2B8FC8
:101663002F8E2E8D2D8C2C7B007A0079101208CDB5
:061673007B007A007910F3
:01167900224E
:1016C400256400003F065B4F666D7D077F6F777C66
:1016D400585E797176300E38543F7367506D3E3ED4
:0216E4006E4056
:06174C0001420001430010
:10171500C374089FFF1392A2EFC313FF1392A3EFA5
:05172500C3131392A4A0
:01172A00229C
:100F2C00EF120694102D2D0FC7300FC7310FC7329B
:100F3C000FC7330FC7340FC7350FC7360FC7370F5F
:100F4C00C7380FC7390FCE410FD3420FD8430FDD2F
:100F5C00440FE2450FE7460FEC480FF1490FF64AF4
:100F6C000FFB4C10004E10054F100A50100F511073
:100F7C001452101953101E551023561028590FCE09
:100F8C00610FD3620FD8630FDD640FE2650FE76664
:100F9C000FEC680FF1690FF66A0FFB6C10006E1006
:100FAC00056F100A70100F71101472101973101E47
:100FBC007510237610287900001034EF9016989352
:100FCC00FF229016D2805D9016D380589016D48054
:100FDC00539016D5804E9016D680499016D78044E3
:100FEC009016D8803F9016D9803A9016DA803590BA
:100FFC0016DB80309016DC802B9016DD8026901648
:10100C00DE80219016DF801C9016E080179016E190
:10101C0080129016E2800D9016E380089016E48002
:0B102C00039016E5E493FF227F0022F2
:1016FE00AE05AD07AF06121715AF05120F2C8F8072
:07170E00300003438080223C
:081425008B1A8A1B891C8D1D26
:10142D00E4F51FC37409951DFFE51FC39F504AAB1B
:10143D001AAA1BA91C851F82758300120617FF604F
:10144D0038B42E04151D802DE51D251FFDE51F2427
:10145D0001FBE433FAE51E758300B50308E583B59A
:10146D000203D38001C392001216FE7F017E00128B
:09147D0016E6E4F580051F80AAC3
:011486002243
:081526008B5E8A5F89608D6114
:10152E00E4F562F563AB5EAA5FA96085628275839E
:10153E0000120617FF6008642E6004056280E6AB99
:10154E005EAA5FA96012172BC3E5629FE49E50034B
:10155E00856263AB5EAA5FA96085631EAD610214EE
:01156E002557
:0216A1008D7446
:1016A3007527FF7528167529C48E2A8F2B7B017A1F
:1016B30000790A1208CD7B017A00790AAD7402150C
:0116C3002600
:081037008F678E668D658C64E5
:10103F00AC68E412028F8F538E528D518C507F000B
:10104F007E007D207C41120E15AB67AA66A965A8AC
:10105F0064120106C004C005C006C007E4FFFEFD10
:10106F00FCAB67AA66A965A86412020C600B400965
:10107F00E4FFFE7D807C3F8007E4FFFE7D807CBF28
:10108F00E4FBFAF9783F120106D003D002D001D069
:10109F00001200151202C37527FF7528167529C493
:1010AF008E2A8F2B7B017A0079001208CDE56860BC
:1010BF00147B017A00790012172BC3EF9568FFEEAE
:1010CF009400FE80047E007F008F1E7B017A0079E2
:0610DF0000AD69021425BA
:0612B9008B228A23892428
:1012BF00E4F580AB22AA23A924854282F583120686
:1012CF0017FFB42E0C74432542F8760105420543EF
:1012DF0022E5422DC39543F52574442542F8E624B3
:1012EF00FF9200AD251216FEAB22AA23A924854238
:1012FF008275830012061770047F0180027F00E55C
:10130F0025B408047E0180027E00EE4F601AE4F5DA
:10131F0042E5436004E4F5432278447C007D007B82
:0A132F00FF7A1679C702078605420F
:011339002291
:1010E5008C408D41EF1460560460030211924389D0
:1010F50001AE40AF41AB07AA06E4C39BFFE49AFEED
:1011050074019400FDE49400FCE4FB7A01F9F81203
:10111500156FAF038F8AAE40AF41AB07AA06E4C394
:101125009BFFE49AFE74019400FDE49400FCE4FB4B
:101135007A01F9F812156F8F8CD2AFD2A9224389A3
:1011450010AE40AF41AB07AA06E4C39BFFE49AFE8D
:1011550074019400FDE49400FCE4FB7A01F9F812B3
:10116500156FAF038F8BAE40AF41AB07AA06E4C343
:101175009BFFE49AFE74019400FDE49400FCE4FBFB
:0E1185007A01F9F812156F8F8DD2AFD2AB221E
:10000E0002032FE86480F8E933E83360110460F0EE
:10001E00ED33EC337009E8FCE9FDEAFEEBFF220458
:10002E0060DED3EB9FEA9EE99DE8C2E78CF0C2F753
:10003E0095F0400CE8CCF8E9CDF9EACEFAEBCFFB1F
:10004E001202FA85D0F05804700320D5B3E804707C
:10005E00075002B2D502033992D5EC0460F7E4CC16
:10006E00C0E0C398F8603B94186008400DD0E0FBE8
:10007E00020311E4FBFAC9FC8028E830E406E4C967
:10008E00FBE4CAFCE830E305E4C9CACBFCE854073C
:10009E006010F8C3E913F9EA13FAEB13FBEC13FC47
:1000AE00D8F130F52FC3E49CFCEF9BFFEE9AFEEDEA
:1000BE0099FDD0E0FBEF4E4D4C701222DB03020394
:1000CE0036EC2CFCEF33FFEE33FEED33FDED30E777
:1000DE00EB020311EF2BFFEE3AFEED39FDD0E0FB04
:1000EE0050130BBB0003020339ED13FDEE13FEEFAD
:0800FE0013FFEC13FC020311D7
:10010600EC4D6011E8497017ED33EC3304600DE4F3
:10011600FCFFFEFD22E933E8330470F802032F12D8
:1001260002FA58046009E4CC2481500628500902DA
:100136000339284003020336C0E0EB4A7044B98015
:1001460006D0E0FB020325EF4E701CBD8008EBFFD6
:10015600EAFEE9FD80EBE98DF0A4FEE5F00201EF91
:10016600E9CDF9EAFEEBFFEF89F0A4FCE5F0CE89D4
:10017600F0A42EFFE435F0CD89F0A42DFEE435F091
:100186008067EF4E7005BD80D780C3EF8BF0A4ACBF
:10019600F0EE8BF0A42CFCE435F0F8EF8AF0A42CFA
:1001A600E5F038FCE433CB8DF0A42CFCE5F03BF80D
:1001B600EE8AF0A42CFCE5F038F8E433CF89F0A4FD
:1001C6002CFCE5F038CF3400CE89F0A42FFFE5F003
:1001D6003EFEE433C98DF0A42EFEE5F039CD8AF05B
:1001E600A42FFFE5F03EFEE43DFD33D0E0FB5007D3
:1001F6000BBB000F020339EC2CFCEF33FFEE33FE92
:06020600ED33FD020311BF
:10020C0074F8CC6480CCC86480C8F58204604FC399
:10021C00EB9FF5F0EA9E42F0E99D42F0E89C45F038
:10022C00603C501DE5825FFFE582D313CB5BCBF4C2
:10023C002B5582FB50280ABA002409B900200880EB
:10024C001DE5825BFBE582D313CF5FCFF4C3132F85
:10025C005582FF50090EBE00050DBD00010CC3EB0D
:10026C009FF5F0EA9E42F0E99D42F0E89C45F06073
:09027C0007CC4820E701B3EC2295
:1002850075F020800E75F010800575F0087D007EF4
:10029500007F003392D530D503120656EC3340105B
:1002A500EF33FFEE33FEED33FDEC33FCD5F0ED22FD
:0E02B500E5F0247EA2D513CC92E7CDCEFF2239
:1002C300EDD2E7CD33EC3392D524814006E4FFFE33
:1002D300FDFC22FCE4CFCECDCC24E0501174FF8092
:1002E300EDC3CC13CCCD13CDCE13CECF13CF04702F
:0702F300F030D5DE020656D3
:10087100E53B2427F8E6053B227824300802782757
:10088100E475F0011206840205FE2001EB7F2ED2F1
:10089100018018EF540F2490D43440D4FF30050B5D
:1008A100EF24BFB41A0050032461FFE53C60021538
:1008B1003C053FE53F7002053E30080D7824E475A4
:1008C100F001120684EF02064402167A7403D2087C
:1008D1008003E4C208F53B8B248A258926E4F53C94
:1008E100F53EF53FE53C60077F201208AC80F575C9
:1008F1003DFFC202C201C203C204C206C207C2094D
:1009010012087AFF700D3008057F001208BDAF3F55
:10091100AE3E22B4255FC2D5C20512087AFF24D0AB
:10092100B40A00501A75F00A783C30D50508B6FFB4
:100931000106C6A426F620D5047002D20480D9246B
:10094100CFB41A00EF5004C2E5D205020BAAD202BD
:1009510080C6D20180C0D20380BCD2D580BAD20673
:1009610080B47F201208AC2003077401B53C00401D
:10097100F1120871FF1208AC0208E5D209D2078012
:1009810095120871FB120871FA120871F94A4B703D
:100991000679A17A0C7BFF20032EE53C602A7E00BC
:1009A1008E8275830012061760060EEE653D70F0AB
:1009B100C2D5EBC0E0EAC0E0E9C0E0EE120C0AD01B
:1009C100E0F9D0E0FAD0E0FB1205FEFF60AAEBC02F
:1009D100E0EAC0E0E9C0E01208ACD0E02401F9D0BF
:1009E100E03400FAD0E0FBE53D0460DCD53DD98080
:1009F10087D20380A2120BED60F7E53D700104126E
:100A0100036FA93D600DE53D600914F53D120C949D
:100A1100EF60F3EA30E702F404C3995077EAF42572
:100A21003D0430E701E404F53D800D120BED60C19A
:100A3100EA053D253D12036FEA783AF630E701E415
:100A4100253D04D53D0420060114120C0AE4C0E042
:100A5100120C94783AE6601320E70714F612089412
:100A6100802204F6D0E014C0E07F00120894E53D36
:100A7100600712088B153D800B30060312088BD0DE
:100A8100E00208E5D0E00480C5120BED60A0E53D71
:100A91000412036F783AEAF6E53D2006026001048C
:050AA1002404120C0A00
:100AA60074FF04C0E0120C94120894E53D2006027F
:100AB600600312088BD0E0B53DE87F4512089E78AA
:100AC6003AE67F2B30E7047F2DF404C0E01208AC31
:100AD600D0E075F00A84C0F0120895D0E0120895AF
:100AE6000208E5791080027908C207C2098008D297
:100AF600D5790A8004790AC2D5E53D047002F53D30
:100B0600E4FAFDFEFF120871FC7B082002131208AE
:100B160071FD7B1030010A120871FE120871FF7B0D
:100B260020EC3382D592D55013C3E43001069FFFE3
:100B3600E49EFEE42002039DFDE49CFCE4CBF8C2A7
:100B460002EC700CCFCECDCCE824F8F870F3801709
:100B5600C3EF33FFEE33FEED33FDEC33FCEB33FB3B
:100B6600994002FB0FD8E9EB300205F8D0E0C44803
:100B7600B202C0E00AEC4D4E4F78207B0070C2EA0C
:100B8600B53D0040BCC0E0120C0CD0F0D0E0200215
:100B960004C4C0E0C4B202C0F0120895D0F0D5F08B
:100BA600EB0208E51206940982530AE95809534CE8
:100BB600094F420AED4F0AF5440AF5490968430A06
:100BC600FB550A2C460A8A4509F6470CC1500957B7
:100BD6002D095B2E097E2B095F23097C200CAA2A8E
:100BE60009174800000976E53DB4FF03753D061276
:100BF6000871FC120871FD120871FE120871FF7867
:100C06003302039E790AA2D5200414300609B910CE
:100C1600020404B9080104A2D520070250010420E9
:100C260003689203B53C005034C0E07F20300419BD
:100C36007F30A20372077206500F120C63C203C202
:100C460007C206C2097F30800F300603E9C0E012F2
:100C560008AC300603D0E0F9D0E0B53CCC3006173E
:100C66007F30B9100C1208AC7F583005077F7880AA
:100C760003B908031208AC3003057F2D0208AC7FC8
:100C8600202009F87F2B2007F322920380CF7F00D4
:100C9600B4070050052433F8E6FF22286E756C6C05
:100CA6002900D2021208713002F8C202783C30D50F
:100CB6000108F60209172D504349581208712403FA
:100CC600B405004001E4900CBC9312089D743A12DE
:0A0CD600089DD204753C04020AE9EF
:100E15008F4F8E4E8D4D8C4CE4FFFE7D807C3FAB1D
:100E25004FAA4EA94DA84C12020C7009AF4FAE4EF9
:100E3500AD4DAC4C22AF4FAE4EAD4DAC4C12034454
:100E4500FBAF53AE52AD51AC50120344FFBF010886
:100E5500E4FFFE7D807C3F22EF64046022EB6404A6
:100E6500601DBB0127E4FFFEFDFCAB53AA52A9514F
:100E7500A85012020C60084006E4FFFEFDFC227437
:100E8500FFF553F552F551F550020F23E4F554F5EE
:100E950055FFFEFDFCAB4FAA4EA94DA84C12020C06
:100EA500504BAF53AE52AD51AC501202C38E548F5E
:100EB50055AC54AD55EC12028AC8ECC8C9EDC9CA87
:100EC500EECACBEFCBAF53AE52AD51AC50120011C1
:100ED500E4FBFAF9F812020C70A5AF4FAE4EAD4D1A
:100EE500AC4C12035E8F4F8E4E8D4D8C4CAF4FAE7A
:100EF5004EAD4DAC4C120D14AB53AA52A951A8508E
:100F05001201061211CB8F538E528D518C50E5551F
:100F150030E00B12035E8F538E528D518C50AF53C0
:070F2500AE52AD51AC5022A9
:1002FA00E9D2E7C933E833F892D5EDD2E7CD33EC4A
:07030A0033FC5002B2D522C2
:10031100EC30E7100FBF000C0EBE00080DBD00044D
:100321000BEB6014A2D5EB13FCED92E7FD2274FFF9
:10033100FCFDFEFF22E480F8A2D574FF13FC7D8052
:03034100E480EF66
:10034400ED33EC33601004700FED547F70057402CC
:0A03540092E0227404220422E42245
:10035E00ED33EC33600A047003BD8004ECB2E7FCAD
:01036E00226C
:10036F00F920E72824F950037907E4F42402FB1855
:10037F00DBFDE624FB5014E9600DE4F618E604F605
:0F038F00B40A08E4F6D9F57401F60A22C2D522A1
:10039E00ED33EC3392D5FA602AB4FF33EDC2E77B2E
:1003AE00FF60067A0379C3E4227A0379CC20D50460
:1003BE007A0379C7224E614E002B494E46002D49D5
:1003CE004E4600E47A08F608DAFC7B00740722E851
:1003DE00C0E0ECC0E0EDC0E0EEC0E0EFC0E0EA75DA
:1003EE00F010A4CAABF075F04DA42BFBE435F0FC75
:1003FE00EA2410FAEB34C5FBEC34D9FCEDC2E7FF6E
:10040E0075F056A4F42411C5F0F434C58FF0A42A67
:10041E00E5F03BE43CF620E714120571D0E0FFD086
:10042E00E0FED0E0FDD0E0FC1204A48014F404122F
:10043E000571D0E0FFD0E0FED0E0FDD0E0FC12016F
:10044E0006D0E0F8E6FAEDD2E7CD33EC332482FBAA
:10045E00E4C3CF33CFCE33CECD33CD33DBF37B07F7
:10046E0075F00A846004F6081B0AE5F0F6088FF0B2
:10047E00740AA4FFACF08EF0740AA42CFEACF050FB
:10048E00010C8DF0740AA42CFDE435F0F608DBDEC9
:03049E00740722BE
:1011930033DA929E35B16011377FE5FE39218489B8
:1011A3003AAEC3FF3C1D955B3D6358473E75FDF06A
:1011B3003F3172183F800000C2D502033902032F6A
:1011C300BD80FA50F3020336ED33EC330460F17B58
:1011D3003B7AAA79B8783F120106ED33EC3392D506
:1011E300247B5011A2D570DB500BED4480240450B6
:1011F30004A2D580CEEFFBEEFAEDF9ECF81202C3B0
:10120300EFF582F404FC12028F120015C0829011D4
:101213009374091205C0ED33CC33D0F092D525F089
:0A122300A2D57001C313CC13FD2205
:100CE0003E9248DA3ECCCCCD3F2AAAAB4000000071
:100CF0003F8000003F9837F03FB504F33FD744FCF6
:100D00003E3172173EB172173F0515913EDE5BD939
:100D1000D20B8002C20BEDD2E7F8CD33EC33047076
:100D20000BBD800592D502033902032F40FBD3147B
:100D300060F2F5F07C3FEE7A00C39496C8948B4045
:100D4000230AC89469C8941A401A0AC89468C894B7
:100D50001F40110AC8945AC89425400805F07A002B
:100D6000CDC2E7CDC0F08C6F8D708E718F72EA238B
:100D700023C0E024F0F582E4340CF58312067412EB
:100D80000015ECC0E0EDC0E0EEC0E0EFC0E0120600
:100D900064A86FA970AA71AB72120011D0E0FBD0E9
:100DA000E0FAD0E0F9D0E0B2E7F81204A48C6F8D3D
:100DB000708E718F72900CE074031205B1A86FA948
:100DC00070AA71AB72120106D0E0600F24FCF582AC
:100DD000E4340CF5831206741200158C6F8D708E3E
:100DE000718F72D0E0C3947FFDE49400FC12028AFC
:100DF0007B187A727931783F120106A86FA970AA20
:100E000071AB72120015300B0B7BD97A5B79DE78EF
:050E10003E1201062264
:1004A100020339EC5D046005E85904700302032F6F
:1004B1001202FA580460F6EC4860F2EC7004FDFE9A
:1004C100FF22C860DB2481C85009C398600250062E
:1004D1000203369850CAF582E9294B4A7005AB826E
:1004E10002032575F0007C1A7880C3EF9BEE9AED2C
:1004F10099400DC3EF9BFFEE9AFEED99FDE842F0A6
:10050100DC23ACF0D0E0FFD0E0FED0E0FDAB8220F8
:10051100E7101BEB60BAEC2CFCEF33FFEE33FEED82
:1005210033FD020311E803F830E705C0F075F00070
:10053100EF2FFFEE33FEED33FD40B830E7C280AA66
:100541003F8000004120000042C80000447A0000C2
:10055100461C400047C35000497424004B18968044
:100561004CBEBC205A0E1BCA6753C21C749DC5AE3B
:10057100FB60065407601C232312059FEB5438606F
:100581000912058B12059A120106ECF8EDF9EEFA43
:10059100EFCB22EB12059A80F1543803241C90050D
:1005A10041FE93FC0EEE93FD0EEE930ECE93FF22D1
:1005B100C0E0EFFBEEFAEDF9ECF8120106D0E0F540
:1005C100F0EFFBEEFAEDF9ECF8120664A3A3A3A396
:1005D100E8C0E0E9C0E0EAC0E0EBC0E0C0F0120131
:1005E10006120674A3A3A3A3120015D0F0D0E0FB5A
:0D05F100D0E0FAD0E0F9D0E0F8D5F0D42247
:0300000002122DBC
:0C122D00787FE4F6D8FD7581740212741D
:1005FE00BB010689828A83E0225002E722BBFE02FB
:09060E00E32289828A83E493222D
:10061700BB010CE58229F582E5833AF583E0225098
:1006270006E92582F8E622BBFE06E92582F8E222E2
:0D063700E58229F582E5833AF583E49322FC
:10064400BB010689828A83F0225002F722BBFE0195
:02065400F3228F
:10156F00C2D5E830E70FB2D5E4C39BFBE49AFAE4A7
:10157F0099F9E498F8EC30E717B2D51215A51207D0
:10158F00DFE4C39BFBE49AFAE499F9E498F880034B
:10159F001207DF30D50DE4C39FFFE49EFEE49DFDEF
:0415AF00E49CFC229A
:0E065600C3E49FFFE49EFEE49DFDE49CFC22B5
:10066400E493FC740193FD740293FE740393FF22DC
:10067400E493F8740193F9740293FA740393FB22DC
:10068400FAE6FB0808E6F925F0F618E6CA3AF62277
:10069400D083D082F8E4937012740193700DA3A3F5
:1006A40093F8740193F5828883E473740293686009
:0606B400EFA3A3A380DF09
:10167A00EFB40A07740D121685740A309811A899E6
:10168A00B8130CC2983098FDA899C298B811F630D0
:07169A0099FDC299F59922A8
:1006BA00E709F60870FA8046E709F20870FA803E00
:1006CA0088828C83E709F0A370FA807EE309F60832
:1006DA0070FA8076E309F20870FA806E88828C8359
:1006EA00E309F0A370FA806289828A83E0A3F6089C
:1006FA0070FA805689828A83E0A3F20870FA804AE7
:10070A0080D280FA80C680D4806580F280318010E1
:10071A0080A680EA809A80A880DA80E280CA803146
:10072A0089828A83ECFAE493A3C8C582C8CCC583BC
:10073A00CCF0A3C8C582C8CCC583CC70E9800D892A
:10074A00828A83E493A3F60870F9ECFAA9F0EDFB28
:10075A002289828A83ECFAE0A3C8C582C8CCC58301
:10076A00CCF0A3C8C582C8CCC583CC70EA80DD8929
:10077A00828A83E493A3F20870F980CE88F0ED248C
:10078A0002B4040050C4F582EB2402B4040050BA47
:09079A00232345822390070A7312
:10172B00E4FFFE1205FE600C0FEF70010E09E9706D
:05173B00F20A80EF221C
:10123900021765E493A3F8E493A34003F68001F24F
:1012490008DFF48029E493A3F85407240CC8C333B6
:10125900C4540F4420C8834004F456800146F6DF85
:10126900E4800B0102040810204080901740E47EBE
:10127900019360BCA3FF543F30E509541FFEE4937A
:10128900A360010ECF54C025E060A840B8E493A341
:10129900FAE493A3F8E493A3C8C582C8CAC583CA6C
:1012A900F0A3C8C582C8CAC583CADFE9DEE780BE24
:011752000096
:1007A30075F008758200EF2FFFEE33FECD33CDCC0D
:1007B30033CCC58233C5829BED9AEC99E582984090
:1007C3000CF582EE9BFEED9AFDEC99FC0FD5F0D66D
:1007D300E4CEFBE4CDFAE4CCF9A88222B800C1B997
:1007E3000059BA002DEC8BF084CFCECDFCE5F0CBD5
:1007F300F97818EF2FFFEE33FEED33FDEC33FCEB0E
:1008030033FB10D703994004EB99FB0FD8E5E4F9C8
:10081300FA227818EF2FFFEE33FEED33FDEC33FCB5
:10082300C933C910D7059BE99A4007EC9BFCE99AA9
:10083300F90FD8E0E4C9FAE4CCFB2275F010EF2FEE
:10084300FFEE33FEED33FDCC33CCC833C810D707EE
:100853009BEC9AE899400AED9BFDEC9AFCE899F829
:0E0863000FD5F0DAE4CDFBE4CCFAE4C8F922BC
:00000001FF
