:04154400021E039AE6
:1014BD00E4FF1214FCAD1FAC1EE4FF120F4ED28CD4
:0514CD0012147980FB00
:03000300020006F2
:040006004314043269
:03000B000211D00F
:1011D000C0E0C0F0C083C082C0D075D000C000C0E5
:1011E00001C002C003C004C005C006C007AE1EAFE8
:1011F0001FAB07AA06E4C39BFFE49AFE74019400A8
:10120000FDE49400FCE4FB7A01F9F8121323AF0328
:101210008F8AAE1EAF1FAB07AA06E4C39BFFE49AFA
:10122000FE74019400FDE49400FCE4FB7A01F9F8FB
:101230001213238F8CE514600312142AD007D006F2
:10124000D005D004D003D002D001D000D0D0D082BD
:07125000D083D0F0D0E032A2
:1014FC00EF14600904700AD288D2A88004D28AD270
:04150C00AAD2AF228E
:0B155200EF1FAC0670011E4C70F6226B
:10144900AB07AA06EB1BAE0270011A4E60097F6456
:081459007E0012155280ED2205
:0915480002150000C1890112FF27
:1014D2000516E516700205157D01FFAE151213E61D
:0514E2007F010215234B
:10151000E4F515F516C2007D017F301214907F01AD
:0315200002146151
:0A155D00E51724FC7003121510229C
:10147900E513600A24FC700E30090B0214D2121510
:061489005DE4F517D20935
:01148F00223A
:10142A00E51225E0F512A2B2E4334212E512600891
:0E143A0004700BE4F51480008513178514135D
:011448002281
:10152300EF14FFF87401088002C333D8FCF452A00F
:011533002295
:10153400EF14FFF87401088002C333D8FC42A022E0
:10146100EF14FEF8E5A0088002C313D8FC54016014
:0714710003021523121534DC
:011478002251
:041367008E438F44DE
:10136B00E4F545E54504FF121523AF44AE431215D2
:10137B00520545E545C3940840E9E4F545E54504C8
:0D138B00FF1215340545E545C3940840F0F8
:011398002232
:0413C0008E468F477F
:1013C400E4F548E54804FF121523AF47AE4612156D
:1013D40052E54804FF1215340548E548C394084013
:0113E400E226
:0113E50022E5
:100F4E008C228D23EF146056046003020FFB43893D
:100F5E0001AE22AF23AB07AA06E4C39BFFE49AFEC1
:100F6E0074019400FDE49400FCE4FB7A01F9F8129C
:100F7E001323AF038F8AAE22AF23AB07AA06E4C3B7
:100F8E009BFFE49AFE74019400FDE49400FCE4FBE4
:100F9E007A01F9F81213238F8CD2AFD2A92243898A
:100FAE0010AE22AF23AB07AA06E4C39BFFE49AFE62
:100FBE0074019400FDE49400FCE4FB7A01F9F8124C
:100FCE001323AF038F8BAE22AF23AB07AA06E4C366
:100FDE009BFFE49AFE74019400FDE49400FCE4FB94
:0E0FEE007A01F9F81213238F8DD2AFD2AB2205
:101409002564003F065B4F666D7D077F6F777C58CB
:101419005E797176300E38543F7367506D3E3E6E7B
:011429004082
:1014A700C374089FFF1392A2EFC313FF1392A3EF16
:0514B700C3131392A411
:0114BC00220D
:100E4300EF1206940F442D0EDE300EDE310EDE322D
:100E53000EDE330EDE340EDE350EDE360EDE370EDC
:100E6300DE380EDE390EE5410EEA420EEF430EF494
:100E7300440EF9450EFE460F03480F08490F0D4A6D
:100E83000F124C0F174E0F1C4F0F21500F26510FEF
:100E93002B520F30530F35550F3A560F3F590EE56E
:100EA300610EEA620EEF630EF4640EF9650EFE66E0
:100EB3000F03680F08690F0D6A0F126C0F176E0F7F
:100EC3001C6F0F21700F26710F2B720F30730F35AC
:100ED300750F3A760F3F7900000F4BEF9013DC93B9
:100EE300FF22901416805D90141780589014188078
:100EF30053901419804E90141A804990141B804407
:100F030090141C803F90141D803A90141E803590DD
:100F1300141F8030901420802B901421802690146D
:100F2300228021901423801C901424801790142570
:100F33008012901426800D90142780089014288026
:0B0F430003901429E493FF227F00229A
:10149000AE05AD07AF061214A7AF05120E438F803D
:0714A00030000343808022AD
:081257008B298A2A892B8D2CBA
:10125F00E4F52EC37409952CFFE52EC39F506BAB9D
:10126F0029AA2AA92B852E82758300120617605A88
:10127F00B42E04152C804FE52E2401FFE433FE7CA1
:10128F0000EFB52D1DECB50619AB29AA2AA92B85A0
:10129F002E82758300120617FFE52C252EFDD20036
:1012AF008017AB29AA2AA92B852E827583001206D7
:1012BF0017FFE52C252EFDC2001214907F017E0032
:0A12CF00121449E4F580052E808911
:0112D90022F2
:0812DA008B238A2489258D264F
:1012E200E4F527F528AB23AA24A92585278275834F
:1012F20000120617FF6008642E6004052780E6AB23
:1013020023AA24A9251214E7C3E5279FE49E5003CC
:10131200852728AB23AA24A92585282DAD260212CC
:011322005773
:0213E6008D2256
:1013E8007526FF7527147528098E298F2A7B017A9F
:1013F80000790A1207E47B017A00790AAD22021209
:01140800DA09
:080FFC008F1B8E1A8D198C1851
:10100400AC1CE412028F8F0F8E0E8D0D8C0C7F00A2
:101014007E007D207C41120D2CAB1BAA1AA919A8B5
:1010240018120106C004C005C006C007E4FFFEFD97
:10103400FCAB1BAA1AA919A81812020C600B4009D0
:10104400E4FFFE7D807C3F8007E4FFFE7D807CBF63
:10105400E4FBFAF9783F120106D003D002D001D0A4
:10106400001200151202C37526FF7527147528098E
:101074008E298F2A7B017A0079001207E4E51C602F
:10108400147B017A0079001214E7C3EF951CFFEE7C
:101094009400FE80047E007F008F2D7B017A00790E
:0610A40000AD1D02125711
:10000E0002032FE86480F8E933E83360110460F0EE
:10001E00ED33EC337009E8FCE9FDEAFEEBFF220458
:10002E0060DED3EB9FEA9EE99DE8C2E78CF0C2F753
:10003E0095F0400CE8CCF8E9CDF9EACEFAEBCFFB1F
:10004E001202FA85D0F05804700320D5B3E804707C
:10005E00075002B2D502033992D5EC0460F7E4CC16
:10006E00C0E0C398F8603B94186008400DD0E0FBE8
:10007E00020311E4FBFAC9FC8028E830E406E4C967
:10008E00FBE4CAFCE830E305E4C9CACBFCE854073C
:10009E006010F8C3E913F9EA13FAEB13FBEC13FC47
:1000AE00D8F130F52FC3E49CFCEF9BFFEE9AFEEDEA
:1000BE0099FDD0E0FBEF4E4D4C701222DB03020394
:1000CE0036EC2CFCEF33FFEE33FEED33FDED30E777
:1000DE00EB020311EF2BFFEE3AFEED39FDD0E0FB04
:1000EE0050130BBB0003020339ED13FDEE13FEEFAD
:0800FE0013FFEC13FC020311D7
:10010600EC4D6011E8497017ED33EC3304600DE4F3
:10011600FCFFFEFD22E933E8330470F802032F12D8
:1001260002FA58046009E4CC2481500628500902DA
:100136000339284003020336C0E0EB4A7044B98015
:1001460006D0E0FB020325EF4E701CBD8008EBFFD6
:10015600EAFEE9FD80EBE98DF0A4FEE5F00201EF91
:10016600E9CDF9EAFEEBFFEF89F0A4FCE5F0CE89D4
:10017600F0A42EFFE435F0CD89F0A42DFEE435F091
:100186008067EF4E7005BD80D780C3EF8BF0A4ACBF
:10019600F0EE8BF0A42CFCE435F0F8EF8AF0A42CFA
:1001A600E5F038FCE433CB8DF0A42CFCE5F03BF80D
:1001B600EE8AF0A42CFCE5F038F8E433CF89F0A4FD
:1001C6002CFCE5F038CF3400CE89F0A42FFFE5F003
:1001D6003EFEE433C98DF0A42EFEE5F039CD8AF05B
:1001E600A42FFFE5F03EFEE43DFD33D0E0FB5007D3
:1001F6000BBB000F020339EC2CFCEF33FFEE33FE92
:06020600ED33FD020311BF
:10020C0074F8CC6480CCC86480C8F58204604FC399
:10021C00EB9FF5F0EA9E42F0E99D42F0E89C45F038
:10022C00603C501DE5825FFFE582D313CB5BCBF4C2
:10023C002B5582FB50280ABA002409B900200880EB
:10024C001DE5825BFBE582D313CF5FCFF4C3132F85
:10025C005582FF50090EBE00050DBD00010CC3EB0D
:10026C009FF5F0EA9E42F0E99D42F0E89C45F06073
:09027C0007CC4820E701B3EC2295
:1002850075F020800E75F010800575F0087D007EF4
:10029500007F003392D530D503120656EC3340105B
:1002A500EF33FFEE33FEED33FDEC33FCD5F0ED22FD
:0E02B500E5F0247EA2D513CC92E7CDCEFF2239
:1002C300EDD2E7CD33EC3392D524814006E4FFFE33
:1002D300FDFC22FCE4CFCECDCC24E0501174FF8092
:1002E300EDC3CC13CCCD13CDCE13CECF13CF04702F
:0702F300F030D5DE020656D3
:10078800E53A2426F8E6053A227823300702782647
:10079800E475F0011206840205FE2000EB7F2ED2DC
:1007A800008018EF540F2490D43440D4FF30040B49
:1007B800EF24BFB41A0050032461FFE53B60021523
:1007C8003B053EE53E7002053D30070D7823E47594
:1007D800F001120684EF0206440213997403D2074B
:1007E8008003E4C207F53A8B238A248925E4F53B84
:1007F800F53DF53EE53B60077F201207C380F575A0
:100808003CFFC201C200C202C203C205C206C2083E
:10081800120791FF700D3007057F001207D4AF3E15
:10082800AE3D22B4255FC2D5C204120791FF24D081
:10083800B40A00501A75F00A783B30D50508B6FF9F
:100848000106C6A426F620D5047002D20380D92456
:10085800CFB41A00EF5004C2E5D204020AC1D20193
:1008680080C6D20080C0D20280BCD2D580BAD20560
:1008780080B47F201207C32002077401B53B0040F3
:10088800F1120788FF1207C30207FCD208D20680BC
:1008980095120788FB120788FA120788F94A4B70E5
:1008A8000679B87A0B7BFF20022EE53B602A7E0092
:1008B8008E8275830012061760060EEE653C70F096
:1008C800C2D5EBC0E0EAC0E0E9C0E0EE120B21D0EF
:1008D800E0F9D0E0FAD0E0FB1205FEFF60AAEBC019
:1008E800E0EAC0E0E9C0E01207C3D0E02401F9D093
:1008F800E03400FAD0E0FBE53C0460DCD53CD9806C
:1009080087D20280A2120B0460F7E53C7001041242
:10091800036FA93C600DE53C600914F53C120BAB74
:10092800EF60F3EA30E702F404C3995077EAF4255C
:100938003C0430E701E404F53C800D120B0460C16F
:10094800EA053C253C12036FEA7839F630E701E402
:10095800253C04D53C0420050114120B21E4C0E019
:10096800120BAB7839E6601320E70714F61207ABD1
:10097800802204F6D0E014C0E07F001207ABE53C0B
:1009880060071207A2153C800B3005031207A2D09E
:10099800E00207FCD0E00480C5120B0460A0E53C2F
:1009A8000412036F7839EAF6E53C20050260010479
:0509B8002404120B21D4
:1009BD0074FF04C0E0120BAB1207ABE53C2005023F
:1009CD0060031207A2D0E0B53CE87F451207B57869
:1009DD0039E67F2B30E7047F2DF404C0E01207C306
:1009ED00D0E075F00A84C0F01207ACD0E01207AC6D
:1009FD000207FC791080027908C206C2088008D26D
:100A0D00D5790A8004790AC2D5E53C047002F53C1B
:100A1D00E4FAFDFEFF120788FC7B08200113120784
:100A2D0088FD7B1030000A120788FE120788FF7BB5
:100A3D0020EC3382D592D55013C3E43000069FFFCE
:100A4D00E49EFEE42001039DFDE49CFCE4CBF8C292
:100A5D0001EC700CCFCECDCCE824F8F870F38017F4
:100A6D00C3EF33FFEE33FEED33FDEC33FCEB33FB25
:100A7D00994002FB0FD8E9EB300105F8D0E0C448EE
:100A8D00B201C0E00AEC4D4E4F78207B0070C2EAF7
:100A9D00B53C0040BCC0E0120B23D0F0D0E02001EB
:100AAD0004C4C0E0C4B201C0F01207ACD0F0D5F060
:100ABD00EB0207FC1206940899530A0058086A4C79
:100ACD000866420A044F0A0C440A0C49087F430A7F
:100ADD00125509434609A145090D470BD850086E1B
:100AED002D08722E08952B0876230893200BC12A0A
:100AFD00082E480000088DE53CB4FF03753C061236
:100B0D000788FC120788FD120788FE120788FF78F8
:100B1D003202039E790AA2D5200314300509B910BB
:100B2D00020404B9080104A2D520060250010420D4
:100B3D0002689202B53B005034C0E07F20300319AB
:100B4D007F30A20272067205500F120B7AC202C2DA
:100B5D0006C205C2087F30800F300503E9C0E012E0
:100B6D0007C3300503D0E0F9D0E0B53BCC30051715
:100B7D007F30B9100C1207C37F583004077F78807F
:100B8D0003B908031207C33002057F2D0207C37F87
:100B9D00202008F87F2B2006F322920280CF7F00C1
:100BAD00B4070050052432F8E6FF22286E756C6CF0
:100BBD002900D2011207883001F8C201783B30D5E7
:100BCD000108F602082E2D504349581207882403B8
:100BDD00B405004001E4900BD3931207B4743A129C
:0A0BED0007B4D203753B04020A00AE
:100D2C008F0B8E0A8D098C08E4FFFE7D807C3FAB17
:100D3C000BAA0AA909A80812020C7009AF0BAE0A7B
:100D4C00AD09AC0822AF0BAE0AAD09AC08120344D6
:100D5C00FBAF0FAE0EAD0DAC0C120344FFBF010880
:100D6C00E4FFFE7D807C3F22EF64046022EB640490
:100D7C00601DBB0127E4FFFEFDFCAB0FAA0EA90D05
:100D8C00A80C12020C60084006E4FFFEFDFC227465
:100D9C00FFF50FF50EF50DF50C020E3AE4F510F516
:100DAC0011FFFEFDFCAB0BAA0AA909A80812020C44
:100DBC00504BAF0FAE0EAD0DAC0C1202C38E108F9C
:100DCC0011AC10AD11EC12028AC8ECC8C9EDC9CA3D
:100DDC00EECACBEFCBAF0FAE0EAD0DAC0C120011BB
:100DEC00E4FBFAF9F812020C70A5AF0BAE0AAD09D0
:100DFC00AC0812035E8F0B8E0A8D098C08AF0BAEFC
:100E0C000AAD09AC08120C2BAB0FAA0EA90DA80C3D
:100E1C001201061210E28F0F8E0E8D0D8C0CE51147
:100E2C0030E00B12035E8F0F8E0E8D0D8C0CAF0FFE
:070E3C00AE0EAD0DAC0C225F
:1002FA00E9D2E7C933E833F892D5EDD2E7CD33EC4A
:07030A0033FC5002B2D522C2
:10031100EC30E7100FBF000C0EBE00080DBD00044D
:100321000BEB6014A2D5EB13FCED92E7FD2274FFF9
:10033100FCFDFEFF22E480F8A2D574FF13FC7D8052
:03034100E480EF66
:10034400ED33EC33601004700FED547F70057402CC
:0A03540092E0227404220422E42245
:10035E00ED33EC33600A047003BD8004ECB2E7FCAD
:01036E00226C
:10036F00F920E72824F950037907E4F42402FB1855
:10037F00DBFDE624FB5014E9600DE4F618E604F605
:0F038F00B40A08E4F6D9F57401F60A22C2D522A1
:10039E00ED33EC3392D5FA602AB4FF33EDC2E77B2E
:1003AE00FF60067A0379C3E4227A0379CC20D50460
:1003BE007A0379C7224E614E002B494E46002D49D5
:1003CE004E4600E47A08F608DAFC7B00740722E851
:1003DE00C0E0ECC0E0EDC0E0EEC0E0EFC0E0EA75DA
:1003EE00F010A4CAABF075F04DA42BFBE435F0FC75
:1003FE00EA2410FAEB34C5FBEC34D9FCEDC2E7FF6E
:10040E0075F056A4F42411C5F0F434C58FF0A42A67
:10041E00E5F03BE43CF620E714120571D0E0FFD086
:10042E00E0FED0E0FDD0E0FC1204A48014F404122F
:10043E000571D0E0FFD0E0FED0E0FDD0E0FC12016F
:10044E0006D0E0F8E6FAEDD2E7CD33EC332482FBAA
:10045E00E4C3CF33CFCE33CECD33CD33DBF37B07F7
:10046E0075F00A846004F6081B0AE5F0F6088FF0B2
:10047E00740AA4FFACF08EF0740AA42CFEACF050FB
:10048E00010C8DF0740AA42CFDE435F0F608DBDEC9
:03049E00740722BE
:1010AA0033DA929E35B16011377FE5FE39218489A2
:1010BA003AAEC3FF3C1D955B3D6358473E75FDF054
:1010CA003F3172183F800000C2D502033902032F54
:1010DA00BD80FA50F3020336ED33EC330460F17B42
:1010EA003B7AAA79B8783F120106ED33EC3392D5F0
:1010FA00247B5011A2D570DB500BED4480240450A0
:10110A0004A2D580CEEFFBEEFAEDF9ECF81202C399
:10111A00EFF582F404FC12028F120015C0829010BF
:10112A00AA74091205C0ED33CC33D0F092D525F05C
:0A113A00A2D57001C313CC13FD22EF
:100BF7003E9248DA3ECCCCCD3F2AAAAB400000005B
:100C07003F8000003F9837F03FB504F33FD744FCDF
:100C17003E3172173EB172173F0515913EDE5BD923
:100C2700D20A8002C20AEDD2E7F8CD33EC33047062
:100C37000BBD800592D502033902032F40FBD31465
:100C470060F2F5F07C3FEE7A00C39496C8948B402F
:100C5700230AC89469C8941A401A0AC89468C894A1
:100C67001F40110AC8945AC89425400805F07A0015
:100C7700CDC2E7CDC0F08C3F8D408E418F42EA2335
:100C870023C0E02407F582E4340CF58312067412BE
:100C97000015ECC0E0EDC0E0EEC0E0EFC0E01206EA
:100CA70064A83FA940AA41AB42120011D0E0FBD093
:100CB700E0FAD0E0F9D0E0B2E7F81204A48C3F8D57
:100CC700408E418F42900BF774031205B1A83FA9DC
:100CD70040AA41AB42120106D0E0600F2413F5820F
:100CE700E4340CF5831206741200158C3F8D408E88
:100CF700418F42D0E0C3947FFDE49400FC12028A46
:100D07007B187A727931783F120106A83FA940AA69
:100D170041AB42120015300A0B7BD97A5B79DE783A
:050D27003E120106224E
:1004A100020339EC5D046005E85904700302032F6F
:1004B1001202FA580460F6EC4860F2EC7004FDFE9A
:1004C100FF22C860DB2481C85009C398600250062E
:1004D1000203369850CAF582E9294B4A7005AB826E
:1004E10002032575F0007C1A7880C3EF9BEE9AED2C
:1004F10099400DC3EF9BFFEE9AFEED99FDE842F0A6
:10050100DC23ACF0D0E0FFD0E0FED0E0FDAB8220F8
:10051100E7101BEB60BAEC2CFCEF33FFEE33FEED82
:1005210033FD020311E803F830E705C0F075F00070
:10053100EF2FFFEE33FEED33FD40B830E7C280AA66
:100541003F8000004120000042C80000447A0000C2
:10055100461C400047C35000497424004B18968044
:100561004CBEBC205A0E1BCA6753C21C749DC5AE3B
:10057100FB60065407601C232312059FEB5438606F
:100581000912058B12059A120106ECF8EDF9EEFA43
:10059100EFCB22EB12059A80F1543803241C90050D
:1005A10041FE93FC0EEE93FD0EEE930ECE93FF22D1
:1005B100C0E0EFFBEEFAEDF9ECF8120106D0E0F540
:1005C100F0EFFBEEFAEDF9ECF8120664A3A3A3A396
:1005D100E8C0E0E9C0E0EAC0E0EBC0E0C0F0120131
:1005E10006120674A3A3A3A3120015D0F0D0E0FB5A
:0D05F100D0E0FAD0E0F9D0E0F8D5F0D42247
:03000000021144A6
:0C114400787FE4F6D8FD75814802118B1D
:1005FE00BB010689828A83E0225002E722BBFE02FB
:09060E00E32289828A83E493222D
:10061700BB010CE58229F582E5833AF583E0225098
:1006270006E92582F8E622BBFE06E92582F8E222E2
:0D063700E58229F582E5833AF583E49322FC
:10064400BB010689828A83F0225002F722BBFE0195
:02065400F3228F
:10132300C2D5E830E70FB2D5E4C39BFBE49AFAE4F5
:1013330099F9E498F8EC30E717B2D512135912066D
:10134300F6E4C39BFBE49AFAE499F9E498F8800382
:101353001206F630D50DE4C39FFFE49EFEE49DFD27
:04136300E49CFC22E8
:0E065600C3E49FFFE49EFEE49DFDE49CFC22B5
:10066400E493FC740193FD740293FE740393FF22DC
:10067400E493F8740193F9740293FA740393FB22DC
:10068400FAE6FB0808E6F925F0F618E6CA3AF62277
:10069400D083D082F8E4937012740193700DA3A3F5
:1006A40093F8740193F5828883E473740293686009
:0606B400EFA3A3A380DF09
:10139900EFB40A07740D1213A4740A309811A899AE
:1013A900B8130CC2983098FDA899C298B811F630B4
:0713B90099FDC299F599228C
:1014E700E4FFFE1205FE600C0FEF70010E09E970B4
:0514F700F20A80EF2263
:101150000214BDE493A3F8E493A34003F68001F2E4
:1011600008DFF48029E493A3F85407240CC8C333A0
:10117000C4540F4420C8834004F456800146F6DF6F
:10118000E4800B0102040810204080901544E47EA6
:10119000019360BCA3FF543F30E509541FFEE49364
:1011A000A360010ECF54C025E060A840B8E493A32B
:1011B000FAE493A3F8E493A3C8C582C8CAC583CA56
:1011C000F0A3C8C582C8CAC583CADFE9DEE780BE0E
:011551000099
:1006BA0075F008758200EF2FFFEE33FECD33CDCCF7
:1006CA0033CCC58233C5829BED9AEC99E58298407A
:1006DA000CF582EE9BFEED9AFDEC99FC0FD5F0D657
:1006EA00E4CEFBE4CDFAE4CCF9A88222B800C1B981
:1006FA000059BA002DEC8BF084CFCECDFCE5F0CBBF
:10070A00F97818EF2FFFEE33FEED33FDEC33FCEBF7
:10071A0033FB10D703994004EB99FB0FD8E5E4F9B2
:10072A00FA227818EF2FFFEE33FEED33FDEC33FC9F
:10073A00C933C910D7059BE99A4007EC9BFCE99A93
:10074A00F90FD8E0E4C9FAE4CCFB2275F010EF2FD8
:10075A00FFEE33FEED33FDCC33CCC833C810D707D8
:10076A009BEC9AE899400AED9BFDEC9AFCE899F813
:0E077A000FD5F0DAE4CDFBE4CCFAE4C8F922A6
:00000001FF
