:0D00030068656C6C6F20776F726C64210073
:100B57007F807E25120A7B7BFF7A007903120BA622
:100B67007FDB7E0F7D497C40120BCB7F047E007DAF
:080B7700007C00120BEE80FE71
:03002300020B15B8
:100B1500C0E0C0F0C083C082C0D075D000C000C0A6
:100B250001C002C003C004C005C006C00730980755
:100B3500C298AF99120C11D007D006D005D004D0B9
:100B450003D002D001D000D0D0D082D083D0F0D055
:020B5500E0328C
:07001C00256600256C64005D
:100A7B00AB07AA06759850438920D3EB9480EA9470
:100A8B007040047F8080027F008F87D3EB9480EAD5
:100A9B009470E44005FF7EE180047F807E70FDFC56
:100AAB00C004C005C006C007E4F9F8D007D006D0D3
:100ABB0005D004120AD1EFF404F58DF58BD2ACD22C
:060ACB00AFC2ABD28E2287
:080C11008F993099FDC2992270
:100BA6008B228A238924AB22AA23A9241204B060AB
:100BB600130524E5247002052314F91204B0FF126C
:050BC6000C1180E22289
:100BCB007525FF75260075271C8F2B8E2A8D298C7A
:100BDB00287B017A0079001206687B017A00790084
:030BEB00020BA654
:100BEE007525FF75260075271F8F2B8E2A8D298C54
:100BFE00287B017A0079001206687B017A00790061
:030C0E00020BA630
:10060C00E5392425F8E605392278223007027825C9
:10061C00E475F0011205080204B02000EB7F2ED225
:10062C00008018EF540F2490D43440D4FF30040BC6
:10063C00EF24BFB41A0050032461FFE53A600215A1
:10064C003A053DE53D7002053C30070D7822E47516
:10065C00F001120508EF0204F6020B7F7403D207B7
:10066C008003E4C207F5398B228A238924E4F53A06
:10067C00F53CF53DE53A60077F2012064780F5759D
:10068C003BFFC201C200C202C203C205C206C208BD
:10069C00120615FF700D3007057F00120658AF3D8E
:1006AC00AE3C22B4255FC2D5C204120615FF24D07D
:1006BC00B40A00501A75F00A783A30D50508B6FF1E
:1006CC000106C6A426F620D5047002D20380D924D4
:1006DC00CFB41A00EF5004C2E5D204020945D2018E
:1006EC0080C6D20080C0D20280BCD2D580BAD205DE
:1006FC0080B47F201206472002077401B53A0040EF
:10070C00F112060CFF120647020680D208D20680B0
:10071C009512060CFB12060CFA12060CF94A4B70D9
:10072C0006793C7A0A7BFF20022EE53A602A7E008D
:10073C008E827583001204C960060EEE653B70F064
:10074C00C2D5EBC0E0EAC0E0E9C0E0EE1209A5D0EA
:10075C00E0F9D0E0FAD0E0FB1204B0FF60AAEBC0E5
:10076C00E0EAC0E0E9C0E0120647D0E02401F9D08D
:10077C00E03400FAD0E0FBE53B0460DCD53BD980EB
:10078C0087D20280A212098860F7E53B700104123F
:10079C000026A93B600DE53B600914F53B120A2FBE
:1007AC00EF60F3EA30E702F404C3995077EAF425DA
:1007BC003B0430E701E404F53B800D12098860C16D
:1007CC00EA053B253B120026EA7838F630E701E4CF
:1007DC00253B04D53B04200501141209A5E4C0E017
:1007EC00120A2F7838E6601320E70714F612062F4A
:1007FC00802204F6D0E014C0E07F0012062FE53B07
:10080C006007120626153B800B300503120626D016
:10081C00E0020680D0E00480C512098860A0E53BA8
:10082C00041200267838EAF6E53B20050260010444
:05083C0024041209A5CF
:1008410074FF04C0E0120A2F12062FE53B200502B7
:100851006003120626D0E0B53BE87F4512063978E1
:1008610038E67F2B30E7047F2DF404C0E012064701
:10087100D0E075F00A84C0F0120630D0E0120630E4
:10088100020680791080027908C206C2088008D267
:10089100D5790A8004790AC2D5E53B047002F53B9B
:1008A100E4FAFDFEFF12060CFC7B08200113120680
:1008B1000CFD7B1030000A12060CFE12060CFF7BA9
:1008C10020EC3382D592D55013C3E43000069FFF4C
:1008D100E49EFEE42001039DFDE49CFCE4CBF8C210
:1008E10001EC700CCFCECDCCE824F8F870F3801772
:1008F100C3EF33FFEE33FEED33FDEC33FCEB33FBA3
:10090100994002FB0FD8E9EB300105F8D0E0C4486B
:10091100B201C0E00AEC4D4E4F78207B0070C2EA74
:10092100B53B0040BCC0E01209A7D0F0D0E02001E7
:1009310004C4C0E0C4B201C0F0120630D0F0D5F05A
:10094100EB020680120518071D5308845806EE4C69
:1009510006EA4208884F0890440890490703430873
:10096100965507C7460825450791470A5C5006F288
:100971002D06F62E07192B06FA230717200A452AFA
:1009810006B24800000711E53BB4FF03753B0612B0
:10099100060CFC12060CFD12060CFE12060CFF786A
:1009A10031020055790AA2D5200314300509B91086
:1009B100020404B9080104A2D52006025001042052
:1009C10002689202B53A005034C0E07F203003192A
:1009D1007F30A20272067205500F1209FEC202C2D6
:1009E10006C205C2087F30800F300503E9C0E0125E
:1009F1000647300503D0E0F9D0E0B53ACC30051711
:100A01007F30B9100C1206477F583004077F788079
:100A110003B908031206473002057F2D0206477FFE
:100A2100202008F87F2B2006F322920280CF7F003E
:100A3100B4070050052431F8E6FF22286E756C6C6E
:100A41002900D20112060C3001F8C201783A30D5E2
:100A51000108F60206B22D5043495812060C240330
:100A6100B405004001E4900A5793120638743A1213
:0A0A71000638D203753A0402088427
:10002600F920E72824F950037907E4F42402FB18A1
:10003600DBFDE624FB5014E9600DE4F618E604F651
:0F004600B40A08E4F6D9F57401F60A22C2D522ED
:10005500ED33EC3392D5FA602AB4FF33EDC2E77B7A
:10006500FF60067A00797AE4227A00798320D50444
:100075007A00797E224E614E002B494E46002D496D
:100085004E4600E47A08F608DAFC7B00740722E89D
:10009500C0E0ECC0E0EDC0E0EEC0E0EFC0E0EA7526
:1000A500F010A4CAABF075F04DA42BFBE435F0FCC1
:1000B500EA2410FAEB34C5FBEC34D9FCEDC2E7FFBA
:1000C50075F056A4F42411C5F0F434C58FF0A42AB4
:1000D500E5F03BE43CF620E714120426D0E0FFD01F
:1000E500E0FED0E0FDD0E0FC1203598014F40412C8
:1000F5000426D0E0FFD0E0FED0E0FDD0E0FC120207
:1001050050D0E0F8E6FAEDD2E7CD33EC332482FBAC
:10011500E4C3CF33CFCE33CECD33CD33DBF37B0743
:1001250075F00A846004F6081B0AE5F0F6088FF0FE
:10013500740AA4FFACF08EF0740AA42CFEACF05047
:10014500010C8DF0740AA42CFDE435F0F608DBDE15
:030155007407220A
:1001580002049BE86480F8E933E83360110460F036
:10016800ED33EC337009E8FCE9FDEAFEEBFF22040D
:1001780060DED3EB9FEA9EE99DE8C2E78CF0C2F708
:1001880095F0400CE8CCF8E9CDF9EACEFAEBCFFBD4
:1001980012046685D0F05804700320D5B3E80470C3
:1001A800075002B2D50204A592D5EC0460F7E4CC5E
:1001B800C0E0C398F8603B94186008400DD0E0FB9D
:1001C80002047DE4FBFAC9FC8028E830E406E4C9AF
:1001D800FBE4CAFCE830E305E4C9CACBFCE85407F1
:1001E8006010F8C3E913F9EA13FAEB13FBEC13FCFC
:1001F800D8F130F52FC3E49CFCEF9BFFEE9AFEED9F
:1002080099FDD0E0FBEF4E4D4C701222DB03020447
:10021800A2EC2CFCEF33FFEE33FEED33FDED30E7BF
:10022800EB02047DEF2BFFEE3AFEED39FDD0E0FB4B
:1002380050130BBB00030204A5ED13FDEE13FEEFF4
:0802480013FFEC13FC02047D1E
:10025000EC4D6011E8497017ED33EC3304600DE4A8
:10026000FCFFFEFD22E933E8330470F802049B1220
:10027000046658046009E4CC248150062850090221
:1002800004A52840030204A2C0E0EB4A7044B980F0
:1002900006D0E0FB020491EF4E701CBD8008EBFF1E
:1002A000EAFEE9FD80EBE98DF0A4FEE5F0020339FA
:1002B000E9CDF9EAFEEBFFEF89F0A4FCE5F0CE8989
:1002C000F0A42EFFE435F0CD89F0A42DFEE435F046
:1002D0008067EF4E7005BD80D780C3EF8BF0A4AC74
:1002E000F0EE8BF0A42CFCE435F0F8EF8AF0A42CAF
:1002F000E5F038FCE433CB8DF0A42CFCE5F03BF8C2
:10030000EE8AF0A42CFCE5F038F8E433CF89F0A4B1
:100310002CFCE5F038CF3400CE89F0A42FFFE5F0B7
:100320003EFEE433C98DF0A42EFEE5F039CD8AF00F
:10033000A42FFFE5F03EFEE43DFD33D0E0FB500787
:100340000BBB000F0204A5EC2CFCEF33FFEE33FED9
:06035000ED33FD02047D07
:100356000204A5EC5D046005E85904700302049BE1
:10036600120466580460F6EC4860F2EC7004FDFE78
:10037600FF22C860DB2481C85009C398600250067A
:100386000204A29850CAF582E9294B4A7005AB824D
:1003960002049175F0007C1A7880C3EF9BEE9AED0B
:1003A60099400DC3EF9BFFEE9AFEED99FDE842F0F2
:1003B600DC23ACF0D0E0FFD0E0FED0E0FDAB822045
:1003C600E7101BEB60BAEC2CFCEF33FFEE33FEEDCF
:1003D60033FD02047DE803F830E705C0F075F00050
:1003E600EF2FFFEE33FEED33FD40B830E7C280AAB3
:1003F6003F8000004120000042C80000447A00000F
:10040600461C400047C35000497424004B18968090
:100416004CBEBC205A0E1BCA6753C21C749DC5AE87
:10042600FB60065407601C2323120454EB54386007
:100436000912044012044F120250ECF8EDF9EEFADC
:10044600EFCB22EB12044F80F1543803241C9003A7
:10045600F6FE93FC0EEE93FD0EEE930ECE93FF2268
:10046600E9D2E7C933E833F892D5EDD2E7CD33ECDC
:0704760033FC5002B2D52255
:10047D00EC30E7100FBF000C0EBE00080DBD0004E0
:10048D000BEB6014A2D5EB13FCED92E7FD2274FF8C
:10049D00FCFDFEFF22E480F8A2D574FF13FC7D80E5
:0304AD00E480EFF9
:03000000020010EB
:0C001000787FE4F6D8FD75813D020B57A7
:1004B000BB010689828A83E0225002E722BBFE024A
:0904C000E32289828A83E493227D
:1004C900BB010CE58229F582E5833AF583E02250E8
:1004D90006E92582F8E622BBFE06E92582F8E22232
:0D04E900E58229F582E5833AF583E493224C
:1004F600BB010689828A83F0225002F722BBFE01E5
:02050600F322DE
:100AD100C2D5E830E70FB2D5E4C39BFBE49AFAE450
:100AE10099F9E498F8EC30E717B2D5120B07120523
:100AF1007AE4C39BFBE49AFAE499F9E498F8800359
:100B010012057A30D50DE4C39FFFE49EFEE49DFDFE
:040B1100E49CFC2242
:10050800FAE6FB0808E6F925F0F618E6CA3AF622F4
:10051800D083D082F8E4937012740193700DA3A372
:1005280093F8740193F5828883E473740293686086
:06053800EFA3A3A380DF86
:100B7F00EFB40A07740D120B8A740A309811A899F2
:100B8F00B8130CC2983098FDA899C298B811F630D6
:070B9F0099FDC299F59922AE
:10053E0075F008758200EF2FFFEE33FECD33CDCC74
:10054E0033CCC58233C5829BED9AEC99E5829840F7
:10055E000CF582EE9BFEED9AFDEC99FC0FD5F0D6D4
:10056E00E4CEFBE4CDFAE4CCF9A88222B800C1B9FE
:10057E000059BA002DEC8BF084CFCECDFCE5F0CB3C
:10058E00F97818EF2FFFEE33FEED33FDEC33FCEB75
:10059E0033FB10D703994004EB99FB0FD8E5E4F930
:1005AE00FA227818EF2FFFEE33FEED33FDEC33FC1D
:1005BE00C933C910D7059BE99A4007EC9BFCE99A11
:1005CE00F90FD8E0E4C9FAE4CCFB2275F010EF2F56
:1005DE00FFEE33FEED33FDCC33CCC833C810D70756
:1005EE009BEC9AE899400AED9BFDEC9AFCE899F891
:0E05FE000FD5F0DAE4CDFBE4CCFAE4C8F92224
:00000001FF
