:100D20002562642C25700D0A002562642C25702C28
:100D30002562642C25700D0A0025640D0A0001024D
:080D7A008F44120D82AF4422E8
:100B4E0075220178237C007D007BFF7A0D793E7E35
:100B5E00007F0212055D7525007526007527227F20
:100B6E00807E25120BBB85222B752C00752D0075F2
:100B7E002E227BFF7A0D792012074185232B752CAF
:100B8E0000752D00752E2385242F753000753100CC
:100B9E007532247BFF7A0D79291207417BFF7A0D7E
:0D0BAE007939752B0085242C12074180FE3B
:0B0D6F00256400257500252E2A660073
:0B0D6400EF1FAC0670011E4C70F62261
:100D4000AB07AA06EB1BAE0270011A4E60097F6466
:080D50007E00120D6480ED220B
:040C55008E488F49ED
:100C590030090B752BFF752C0D752D6F8009752BC0
:100C6900FF752C0D752D7285482E85492F7B007ACD
:0C0C790000790812073B7B007A00790824
:010C8500224C
:080C86008F1D8E1C8D1B8C1AC2
:100C8E00752BFF752C0D752D75752E00851E2F8FEE
:100C9E00338E328D318C307B007A00791012073B07
:060CAE007B007A007910C2
:010CB400221D
:070D8A00256600256C6400E2
:100BBB00AB07AA06759850438920D3EB9480EA942F
:100BCB007040047F8080027F008F87D3EB9480EA94
:100BDB009470E44005FF7EE180047F807E70FDFC15
:100BEB00C004C005C006C007E4F9F8D007D006D092
:100BFB0005D004120C11EFF404F58DF58BD2ACD2A9
:060C0B00AFC2ABD28E2245
:080D82008F993099FDC29922FE
:100CB5008B458A468947AB45AA46A94712058360F5
:100CC500130547E5477002054614F9120583FF121F
:050CD5000D8280E22207
:100CDA00752BFF752C0D752D8A8F318E308D2F8CCB
:100CEA002E7B017A00790012073B7B017A0079009A
:030CFA00020CB534
:100CFD00752BFF752C0D752D8D8F318E308D2F8CA5
:100D0D002E7B017A00790F12073B7B017A00790F58
:030D1D00020CB510
:1006DF00E53F242BF8E6053F227828300702782BD8
:1006EF00E475F0011205DB0205832000EB7F2ED2AB
:1006FF00008018EF540F2490D43440D4FF30040BF3
:10070F00EF24BFB41A0050032461FFE540600215C7
:10071F00400543E5437002054230070D7828E47524
:10072F00F0011205DBEF0205C9020D7A7403D2073F
:10073F008003E4C207F53F8B288A29892AE4F54014
:10074F00F542F543E54060077F2012071A80F575E3
:10075F0041FFC201C200C202C203C205C206C208E3
:10076F001206E8FF700D3007057F0012072BAF430D
:10077F00AE4222B4255FC2D5C2041206E8FF24D0D0
:10078F00B40A00501A75F00A784030D50508B6FF44
:10079F000106C6A426F620D5047002D20380D92400
:1007AF00CFB41A00EF5004C2E5D204020A18D201E6
:1007BF0080C6D20080C0D20280BCD2D580BAD2050A
:1007CF0080B47F2012071A2002077401B540004041
:1007DF00F11206DFFF12071A020753D208D2068062
:1007EF00951206DFFB1206DFFA1206DFF94A4B708D
:1007FF0006790F7A0B7BFF20022EE540602A7E00E0
:10080F008E8275830012059C60060EEE654170F0B6
:10081F00C2D5EBC0E0EAC0E0E9C0E0EE120A78D042
:10082F00E0F9D0E0FAD0E0FB120583FF60AAEBC03D
:10083F00E0EAC0E0E9C0E012071AD0E02401F9D0E5
:10084F00E03400FAD0E0FBE5410460DCD541D9800B
:10085F0087D20280A2120A5B60F7E5417001041291
:10086F000003A941600DE541600914F541120B0227
:10087F00EF60F3EA30E702F404C3995077EAF42506
:10088F00410430E701E404F541800D120A5B60C1B9
:10089F00EA05412541120003EA783EF630E701E40C
:1008AF00254104D5410420050114120A78E4C0E063
:1008BF00120B02783EE6601320E70714F6120702C8
:1008CF00802204F6D0E014C0E07F00120702E54159
:1008DF0060071206F91541800B3005031206F9D097
:1008EF00E0020753D0E00480C5120A5B60A0E54127
:1008FF0004120003783EEAF6E54120050260010488
:05090F002404120A7827
:1009140074FF04C0E0120B02120702E54120050235
:1009240060031206F9D0E0B541E87F4512070C7860
:100934003EE67F2B30E7047F2DF404C0E012071A53
:10094400D0E075F00A84C0F0120703D0E012070368
:10095400020753791080027908C206C2088008D2BF
:10096400D5790A8004790AC2D5E541047002F541BB
:10097400E4FAFDFEFF1206DFFC7B082001131206D9
:10098400DFFD7B1030000A1206DFFE1206DFFF7B5C
:1009940020EC3382D592D55013C3E43000069FFF78
:1009A400E49EFEE42001039DFDE49CFCE4CBF8C23C
:1009B40001EC700CCFCECDCCE824F8F870F380179E
:1009C400C3EF33FFEE33FEED33FDEC33FCEB33FBCF
:1009D400994002FB0FD8E9EB300105F8D0E0C44898
:1009E400B201C0E00AEC4D4E4F78207B0070C2EAA1
:1009F400B5410040BCC0E0120A7AD0F0D0E020013A
:100A040004C4C0E0C4B201C0F0120703D0F0D5F0B2
:100A1400EB0207531205EB07F05309575807C14C73
:100A240007BD42095B4F09634409634907D643097B
:100A34006955089A4608F8450864470B2F5007C5BE
:100A44002D07C92E07EC2B07CD2307EA200B182A04
:100A5400078548000007E4E541B4FF037541061229
:100A640006DFFC1206DFFD1206DFFE1206DFFF784A
:100A740037020032790AA2D5200314300509B910CF
:100A8400020404B9080104A2D5200602500104207E
:100A940002689202B540005034C0E07F2030031950
:100AA4007F30A20272067205500F120AD1C202C22E
:100AB40006C205C2087F30800F300503E9C0E0128A
:100AC400071A300503D0E0F9D0E0B540CC30051763
:100AD4007F30B9100C12071A7F583004077F7880D2
:100AE40003B9080312071A3002057F2D02071A7F83
:100AF400202008F87F2B2006F322920280CF7F006B
:100B0400B4070050052437F8E6FF22286E756C6C94
:100B14002900D2011206DF3001F8C201784030D535
:100B24000108F60207852D504349581206DF2403B5
:100B3400B405004001E4900B2A9312070B743A1297
:0A0B4400070BD203754004020957A5
:10000300F920E72824F950037907E4F42402FB18C4
:10001300DBFDE624FB5014E9600DE4F618E604F674
:0F002300B40A08E4F6D9F57401F60A22C2D52210
:10003200ED33EC3392D5FA602AB4FF33EDC2E77B9D
:10004200FF60067A007957E4227A00796020D504AD
:100052007A00795B224E614E002B494E46002D49B3
:100062004E4600E47A08F608DAFC7B00740722E8C0
:10007200C0E0ECC0E0EDC0E0EEC0E0EFC0E0EA7549
:10008200F010A4CAABF075F04DA42BFBE435F0FCE4
:10009200EA2410FAEB34C5FBEC34D9FCEDC2E7FFDD
:1000A20075F056A4F42411C5F0F434C58FF0A42AD7
:1000B200E5F03BE43CF620E714120403D0E0FFD065
:1000C200E0FED0E0FDD0E0FC1203368014F404120E
:1000D2000403D0E0FFD0E0FED0E0FDD0E0FC12024D
:1000E2002DD0E0F8E6FAEDD2E7CD33EC332482FBF3
:1000F200E4C3CF33CFCE33CECD33CD33DBF37B0767
:1001020075F00A846004F6081B0AE5F0F6088FF021
:10011200740AA4FFACF08EF0740AA42CFEACF0506A
:10012200010C8DF0740AA42CFDE435F0F608DBDE38
:030132007407222D
:10013500020478E86480F8E933E83360110460F07C
:10014500ED33EC337009E8FCE9FDEAFEEBFF220430
:1001550060DED3EB9FEA9EE99DE8C2E78CF0C2F72B
:1001650095F0400CE8CCF8E9CDF9EACEFAEBCFFBF7
:1001750012044385D0F05804700320D5B3E8047009
:10018500075002B2D502048292D5EC0460F7E4CCA4
:10019500C0E0C398F8603B94186008400DD0E0FBC0
:1001A50002045AE4FBFAC9FC8028E830E406E4C9F5
:1001B500FBE4CAFCE830E305E4C9CACBFCE8540714
:1001C5006010F8C3E913F9EA13FAEB13FBEC13FC1F
:1001D500D8F130F52FC3E49CFCEF9BFFEE9AFEEDC2
:1001E50099FDD0E0FBEF4E4D4C701222DB0302046B
:1001F5007FEC2CFCEF33FFEE33FEED33FDED30E706
:10020500EB02045AEF2BFFEE3AFEED39FDD0E0FB91
:1002150050130BBB0003020482ED13FDEE13FEEF3A
:0802250013FFEC13FC02045A64
:10022D00EC4D6011E8497017ED33EC3304600DE4CB
:10023D00FCFFFEFD22E933E8330470F80204781266
:10024D00044358046009E4CC248150062850090267
:10025D00048228400302047FC0E0EB4A7044B98059
:10026D0006D0E0FB02046EEF4E701CBD8008EBFF64
:10027D00EAFEE9FD80EBE98DF0A4FEE5F002031640
:10028D00E9CDF9EAFEEBFFEF89F0A4FCE5F0CE89AC
:10029D00F0A42EFFE435F0CD89F0A42DFEE435F069
:1002AD008067EF4E7005BD80D780C3EF8BF0A4AC97
:1002BD00F0EE8BF0A42CFCE435F0F8EF8AF0A42CD2
:1002CD00E5F038FCE433CB8DF0A42CFCE5F03BF8E5
:1002DD00EE8AF0A42CFCE5F038F8E433CF89F0A4D5
:1002ED002CFCE5F038CF3400CE89F0A42FFFE5F0DB
:1002FD003EFEE433C98DF0A42EFEE5F039CD8AF033
:10030D00A42FFFE5F03EFEE43DFD33D0E0FB5007AA
:10031D000BBB000F020482EC2CFCEF33FFEE33FE1F
:06032D00ED33FD02045A4D
:10033300020482EC5D046005E8590470030204784A
:10034300120443580460F6EC4860F2EC7004FDFEBE
:10035300FF22C860DB2481C85009C398600250069D
:1003630002047F9850CAF582E9294B4A7005AB8293
:1003730002046E75F0007C1A7880C3EF9BEE9AED51
:1003830099400DC3EF9BFFEE9AFEED99FDE842F015
:10039300DC23ACF0D0E0FFD0E0FED0E0FDAB822068
:1003A300E7101BEB60BAEC2CFCEF33FFEE33FEEDF2
:1003B30033FD02045AE803F830E705C0F075F00096
:1003C300EF2FFFEE33FEED33FD40B830E7C280AAD6
:1003D3003F8000004120000042C80000447A000032
:1003E300461C400047C35000497424004B189680B4
:1003F3004CBEBC205A0E1BCA6753C21C749DC5AEAB
:10040300FB60065407601C2323120431EB5438604D
:100413000912041D12042C12022DECF8EDF9EEFA68
:10042300EFCB22EB12042C80F1543803241C9003ED
:10043300D3FE93FC0EEE93FD0EEE930ECE93FF22AE
:10044300E9D2E7C933E833F892D5EDD2E7CD33ECFF
:0704530033FC5002B2D52278
:10045A00EC30E7100FBF000C0EBE00080DBD000403
:10046A000BEB6014A2D5EB13FCED92E7FD2274FFAF
:10047A00FCFDFEFF22E480F8A2D574FF13FC7D8008
:03048A00E480EF1C
:03000000020D5896
:0C0D5800787FE4F6D8FD758149020B4E4F
:10048D00E709F608DFFA8046E709F208DFFA803E51
:10049D0088828C83E709F0A3DFFA8032E309F6083E
:1004AD00DFFA8078E309F208DFFA807088828C83A6
:1004BD00E309F0A3DFFA806489828A83E0A3F6085A
:1004CD00DFFA805889828A83E0A3F208DFFA804C34
:1004DD0080D280FA80C680D4806980F2803380100B
:1004ED0080A680EA809A80A880DA80E280CA803374
:1004FD0089828A83ECFAE493A3C8C582C8CCC583EC
:10050D00CCF0A3C8C582C8CCC583CCDFE9DEE780BB
:10051D000D89828A83E493A3F608DFF9ECFAA9F03A
:10052D00EDFB2289828A83ECFAE0A3C8C582C8CC90
:10053D00C583CCF0A3C8C582C8CCC583CCDFEADEA9
:10054D00E880DB89828A83E493A3F208DFF980CC0B
:10055D0088F0EF60010E4E60C388F0ED2402B40404
:10056D000050B9F582EB2402B4040050AF232345AB
:06057D0082239004DD73EF
:10058300BB010689828A83E0225002E722BBFE0276
:09059300E32289828A83E49322A9
:10059C00BB010CE58229F582E5833AF583E0225014
:1005AC0006E92582F8E622BBFE06E92582F8E2225E
:0D05BC00E58229F582E5833AF583E4932278
:1005C900BB010689828A83F0225002F722BBFE0111
:0205D900F3220B
:100C1100C2D5E830E70FB2D5E4C39BFBE49AFAE40E
:100C210099F9E498F8EC30E717B2D5120C4712069F
:100C31004DE4C39BFBE49AFAE499F9E498F8800344
:100C410012064D30D50DE4C39FFFE49EFEE49DFDE9
:040C5100E49CFC2201
:1005DB00FAE6FB0808E6F925F0F618E6CA3AF62221
:1005EB00D083D082F8E4937012740193700DA3A39F
:1005FB0093F8740193F5828883E4737402936860B3
:06060B00EFA3A3A380DFB2
:1006110075F008758200EF2FFFEE33FECD33CDCCA0
:1006210033CCC58233C5829BED9AEC99E582984023
:100631000CF582EE9BFEED9AFDEC99FC0FD5F0D600
:10064100E4CEFBE4CDFAE4CCF9A88222B800C1B92A
:100651000059BA002DEC8BF084CFCECDFCE5F0CB68
:10066100F97818EF2FFFEE33FEED33FDEC33FCEBA1
:1006710033FB10D703994004EB99FB0FD8E5E4F95C
:10068100FA227818EF2FFFEE33FEED33FDEC33FC49
:10069100C933C910D7059BE99A4007EC9BFCE99A3D
:1006A100F90FD8E0E4C9FAE4CCFB2275F010EF2F82
:1006B100FFEE33FEED33FDCC33CCC833C810D70782
:1006C1009BEC9AE899400AED9BFDEC9AFCE899F8BD
:0E06D1000FD5F0DAE4CDFBE4CCFAE4C8F92250
:00000001FF
