:101BF0007DD07C07E4FF12149BD28C1219F480FB79
:03000B0002189048
:10189000C0E0C0F0C083C082C0D075D000C000C01E
:1018A00001C002C003C004C005C006C007758A306D
:1018B000758CF87B017A00790C7D0112166FD007C8
:1018C000D006D005D004D003D002D001D000D0D0B3
:0918D000D082D083D0F0D0E032C8
:101A2A008F288C298D2AAF281528EF6025B295AC0E
:101A3A0029AD2AE412032AA804A905AA06AB077F3E
:101A4A00007E507D437C4712020F120363121C0072
:031A5A0080D42213
:0C196A00016300016600016400015F00E1
:101A5D00E590300103C48000540FFEEE24F96018A8
:101A6D0024FC601124FE600A24FE600F04700F7FB9
:101A7D0004227F03227F02227F01227FFF227F002B
:011A8D002236
:0A1C1600756301AD62AF65021BC9E2
:1019F40075900FC201121A5D8F62E562B4FF04E4B0
:101A0400F56322E562601EE563701A7F0AFE121B0D
:101A14005A7590F0D201121A5D8F65E5656006F47F
:061A24006003121C1622F3
:1016F000E4F57EAF7EA8077408088002C313D8FC07
:10170000F4F590D201121A5D8F65E5657010E57EE3
:101710002401FFE433FEEF65627001EE6040E56591
:10172000B4FF17E57E2401FFE433FE7C00EFB562D1
:1017300009ECB50605E4F5638024E5656020E56302
:10174000701C7F0AFE121B5AD201121A5D8F65E5CA
:1017500065600BF46008E57E04F562121C16057ED8
:07176000E57EC39404408CF8
:01176700225F
:10183D00E5641460261460332402704675900FC25F
:10184D0001121A5D8F62E562B4FF04E4F56322E5CF
:10185D0062602FE563702B75640122055FE55FC340
:10186D00940A401EE4F55F756402227590F0D20172
:10187D00121A5D8F65E5656006F46003121C16E4AF
:02188D00F56400
:01188F002236
:10176800E5616021D3940A4019E4F561D201121AA7
:101778005D8F65E565605BF46058E56004F56202BD
:101788001C16056122AF60A8077408088002C313FD
:10179800D8FCF4F590D201121A5D8F65E565B4FFA7
:1017A80017E5602401FFE433FE7C00EFB56209EC25
:1017B800B50605E4F563800EE565600AF46007E5A3
:1017C8006370030561220560E560C394044003E487
:0217D800F560BA
:0117DA0022EC
:101B3800256400003F065B4F666D7D077F6F777CED
:101B4800585E797176300E38543F7367506D3E3E5B
:021B58006E40DD
:06197600014B00014C00D2
:101B8900C374089FFF1392A2EFC313FF1392A3EF2D
:051B9900C3131392A428
:011B9E002224
:1011FC00EF1206A012FD2D12973012973112973272
:10120C00129733129734129735129736129737126A
:10121C009738129739129E4112A34212A84312AD6D
:10122C004412B24512B74612BC4812C14912C64A02
:10123C0012CB4C12D04E12D54F12DA5012DF511283
:10124C00E45212E95312EE5512F35612F859129E4B
:10125C006112A36212A86312AD6412B26512B76672
:10126C0012BC6812C16912C66A12CB6C12D06E1213
:10127C00D56F12DA7012DF7112E47212E97312EE8A
:10128C007512F37612F87900001304EF901B0C938F
:10129C00FF22901B46805D901B478058901B488016
:1012AC0053901B49804E901B4A8049901B4B8044A5
:1012BC00901B4C803F901B4D803A901B4E8035907C
:1012CC001B4F8030901B50802B901B518026901B05
:1012DC00528021901B53801C901B548017901B55DF
:1012EC008012901B56800D901B578008901B5880C5
:0B12FC0003901B59E493FF227F0022A7
:101B7200AE05AD07AF06121B89AF051211FC8F80AF
:071B820030000343808022C4
:0817DB008B1A8A1B891C8D1D6D
:1017E300E4F51FC37409951DFFE51FC39F504AAB62
:1017F3001AAA1BA91C851F82758300120617FF6096
:1018030038B42E04151D802DE51D251FFDE51F246D
:1018130001FBE433FAE51E758300B50308E583B5E0
:101823000203D38001C39200121B727F017E001258
:091833001B5AE4F580051F80AA90
:01183C002289
:0818D9008B678A6889698D6A3A
:1018E100E4F56BF56CAB67AA68A969856B827583B2
:1018F10000120617FF6008642E6004056B80E6ABDA
:1019010067AA68A969121BB4C3E56B9FE49E5003E3
:10191100856B6CAB67AA68A969856C1EAD6A0217F5
:01192100DBEA
:021B15008D7FC2
:101B17007532FF75331B7534388E358F367B017AF6
:101B27000079211209057B017A007921AD7F02181E
:011B3700D9D4
:0813ED008F708E6F8D6E8C6D08
:1013F500AC71E412032F8F5C8E5B8D5A8C597F0084
:101405007E007D207C411210E5AB70AA6FA96EA805
:101415006D120106C004C005C006C007E4FFFEFD4D
:10142500FCAB70AA6FA96EA86D1202AC600B4009E7
:10143500E4FFFE7D807C3F8007E4FFFE7D807CBF6E
:10144500E4FBFAF9783F120106D003D002D001D0AF
:10145500001200151203637532FF75331B7534389E
:101465008E358F367B017A007917120905E5716093
:10147500147B017A007917121BB4C3EF9571FFEE47
:101485009400FE80047E007F008F1E7B017A007928
:0614950017AD720217DB27
:06166F008B228A2389246E
:10167500E4F580AB22AA23A924854B82F5831206C3
:1016850017FFB42E0C744C254BF87601054B054C11
:1016950022E54B2DC3954CF525744D254BF8E624D5
:1016A500FF9200AD25121B72AB22AA23A924854BFC
:1016B5008275830012061770047F0180027F00E5A2
:1016C50025B408047E0180027E00EE4F601AE4F521
:1016D5004BE54C6004E4F54C22784D7C007D007BA5
:0A16E500FF7A1B793B020792054BC8
:0116EF0022D8
:0B1C0B00256400257500252E2A6600C8
:0B1C0000EF1FAC0670011E4C70F622B6
:101B5A00AB07AA06EB1BAE0270011A4E60097F643E
:081B6A007E00121C0080ED2238
:041A8E008E7C8F7D3E
:101A9200300C0B7532FF75331C75340B80097532AF
:101AA200FF75331C75340E857C35857D367B007A57
:0C1AB2000079081209057B007A00790811
:011ABE002205
:081ABF008F768E758D748C7317
:101AC7007532FF75331C7534117535008577368F80
:101AD7003A8E398D388C377B007A007910120905D8
:061AE7007B007A0079107B
:011AED0022D6
:101B9F00252E2A66000708090B0405060C0102030F
:051BAF000D000A0F0EFD
:10197C004A000C300000000000000000004400038E
:10198C000000000044000800000000410016004167
:10199C0000000041000100410007004100020BC1A2
:0319AC000BC18AE2
:100D1800EF25E025E0249FF582E4341BF583E58286
:100D28002DF582E43583F583E493F5281424F750F0
:100D3800277003020DD824FA4003020E1524106010
:100D480003020FAF200B11900001E0700B90000C14
:100D5800E064307003020FAF300A39C20A7E007FA8
:100D68000A7D007B017A00790C1207AFC20B900054
:100D780016E0FF900000E0FED39F4004AF0680001D
:100D8800900000EFF0A3E0900007F0E4900001F07D
:100D9800900016F0300B1E900016E004F0E52824B1
:100DA80030FFE0FE900001E02E240CF582E43400D0
:100DB800F583EFF022E5282430FF900001E0240CB1
:100DC800F582E43400F583EFF0900001E004F022AE
:100DD800300A09900001E06003020FAFC20A300B2D
:100DE80003020FAFD20B900001E0FF701290000CCD
:100DF800E0B4300B900001E004F0E0240C800374B0
:100E08000C2FF582E43400F583742EF022300A0B9F
:0B0E1800900002E0640F6003020FAFC7
:100E2300900008E0FCA3E0FDA3E0FEA3E0FF900038
:100E3300031206847B017A00790C121922900008B0
:100E4300120684900002E024F46056147003020E2C
:100E5300E0147003020F19147003020F4824046096
:100E630003020F74900008E0FCA3E0FDA3E0FEA3DF
:100E7300E0FF900003E0F8A3E0F9A3E0FAA3E0FBAE
:100E83001200158F2C8E2B8D2A8C29900016E0FFD3
:100E9300900000E0FED39F4005AF06020F6F020FE4
:100EA3006F900008E0F8A3E0F9A3E0FAA3E0FB9059
:100EB3000003E0FCA3E0FDA3E0FEA3E0FF120011AA
:100EC3008F2C8E2B8D2A8C29900016E0FF9000002A
:100ED300E0FED39F4004AF068000020F6F9000082E
:100EE300E0FCA3E0FDA3E0FEA3E0FF900003E0F835
:100EF300A3E0F9A3E0FAA3E0FB1201068F2C8E2BEB
:100F03008D2A8C29900016E0FF900000E02FF52E2B
:100F1300E433F52D805B900008E0F8A3E0F9A3E04B
:100F2300FAA3E0FB900003E0FCA3E0FDA3E0FEA333
:100F3300E0FF12020F8F2C8E2B8D2A8C29752D002A
:100F4300752E06802C900008E0FCA3E0FDA3E0FED4
:100F5300A3E0F52C8E2B8D2A8C29900016E0FF90B0
:100F63000000E0FED39F4004AF068000752D008F84
:100F73002E7532FF75331B75349F852D35852E36BF
:100F8300852C3A852B39852A388529377B017A00C8
:100F9300790C120905900002E528F0D20A7B017A48
:0C0FA30000790C1219229000081206843C
:010FAF00221F
:101BC9008F268D277DD07C077F32121A2AAD27AF49
:041BD90026020D18BB
:10149B008C268D27EF146056046003021548438990
:1014AB0001AE26AF27AB07AA06E4C39BFFE49AFE67
:1014BB0074019400FDE49400FCE4FB7A01F9F8124A
:1014CB0019B0AF038F8AAE26AF27AB07AA06E4C3CA
:1014DB009BFFE49AFE74019400FDE49400FCE4FB92
:1014EB007A01F9F81219B08F8CD2AFD2A9224389A5
:1014FB0010AE26AF27AB07AA06E4C39BFFE49AFE08
:10150B0074019400FDE49400FCE4FB7A01F9F812F9
:10151B0019B0AF038F8BAE26AF27AB07AA06E4C378
:10152B009BFFE49AFE74019400FDE49400FCE4FB41
:0E153B007A01F9F81219B08F8DD2AFD2AB221F
:10000E000203CFE86480F8E933E83360110460F04E
:10001E00ED33EC337009E8FCE9FDEAFEEBFF220458
:10002E0060DED3EB9FEA9EE99DE8C2E78CF0C2F753
:10003E0095F0400CE8CCF8E9CDF9EACEFAEBCFFB1F
:10004E0012039A85D0F05804700320D5B3E80470DB
:10005E00075002B2D50203D992D5EC0460F7E4CC76
:10006E00C0E0C398F8603B94186008400DD0E0FBE8
:10007E000203B1E4FBFAC9FC8028E830E406E4C9C7
:10008E00FBE4CAFCE830E305E4C9CACBFCE854073C
:10009E006010F8C3E913F9EA13FAEB13FBEC13FC47
:1000AE00D8F130F52FC3E49CFCEF9BFFEE9AFEEDEA
:1000BE0099FDD0E0FBEF4E4D4C701222DB03020394
:1000CE00D6EC2CFCEF33FFEE33FEED33FDED30E7D7
:1000DE00EB0203B1EF2BFFEE3AFEED39FDD0E0FB64
:1000EE0050130BBB00030203D9ED13FDEE13FEEF0D
:0800FE0013FFEC13FC0203B137
:10010600EC4D6011E8497017ED33EC3304600DE4F3
:10011600FCFFFEFD22E933E8330470F80203CF1238
:10012600039A58046009E4CC248150062850090239
:1001360003D92840030203D6C0E0EB4A7044B980D5
:1001460006D0E0FB0203C5EF4E701CBD8008EBFF36
:10015600EAFEE9FD80EBE98DF0A4FEE5F00201EF91
:10016600E9CDF9EAFEEBFFEF89F0A4FCE5F0CE89D4
:10017600F0A42EFFE435F0CD89F0A42DFEE435F091
:100186008067EF4E7005BD80D780C3EF8BF0A4ACBF
:10019600F0EE8BF0A42CFCE435F0F8EF8AF0A42CFA
:1001A600E5F038FCE433CB8DF0A42CFCE5F03BF80D
:1001B600EE8AF0A42CFCE5F038F8E433CF89F0A4FD
:1001C6002CFCE5F038CF3400CE89F0A42FFFE5F003
:1001D6003EFEE433C98DF0A42EFEE5F039CD8AF05B
:1001E600A42FFFE5F03EFEE43DFD33D0E0FB5007D3
:1001F6000BBB000F0203D9EC2CFCEF33FFEE33FEF2
:06020600ED33FD0203B11F
:10020C000203D9EC5D046005E8590470030203CFC6
:10021C0012039A580460F6EC4860F2EC7004FDFE90
:10022C00FF22C860DB2481C85009C39860025006C5
:10023C000203D69850CAF582E9294B4A7005AB8265
:10024C000203C575F0007C1A7880C3EF9BEE9AED23
:10025C0099400DC3EF9BFFEE9AFEED99FDE842F03D
:10026C00DC23ACF0D0E0FFD0E0FED0E0FDAB822090
:10027C00E7101BEB60BAEC2CFCEF33FFEE33FEED1A
:10028C0033FD0203B1E803F830E705C0F075F00068
:10029C00EF2FFFEE33FEED33FD40B830E7C280AAFE
:1002AC0074F8CC6480CCC86480C8F58204604FC3F9
:1002BC00EB9FF5F0EA9E42F0E99D42F0E89C45F098
:1002CC00603C501DE5825FFFE582D313CB5BCBF422
:1002DC002B5582FB50280ABA002409B9002008804B
:1002EC001DE5825BFBE582D313CF5FCFF4C3132FE5
:1002FC005582FF50090EBE00050DBD00010CC3EB6D
:10030C009FF5F0EA9E42F0E99D42F0E89C45F060D2
:09031C0007CC4820E701B3EC22F4
:1003250075F020800E75F010800575F0087D007E53
:10033500007F003392D530D503120656EC334010BA
:10034500EF33FFEE33FEED33FDEC33FCD5F0ED225C
:0E035500E5F0247EA2D513CC92E7CDCEFF2298
:10036300EDD2E7CD33EC3392D524814006E4FFFE92
:10037300FDFC22FCE4CFCECDCC24E0501174FF80F1
:10038300EDC3CC13CCCD13CDCE13CECF13CF04708E
:07039300F030D5DE02065632
:1008A900E5462432F8E6054622782F3008027832E8
:1008B900E475F0011206900205FE2001EB7F2ED2AD
:1008C900018018EF540F2490D43440D4FF30050B25
:1008D900EF24BFB41A0050032461FFE547600215F5
:1008E90047054AE54A7002054930080D782FE47535
:1008F900F001120690EF020644021AEE7403D208C0
:100909008003E4C208F5468B2F8A308931E4F54724
:10091900F549F54AE54760077F201208E480F57537
:1009290048FFC202C201C203C204C206C207C20909
:100939001208B2FF700D3008057F001208F5AF4AA2
:10094900AE4922B4255FC2D5C2051208B2FF24D030
:10095900B40A00501A75F00A784730D50508B6FF71
:100969000106C6A426F620D5047002D20480D92433
:10097900CFB41A00EF5004C2E5D205020BE2D2024D
:1009890080C6D20180C0D20380BCD2D580BAD2063B
:1009990080B47F201208E42003077401B5470040A2
:1009A900F11208A9FF1208E402091DD209D2078031
:1009B900951208A9FB1208A9FA1208A9F94A4B705D
:1009C9000679D97A0C7BFF20032EE547602A7E0041
:1009D9008E8275830012061760060EEE654870F068
:1009E900C2D5EBC0E0EAC0E0E9C0E0EE120C42D0AB
:1009F900E0F9D0E0FAD0E0FB1205FEFF60AAEBC0F7
:100A0900E0EAC0E0E9C0E01208E4D0E02401F9D04E
:100A1900E03400FAD0E0FBE5480460DCD548D98031
:100A290087D20380A2120C2560F7E54870010412F1
:100A3900040FA948600DE548600914F548120CCC6B
:100A4900EF60F3EA30E702F404C3995077EAF4253A
:100A5900480430E701E404F548800D120C2560C113
:100A6900EA0548254812040FEA7845F630E701E41B
:100A7900254804D5480420060114120C42E4C0E0BC
:100A8900120CCC7845E6601320E70714F61208CC5F
:100A9900802204F6D0E014C0E07F001208CCE548BB
:100AA90060071208C31548800B3006031208C3D02B
:100AB900E002091DD0E00480C5120C2560A0E548BC
:100AC9000412040F7845EAF6E5482006026001049D
:050AD9002404120C4290
:100ADE0074FF04C0E0120CCC1208CCE548200602CC
:100AEE0060031208C3D0E0B548E87F451208D678F7
:100AFE0045E67F2B30E7047F2DF404C0E01208E4B6
:100B0E00D0E075F00A84C0F01208CDD0E01208CD06
:100B1E0002091D791080027908C207C2098008D225
:100B2E00D5790A8004790AC2D5E548047002F548E1
:100B3E00E4FAFDFEFF1208A9FC7B0820021312083E
:100B4E00A9FD7B1030010A1208A9FE1208A9FF7B2D
:100B5E0020EC3382D592D55013C3E43001069FFFAB
:100B6E00E49EFEE42002039DFDE49CFCE4CBF8C26F
:100B7E0002EC700CCFCECDCCE824F8F870F38017D1
:100B8E00C3EF33FFEE33FEED33FDEC33FCEB33FB03
:100B9E00994002FB0FD8E9EB300205F8D0E0C448CB
:100BAE00B202C0E00AEC4D4E4F78207B0070C2EAD4
:100BBE00B5480040BCC0E0120C44D0F0D0E020029A
:100BCE0004C4C0E0C4B202C0F01208CDD0F0D5F01B
:100BDE00EB02091D1206A009BA530B2158098B4CC2
:100BEE000987420B254F0B2D440B2D4909A0430BB2
:100BFE0033550A64460AC2450A2E470CF950098F2E
:100C0E002D09932E09B62B09972309B4200CE22A3D
:100C1E00094F48000009AEE548B4FF0375480612B7
:100C2E0008A9FC1208A9FD1208A9FE1208A9FF784E
:100C3E003E02043E790AA2D5200414300609B910EA
:100C4E00020404B9080104A2D520070250010420B1
:100C5E0003689203B547005034C0E07F203004197A
:100C6E007F30A20372077206500F120C9BC203C292
:100C7E0007C206C2097F30800F300603E9C0E012BA
:100C8E0008E4300603D0E0F9D0E0B547CC300617C3
:100C9E007F30B9100C1208E47F583005077F78803A
:100CAE0003B908031208E43003057F2D0208E47F20
:100CBE00202009F87F2B2007F322920380CF7F009C
:100CCE00B407005005243EF8E6FF22286E756C6CC2
:100CDE002900D2021208A93002F8C202784730D594
:100CEE000108F602094F2D504349581208A9240352
:100CFE00B405004001E4900CF4931208D5743A1236
:0A0D0E0008D5D204754704020B213A
:10192200D2018B2F8A30893112195EC0E0FF121B5F
:10193200DDD0E040F312131A400122ECC0E0EDC00A
:10194200E0EEC0E0EFC0E012195ED0F0AFF0D0F0F0
:10195200AEF0D0F0ADF0D0F0ACF080D9E475F0018B
:08196200782F1206900205FE29
:1010E5008F588E578D568C55E4FFFE7D807C3FAB27
:1010F50058AA57A956A8551202AC7009AF58AE5751
:10110500AD56AC5522AF58AE57AD56AC551203E4AB
:10111500FBAF5CAE5BAD5AAC591203E4FFBF0108EF
:10112500E4FFFE7D807C3F22EF64046022EB6404D3
:10113500601DBB0127E4FFFEFDFCAB5CAA5BA95A61
:10114500A8591202AC60084006E4FFFEFDFC2274BB
:10115500FFF55CF55BF55AF5590211F3E4F55DF51C
:101165005EFFFEFDFCAB58AA57A956A8551202AC66
:10117500504BAF5CAE5BAD5AAC591203638E5D8FBD
:101185005EAC5DAD5EEC12032AC8ECC8C9EDC9CAF8
:10119500EECACBEFCBAF5CAE5BAD5AAC59120011CA
:1011A500E4FBFAF9F81202AC70A5AF58AE57AD568C
:1011B500AC551203FE8F588E578D568C55AF58AED1
:1011C50057AD56AC55120FE4AB5CAA5BA95AA859AA
:1011D5001201061215818F5C8E5B8D5A8C59E55E66
:1011E50030E00B1203FE8F5C8E5B8D5A8C59AF5C21
:0711F500AE5BAD5AAC5922BC
:10039A00E9D2E7C933E833F892D5EDD2E7CD33ECA9
:0703AA0033FC5002B2D52222
:1003B100EC30E7100FBF000C0EBE00080DBD0004AD
:1003C1000BEB6014A2D5EB13FCED92E7FD2274FF59
:1003D100FCFDFEFF22E480F8A2D574FF13FC7D80B2
:0303E100E480EFC6
:1003E400ED33EC33601004700FED547F700574022C
:0A03F40092E0227404220422E422A5
:1003FE00ED33EC33600A047003BD8004ECB2E7FC0D
:01040E0022CB
:10040F00F920E72824F950037907E4F42402FB18B4
:10041F00DBFDE624FB5014E9600DE4F618E604F664
:0F042F00B40A08E4F6D9F57401F60A22C2D52200
:10043E00ED33EC3392D5FA602AB4FF33EDC2E77B8D
:10044E00FF60067A047963E4227A04796C20D5047D
:10045E007A047967224E614E002B494E46002D4993
:10046E004E4600E47A08F608DAFC7B00740722E8B0
:10047E00C0E0ECC0E0EDC0E0EEC0E0EFC0E0EA7539
:10048E00F010A4CAABF075F04DA42BFBE435F0FCD4
:10049E00EA2410FAEB34C5FBEC34D9FCEDC2E7FFCD
:1004AE0075F056A4F42411C5F0F434C58FF0A42AC7
:1004BE00E5F03BE43CF620E714120571D0E0FFD0E6
:1004CE00E0FED0E0FDD0E0FC12020F8014F4041226
:1004DE000571D0E0FFD0E0FED0E0FDD0E0FC1201CF
:1004EE0006D0E0F8E6FAEDD2E7CD33EC332482FB0A
:1004FE00E4C3CF33CFCE33CECD33CD33DBF37B0757
:10050E0075F00A846004F6081B0AE5F0F6088FF011
:10051E00740AA4FFACF08EF0740AA42CFEACF0505A
:10052E00010C8DF0740AA42CFDE435F0F608DBDE28
:03053E007407221D
:10130700C202C203C204C205F9E4F532F533FCFD9B
:10131700FEFFE91001EA20040CB42D04D204D32205
:10132700B42B02D32224D0504794095041240A30C9
:101337000515F88533F0740AA42872E74051C5F003
:10134700704D85F033D322D203C0E0E4FBFA792055
:101357007841120106ECF8EDF9EEFAEFFBD0E0FC6C
:10136700E412032F1200153002B41532D322240AD7
:10137700200520B4FE0720021AD202D32224EB60F4
:101387000424E0700EA2049202D205C204D322C341
:101397000203CFE430050BE533300402F404A20264
:1013A70092043003EA253220D2E5A2E792055002E3
:1013B700F404B4260050D8CCC0E0EDC0E0EEC0E0A5
:1013C700EFC0E0EC120571D0E0FFD0E0FED0E0FD09
:1013D700D0E0FC200505120106800312020F30043D
:0613E700031203FEC32205
:1015490033DA929E35B16011377FE5FE39218489FE
:101559003AAEC3FF3C1D955B3D6358473E75FDF0B0
:101569003F3172183F800000C2D50203D90203CF70
:10157900BD80FA50F30203D6ED33EC330460F17BFE
:101589003B7AAA79B8783F120106ED33EC3392D54C
:10159900247B5011A2D570DB500BED4480240450FC
:1015A90004A2D580CEEFFBEEFAEDF9ECF812036355
:1015B900EFF582F404FC12032F120015C082901576
:1015C9004974091205C0ED33CC33D0F092D525F01A
:0A15D900A2D57001C313CC13FD224C
:100FB0003E9248DA3ECCCCCD3F2AAAAB400000009E
:100FC0003F8000003F9837F03FB504F33FD744FC23
:100FD0003E3172173EB172173F0515913EDE5BD967
:100FE000D20D8002C20DEDD2E7F8CD33EC330470A0
:100FF0000BBD800592D50203D90203CF40FBD31469
:1010000060F2F5F07C3FEE7A00C39496C8948B4072
:10101000230AC89469C8941A401A0AC89468C894E4
:101020001F40110AC8945AC89425400805F07A0058
:10103000CDC2E7CDC0F08C788D798E7A8F7BEA2394
:1010400023C0E024C0F582E4340FF5831206741245
:101050000015ECC0E0EDC0E0EEC0E0EFC0E012062D
:1010600064A878A979AA7AAB7B120011D0E0FBD0F2
:10107000E0FAD0E0F9D0E0B2E7F812020F8C788DF8
:10108000798E7A8F7B900FB074031205B1A878A97E
:1010900079AA7AAB7B120106D0E0600F24CCF582EE
:1010A000E4340FF5831206741200158C788D798E56
:1010B0007A8F7BD0E0C3947FFDE49400FC12032A76
:1010C0007B187A727931783F120106A878A979AA3B
:1010D0007AAB7B120015300D0B7BD97A5B79DE7809
:0510E0003E1201062292
:100541003F8000004120000042C80000447A0000C2
:10055100461C400047C35000497424004B18968044
:100561004CBEBC205A0E1BCA6753C21C749DC5AE3B
:10057100FB60065407601C232312059FEB5438606F
:100581000912058B12059A120106ECF8EDF9EEFA43
:10059100EFCB22EB12059A80F1543803241C90050D
:1005A10041FE93FC0EEE93FD0EEE930ECE93FF22D1
:1005B100C0E0EFFBEEFAEDF9ECF8120106D0E0F540
:1005C100F0EFFBEEFAEDF9ECF8120664A3A3A3A396
:1005D100E8C0E0E9C0E0EAC0E0EBC0E0C0F0120131
:1005E10006120674A3A3A3A3120015D0F0D0E0FB5A
:0D05F100D0E0FAD0E0F9D0E0F8D5F0D42247
:030000000215E303
:0C15E300787FE4F6D8FD75817F02162A9F
:1005FE00BB010689828A83E0225002E722BBFE02FB
:09060E00E32289828A83E493222D
:10061700BB010CE58229F582E5833AF583E0225098
:1006270006E92582F8E622BBFE06E92582F8E222E2
:0D063700E58229F582E5833AF583E49322FC
:10064400BB010689828A83F0225002F722BBFE0195
:02065400F3228F
:1019B000C2D5E830E70FB2D5E4C39BFBE49AFAE462
:1019C00099F9E498F8EC30E717B2D51219E6120845
:1019D00017E4C39BFBE49AFAE499F9E498F88003CE
:1019E00012081730D50DE4C39FFFE49EFEE49DFD71
:0419F000E49CFC2255
:0E065600C3E49FFFE49EFEE49DFDE49CFC22B5
:10066400E493FC740193FD740293FE740393FF22DC
:10067400E493F8740193F9740293FA740393FB22DC
:0C068400ECF0A3EDF0A3EEF0A3EFF022E9
:10069000FAE6FB0808E6F925F0F618E6CA3AF6226B
:1006A000D083D082F8E4937012740193700DA3A3E9
:1006B00093F8740193F5828883E4737402936860FD
:0606C000EFA3A3A380DFFD
:101AEE00EFB40A07740D121AF9740A309811A899F6
:101AFE00B8130CC2983098FDA899C298B811F63058
:071B0E0099FDC299F599222F
:101BDD00EFC394094005EF940E4003BF2003D3805B
:031BED0001C3220F
:1006C600E709F60870FA8046E709F20870FA803EF4
:1006D60088828C83E709F0A370FA807EE309F60826
:1006E60070FA8076E309F20870FA806E88828C834D
:1006F600E309F0A370FA806289828A83E0A3F60890
:1007060070FA805689828A83E0A3F20870FA804ADA
:1007160080D280FA80C680D4806580F280318010D5
:1007260080A680EA809A80A880DA80E280CA80313A
:1007360089828A83ECFAE493A3C8C582C8CCC583B0
:10074600CCF0A3C8C582C8CCC583CC70E9800D891E
:10075600828A83E493A3F60870F9ECFAA9F0EDFB1C
:100766002289828A83ECFAE0A3C8C582C8CCC583F5
:10077600CCF0A3C8C582C8CCC583CC70EA80DD891D
:10078600828A83E493A3F20870F980CE88F0ED2480
:1007960002B4040050C4F582EB2402B4040050BA3B
:0907A600232345822390071673FA
:101BB400E4FFFE1205FE600C0FEF70010E09E970E0
:051BC400F20A80EF228F
:1007AF00EF4E6012EF60010EEDBB010B89828A8361
:1007BF00F0A3DFFCDEFA2289F05007F709DFFCA96E
:0C07CF00F022BBFEFCF309DFFCA9F022C5
:1015EF00021BF0E493A3F8E493A34003F68001F207
:1015FF0008DFF48029E493A3F85407240CC8C333FD
:10160F00C4540F4420C8834004F456800146F6DFCB
:10161F00E4800B010204081020408090196AE47ED8
:10162F00019360BCA3FF543F30E509541FFEE493C0
:10163F00A360010ECF54C025E060A840B8E493A387
:10164F00FAE493A3F8E493A3C8C582C8CAC583CAB2
:10165F00F0A3C8C582C8CAC583CADFE9DEE780BE6A
:0119AF000037
:1007DB0075F008758200EF2FFFEE33FECD33CDCCD5
:1007EB0033CCC58233C5829BED9AEC99E582984058
:1007FB000CF582EE9BFEED9AFDEC99FC0FD5F0D635
:10080B00E4CEFBE4CDFAE4CCF9A88222B800C1B95E
:10081B000059BA002DEC8BF084CFCECDFCE5F0CB9C
:10082B00F97818EF2FFFEE33FEED33FDEC33FCEBD5
:10083B0033FB10D703994004EB99FB0FD8E5E4F990
:10084B00FA227818EF2FFFEE33FEED33FDEC33FC7D
:10085B00C933C910D7059BE99A4007EC9BFCE99A71
:10086B00F90FD8E0E4C9FAE4CCFB2275F010EF2FB6
:10087B00FFEE33FEED33FDCC33CCC833C810D707B6
:10088B009BEC9AE899400AED9BFDEC9AFCE899F8F1
:0E089B000FD5F0DAE4CDFBE4CCFAE4C8F92284
:00000001FF
