:10014100BE8CC238C5B0C8F6CC0CCEF7D1B7D450EE
:10015100D6C4D915DB44DD54DF46E11CE2D8E47B8B
:10016100E606E77BE8DCEA28EB62EC8AEDA2EEAA80
:10017100EFA3F08EF16CF23DF303F3BEF46EF514D0
:10018100F5B1F645F6D1F755F7D1F847F8B6F91FAD
:10019100F982F9DFFA37FA8AFAD9FB23FB68FBAA5D
:1001A100FBE9FC24FC5BFC8FFCC1FCEFFD1BFD4566
:1001B100FD6CFD91FDB4FDD5FDF4FE12FE2DFE4852
:1001C100FE60FE78FE8EFEA3FEB6FEC9FEDAFEEBF1
:1001D100FEFAFF09FF17FF24FF30FF3CFF47FF51E5
:1001E100FF5BFF64FF6DFF75FF7DFF84FF8BFF9257
:1001F1000D080E080F04110410040F0810080C0458
:1002010010040F040D080E080F04110410040F044C
:10021100110200040D080E080F0411041004130844
:1002210010081208111010101010110810101010E1
:100231000F050D080E080F04110410040F040F011F
:02024100FF00BC
:10042D00203F0D282A2C2D2F3133343638393B3DC2
:10043D003F4042444547494B00000000000000008A
:10044D00000000000000000000000000002A2C2E1B
:10045D002F31333536383A3B3D3F414244464749CB
:10046D004B4D014D02014C00020A006402080000D0
:10050F007D007C12E4FF1202F3E4FDFC7F01120276
:05051F00F3D28C80FE08
:03000B00020243AB
:10024300C0E0C0F0C083C082C0D075D000C000C081
:0902530003C004C005C006C00789
:10025C00758A00758CEE0509E50970020508E50B39
:10026C0024FFFFE50A34FFFEEFB50908EEB50804DC
:10027C00C28E805CC3E509950BE508950A40517563
:10028C000800750900E54C25E024F1F582E4340101
:10029C00F583E493FBF46034E54C25E024F2F5821D
:1002AC00E43401F583E493FD7C007E017FF41200BD
:1002BC001E8E0A8F0BEB6010FFE54D75F015A42414
:1002CC000C2FF8E6F50CD28E054C8004C28CC28E35
:1002DC00D007D006D005D004D003D000D0D0D08227
:0702EC00D083D0F0D0E03216
:03001B000204C21A
:1004C200C0E0C083C082C0D0E50C25E02442F582A2
:1004D200E43401F583E493F58BE50C25E02441F542
:1004E20082E43401F583E493F58DB293D0D0D082C7
:0504F200D083D0E032D0
:1002F3008C4E8D4FEF1460560460030203A04389B4
:1003030001AE4EAF4FAB07AA06E4C39BFFE49AFED0
:1003130074019400FDE49400FCE4FB7A01F9F81203
:10032300047EAF038F8AAE4EAF4FAB07AA06E4C37A
:100333009BFFE49AFE74019400FDE49400FCE4FB4B
:100343007A01F9F812047E8F8CD2AFD2A9224389A5
:1003530010AE4EAF4FAB07AA06E4C39BFFE49AFE71
:1003630074019400FDE49400FCE4FB7A01F9F812B3
:10037300047EAF038F8BAE4EAF4FAB07AA06E4C329
:100383009BFFE49AFE74019400FDE49400FCE4FBFB
:0E0393007A01F9F812047E8F8DD2AFD2AB2220
:0B000E00EF1FAC0670011E4C70F622C4
:1004F700AB07AA06EB1BAE0270011A4E60097F64B8
:080507007E0012000E80ED22BF
:030000000203A157
:0C03A100787FE4F6D8FD75814F0203E878
:10001E00BC000BBE0029EF8DF084FFADF022E4CCC6
:10002E00F875F008EF2FFFEE33FEEC33FCEE9DEC8F
:10003E00984005FCEE9DFE0FD5F0E9E4CEFD22EDD5
:10004E00F8F5F0EE8420D21CFEADF075F008EF2F1F
:10005E00FFED33FD4007985006D5F0F222C398FD10
:05006E000FD5F0EA22AD
:10047E00C2D5E830E70FB2D5E4C39BFBE49AFAE4A9
:10048E0099F9E498F8EC30E717B2D51204B41200DB
:10049E00AFE4C39BFBE49AFAE499F9E498F880037D
:1004AE001200AF30D50DE4C39FFFE49EFEE49DFD28
:0404BE00E49CFC229C
:1003AD0002050FE493A3F8E493A34003F68001F252
:1003BD0008DFF48029E493A3F85407240CC8C33351
:1003CD00C4540F4420C8834004F456800146F6DF20
:1003DD00E4800B010204081020408090042DE47E7F
:1003ED00019360BCA3FF543F30E509541FFEE49315
:1003FD00A360010ECF54C025E060A840B8E493A3DC
:10040D00FAE493A3F8E493A3C8C582C8CAC583CA06
:10041D00F0A3C8C582C8CAC583CADFE9DEE780BEBE
:01047D00007E
:1000730075F008758200EF2FFFEE33FECD33CDCC44
:1000830033CCC58233C5829BED9AEC99E5829840C7
:100093000CF582EE9BFEED9AFDEC99FC0FD5F0D6A4
:1000A300E4CEFBE4CDFAE4CCF9A88222B800C1B9CE
:1000B3000059BA002DEC8BF084CFCECDFCE5F0CB0C
:1000C300F97818EF2FFFEE33FEED33FDEC33FCEB45
:1000D30033FB10D703994004EB99FB0FD8E5E4F900
:1000E300FA227818EF2FFFEE33FEED33FDEC33FCED
:1000F300C933C910D7059BE99A4007EC9BFCE99AE1
:10010300F90FD8E0E4C9FAE4CCFB2275F010EF2F25
:10011300FFEE33FEED33FDCC33CCC833C810D70725
:100123009BEC9AE899400AED9BFDEC9AFCE899F860
:0E0133000FD5F0DAE4CDFBE4CCFAE4C8F922F3
:00000001FF
