:0A01B1000809000000000000000033
:0B01A600EF1FAC0670011E4C70F6222B
:0D019900A8077401088002C333D8FCFF22C0
:10015600E4FEEEC39408748094805018EFC4131321
:1001660013540124FF92B4EF25E0FFC2B600D2B6C5
:0A017600000E80DEC2B500D2B50015
:01018000225C
:0801BC007580FFE4FF0201560B
:10018100AE05120199EFF4F580AF061201567F64B6
:080191007E001201A60201BC70
:10012A00EF540314600E14600F1460102403701B44
:10013A001514800A15138006051480020513AF14DE
:0C014A0012019974092513F8EF26F62223
:1000F500751304751404751201E4F508F511FEEE87
:10010500C3940874809480501BEEB5130EAF14127F
:10011500019974092513F8A607800674092EF8E4D9
:04012500F60E80DB77
:0101290022B3
:10008F00E4FB1200F5E4FAEAC394087480948050FC
:10009F000EAF0274092AF8E6FD1201810A80E80505
:1000AF0008D3E508941E74809480401AE4F508AFD5
:1000BF001112012A0BE511C31304F512EBC39512AC
:1000CF0040040511E4FBE51370BBE514640870B53B
:1000DF007F107E271201A61201BC7F507EC3120132
:0600EF00A61200F5809F3F
:03000000020003F8
:0C000300787FE4F6D8FD75811402004AF5
:10000F0002008FE493A3F8E493A34003F68001F278
:10001F0008DFF48029E493A3F85407240CC8C333F2
:10002F00C4540F4420C8834004F456800146F6DFC1
:10003F00E4800B01020408102040809001B1E47E9F
:10004F00019360BCA3FF543F30E509541FFEE493B6
:10005F00A360010ECF54C025E060A840B8E493A37D
:10006F00FAE493A3F8E493A3C8C582C8CAC583CAA8
:10007F00F0A3C8C582C8CAC583CADFE9DEE780BE60
:0101BB000043
:00000001FF
