:100B51000808FFE6C8B49678643C0810C81EE65041
:0E0B6100321400A00818D278148CFADC7850F8
:0F0CBD00E4F564FBFD7F01120B8B120C4480FEEB
:100B6F00580000000000000000000000000000001E
:0B0B7F0000000000000000000000006B
:090CE200C2A17F057E00020CCCCA
:100B8B00EF75F003A424FDF582E434FFF583EDF05B
:100B9B00EF75F003A424FEF582E434FFF583EBF04C
:100BAB00EF75F003A424FFF582E434FFF583E564CD
:020BBB00F02226
:100C67009000037D00EF75F003A424FDF974FF35B0
:0B0C7700F0FA7B01AE83AF8202051B88
:100C9A007E007F187D007B017A00790012051B0215
:020CAA000C44F8
:030CAC005480FF72
:0E0CAF00EF6006D2A100C2A122D2A1C2A122F2
:1009B60012048DFE9000011204A6FD90000212049E
:1009C600A6FCED120CACED5440FF120CAFED54201A
:1009D600FF120CAFED5410FF120CAFED5408FF12CE
:1009E6000CAFED5404FF120CAFED5402FF120CAF26
:1009F600ED5401FF120CAFEE120CACEE5440FF1298
:100A06000CAFEE5420FF120CAFEE5410FF120CAFD9
:100A1600EE5408FF120CAFEE5404FF120CAFEE5466
:100A260002FF120CAFEE5401FF120CAFEC5480FF24
:100A3600120CAFEC5440FF120CAFEC5420FF120C1A
:100A4600AFEC5410FF120CAFEC5408FF120CAFECD5
:100A56005404FF120CAFEC5402FF120CAFEC54011D
:040A6600FF020CAFD0
:100C4400120CE2E4F561E56175F003A42400F97483
:100C54000035F0FA7B011209B60561E561C3940819
:020C640040E46A
:010C6600226B
:060AF6008B508A51895269
:100AFC00E4F55BE55B04FFAB50AA51A952855B8220
:100B0C007583001204A6FDAB53AA54A955855B82CC
:100B1C007583001204A6FBC003AB56AA57A95885CF
:100B2C005B827583001204A6F564D003120B8B1242
:100B3C000C44AF5AAE59120C82055BE55BC39408AA
:050B4C0040B1020C9A0B
:0B0CD700256400257500252E2A66000C
:0B0CCC00EF1FAC0670011E4C70F622FA
:100C8200AB07AA06EB1BAE0270011A4E60097F6425
:080C92007E00120CCC80ED2263
:040BBD008E658F664C
:100BC10030090B7525FF75260C7527D7800975250A
:100BD100FF75260C7527DA8565288566297B007ADD
:0C0BE10000793E1205A37B007A00793EEB
:010BED0022E5
:080BEE008F5F8E5E8D5D8C5C53
:100BF6007525FF75260C7527DD7528008560298FFC
:100C06002D8E2C8D2B8C2A7B007A0079461205A31B
:060C16007B007A00794624
:010C1C0022B5
:10054700E5392425F8E6053922782230070278258F
:10055700E475F0011204E502048D2000EB7F2ED232
:10056700008018EF540F2490D43440D4FF30040B8C
:10057700EF24BFB41A0050032461FFE53A60021567
:100587003A053DE53D7002053C30070D7822E475DC
:10059700F0011204E5EF0204D3020C1D7403D20725
:1005A7008003E4C207F5398B228A238924E4F53ACC
:1005B700F53CF53DE53A60077F2012058280F57529
:1005C7003BFFC201C200C202C203C205C206C20883
:1005D700120550FF700D3007057F00120593AF3DE0
:1005E700AE3C22B4255FC2D5C204120550FF24D009
:1005F700B40A00501A75F00A783A30D50508B6FFE4
:100607000106C6A426F620D5047002D20380D92499
:10061700CFB41A00EF5004C2E5D204020880D20119
:1006270080C6D20080C0D20280BCD2D580BAD205A3
:1006370080B47F201205822002077401B53A00407A
:10064700F1120547FF1205820205BBD208D20680C8
:1006570095120547FB120547FA120547F94A4B70F1
:100667000679777A097BFF20022EE53A602A7E0019
:100677008E827583001204A660060EEE653B70F04D
:10068700C2D5EBC0E0EAC0E0E9C0E0EE1208E0D076
:10069700E0F9D0E0FAD0E0FB12048DFF60AAEBC0CE
:1006A700E0EAC0E0E9C0E0120582D0E02401F9D019
:1006B700E03400FAD0E0FBE53B0460DCD53BD980B1
:1006C70087D20280A21208C360F7E53B70010412CB
:1006D7000003A93B600DE53B600914F53B12096A6D
:1006E700EF60F3EA30E702F404C3995077EAF425A0
:1006F7003B0430E701E404F53B800D1208C360C1F9
:10070700EA053B253B120003EA7838F630E701E4B7
:10071700253B04D53B04200501141208E0E4C0E0A2
:1007270012096A7838E6601320E70714F612056A9B
:10073700802204F6D0E014C0E07F0012056AE53B92
:100747006007120561153B800B300503120561D068
:10075700E00205BBD0E00480C51208C360A0E53BFA
:10076700041200037838EAF6E53B2005026001042D
:0507770024041208E05B
:10077C0074FF04C0E012096A12056AE53B20050209
:10078C006003120561D0E0B53BE87F451205747833
:10079C0038E67F2B30E7047F2DF404C0E01205828D
:1007AC00D0E075F00A84C0F012056BD0E012056B36
:1007BC000205BB791080027908C206C2088008D2F3
:1007CC00D5790A8004790AC2D5E53B047002F53B61
:1007DC00E4FAFDFEFF120547FC7B0820011312050D
:1007EC0047FD7B1030000A120547FE120547FF7BC0
:1007FC0020EC3382D592D55013C3E43000069FFF12
:10080C00E49EFEE42001039DFDE49CFCE4CBF8C2D5
:10081C0001EC700CCFCECDCCE824F8F870F3801737
:10082C00C3EF33FFEE33FEED33FDEC33FCEB33FB68
:10083C00994002FB0FD8E9EB300105F8D0E0C44831
:10084C00B201C0E00AEC4D4E4F78207B0070C2EA3A
:10085C00B53B0040BCC0E01208E2D0F0D0E0200173
:10086C0004C4C0E0C4B201C0F012056BD0F0D5F0E6
:10087C00EB0205BB1204F506585307BF5806294C6A
:10088C0006254207C34F07CB4407CB49063E430717
:10089C00D15507024607604506CC47099750062DEF
:1008AC002D06312E06542B06352306522009802A9C
:1008BC0005ED480000064CE53BB4FF03753B061202
:1008CC000547FC120547FD120547FE120547FF7848
:1008DC0031020032790AA2D5200314300509B9106F
:1008EC00020404B9080104A2D52006025001042018
:1008FC0002689202B53A005034C0E07F20300319F0
:10090C007F30A20272067205500F120939C202C260
:10091C0006C205C2087F30800F300503E9C0E01223
:10092C000582300503D0E0F9D0E0B53ACC3005179C
:10093C007F30B9100C1205827F583004077F788005
:10094C0003B908031205823002057F2D0205827F50
:10095C00202008F87F2B2006F322920280CF7F0004
:10096C00B4070050052431F8E6FF22286E756C6C34
:10097C002900D2011205473001F8C201783A30D56E
:10098C000108F60205ED2D50434958120547240382
:10099C00B405004001E490099293120573743A1265
:0A09AC000573D203753A040207BF79
:10000300F920E72824F950037907E4F42402FB18C4
:10001300DBFDE624FB5014E9600DE4F618E604F674
:0F002300B40A08E4F6D9F57401F60A22C2D52210
:10003200ED33EC3392D5FA602AB4FF33EDC2E77B9D
:10004200FF60067A007957E4227A00796020D504AD
:100052007A00795B224E614E002B494E46002D49B3
:100062004E4600E47A08F608DAFC7B00740722E8C0
:10007200C0E0ECC0E0EDC0E0EEC0E0EFC0E0EA7549
:10008200F010A4CAABF075F04DA42BFBE435F0FCE4
:10009200EA2410FAEB34C5FBEC34D9FCEDC2E7FFDD
:1000A20075F056A4F42411C5F0F434C58FF0A42AD7
:1000B200E5F03BE43CF620E714120403D0E0FFD065
:1000C200E0FED0E0FDD0E0FC1203368014F404120E
:1000D2000403D0E0FFD0E0FED0E0FDD0E0FC12024D
:1000E2002DD0E0F8E6FAEDD2E7CD33EC332482FBF3
:1000F200E4C3CF33CFCE33CECD33CD33DBF37B0767
:1001020075F00A846004F6081B0AE5F0F6088FF021
:10011200740AA4FFACF08EF0740AA42CFEACF0506A
:10012200010C8DF0740AA42CFDE435F0F608DBDE38
:030132007407222D
:10013500020478E86480F8E933E83360110460F07C
:10014500ED33EC337009E8FCE9FDEAFEEBFF220430
:1001550060DED3EB9FEA9EE99DE8C2E78CF0C2F72B
:1001650095F0400CE8CCF8E9CDF9EACEFAEBCFFBF7
:1001750012044385D0F05804700320D5B3E8047009
:10018500075002B2D502048292D5EC0460F7E4CCA4
:10019500C0E0C398F8603B94186008400DD0E0FBC0
:1001A50002045AE4FBFAC9FC8028E830E406E4C9F5
:1001B500FBE4CAFCE830E305E4C9CACBFCE8540714
:1001C5006010F8C3E913F9EA13FAEB13FBEC13FC1F
:1001D500D8F130F52FC3E49CFCEF9BFFEE9AFEEDC2
:1001E50099FDD0E0FBEF4E4D4C701222DB0302046B
:1001F5007FEC2CFCEF33FFEE33FEED33FDED30E706
:10020500EB02045AEF2BFFEE3AFEED39FDD0E0FB91
:1002150050130BBB0003020482ED13FDEE13FEEF3A
:0802250013FFEC13FC02045A64
:10022D00EC4D6011E8497017ED33EC3304600DE4CB
:10023D00FCFFFEFD22E933E8330470F80204781266
:10024D00044358046009E4CC248150062850090267
:10025D00048228400302047FC0E0EB4A7044B98059
:10026D0006D0E0FB02046EEF4E701CBD8008EBFF64
:10027D00EAFEE9FD80EBE98DF0A4FEE5F002031640
:10028D00E9CDF9EAFEEBFFEF89F0A4FCE5F0CE89AC
:10029D00F0A42EFFE435F0CD89F0A42DFEE435F069
:1002AD008067EF4E7005BD80D780C3EF8BF0A4AC97
:1002BD00F0EE8BF0A42CFCE435F0F8EF8AF0A42CD2
:1002CD00E5F038FCE433CB8DF0A42CFCE5F03BF8E5
:1002DD00EE8AF0A42CFCE5F038F8E433CF89F0A4D5
:1002ED002CFCE5F038CF3400CE89F0A42FFFE5F0DB
:1002FD003EFEE433C98DF0A42EFEE5F039CD8AF033
:10030D00A42FFFE5F03EFEE43DFD33D0E0FB5007AA
:10031D000BBB000F020482EC2CFCEF33FFEE33FE1F
:06032D00ED33FD02045A4D
:10033300020482EC5D046005E8590470030204784A
:10034300120443580460F6EC4860F2EC7004FDFEBE
:10035300FF22C860DB2481C85009C398600250069D
:1003630002047F9850CAF582E9294B4A7005AB8293
:1003730002046E75F0007C1A7880C3EF9BEE9AED51
:1003830099400DC3EF9BFFEE9AFEED99FDE842F015
:10039300DC23ACF0D0E0FFD0E0FED0E0FDAB822068
:1003A300E7101BEB60BAEC2CFCEF33FFEE33FEEDF2
:1003B30033FD02045AE803F830E705C0F075F00096
:1003C300EF2FFFEE33FEED33FD40B830E7C280AAD6
:1003D3003F8000004120000042C80000447A000032
:1003E300461C400047C35000497424004B189680B4
:1003F3004CBEBC205A0E1BCA6753C21C749DC5AEAB
:10040300FB60065407601C2323120431EB5438604D
:100413000912041D12042C12022DECF8EDF9EEFA68
:10042300EFCB22EB12042C80F1543803241C9003ED
:10043300D3FE93FC0EEE93FD0EEE930ECE93FF22AE
:10044300E9D2E7C933E833F892D5EDD2E7CD33ECFF
:0704530033FC5002B2D52278
:10045A00EC30E7100FBF000C0EBE00080DBD000403
:10046A000BEB6014A2D5EB13FCED92E7FD2274FFAF
:10047A00FCFDFEFF22E480F8A2D574FF13FC7D8008
:03048A00E480EF1C
:03000000020A6A87
:0C0A6A00787FE4F6D8FD758166020AB1C1
:10048D00BB010689828A83E0225002E722BBFE026D
:09049D00E32289828A83E49322A0
:1004A600BB010CE58229F582E5833AF583E022500B
:1004B60006E92582F8E622BBFE06E92582F8E22255
:0D04C600E58229F582E5833AF583E493226F
:1004D300BB010689828A83F0225002F722BBFE0108
:0204E300F32202
:1004E500FAE6FB0808E6F925F0F618E6CA3AF62218
:1004F500D083D082F8E4937012740193700DA3A396
:1005050093F8740193F5828883E4737402936860A9
:06051500EFA3A3A380DFA9
:100C1D00EFB40A07740D120C28740A309811A899B4
:100C2D00B8130CC2983098FDA899C298B811F63037
:070C3D0099FDC299F599220F
:10051B00EF4E6012EF60010EEDBB010B89828A83F7
:10052B00F0A3DFFCDEFA2289F05007F709DFFCA904
:0C053B00F022BBFEFCF309DFFCA9F0225B
:100A7600020CBDE493A3F8E493A34003F68001F2CD
:100A860008DFF48029E493A3F85407240CC8C33381
:100A9600C4540F4420C8834004F456800146F6DF50
:100AA600E4800B0102040810204080900B51E47E84
:100AB600019360BCA3FF543F30E509541FFEE49345
:100AC600A360010ECF54C025E060A840B8E493A30C
:100AD600FAE493A3F8E493A3C8C582C8CAC583CA37
:100AE600F0A3C8C582C8CAC583CADFE9DEE780BEEF
:010B8A00006A
:00000001FF
