:0B115A007D017FC77ECF1210B080F532
:1010D3002564003F065B4F666D7D077F6F777C5805
:1010E3005E797176300E38543F7367506D3E3E6EB5
:0110F30040BC
:10112300C374089FFF1392A2EFC313FF1392A3EF9D
:05113300C3131392A498
:011138002294
:100D6A00EF1206890E6B2D0E05300E05310E053277
:100D7A000E05330E05340E05350E05360E05370EF3
:100D8A0005380E05390E0C410E11420E16430E1B84
:100D9A00440E20450E25460E2A480E2F490E344A87
:100DAA000E394C0E3E4E0E434F0E48500E4D510E0C
:100DBA0052520E57530E5C550E61560E66590E0C62
:100DCA00610E11620E16630E1B640E20650E2566F7
:100DDA000E2A680E2F690E346A0E396C0E3E6E0E9C
:100DEA00436F0E48700E4D710E52720E57730E5CA1
:100DFA00750E61760E667900000E72EF9010A6935A
:100E0A00FF229010E0805D9010E180589010E280FF
:100E1A00539010E3804E9010E480499010E580448E
:100E2A009010E6803F9010E7803A9010E880359065
:100E3A0010E980309010EA802B9010EB80269010F9
:100E4A00EC80219010ED801C9010EE80179010EF2E
:100E5A0080129010F0800D9010F180089010F280AE
:0B0E6A00039010F3E493FF227F0022AE
:10110C00AE05AD07AF06121123AF05120D6A8F8025
:07111C003000034380802234
:080FBD008B298A2A892B8D2C57
:100FC500E4F52EC37409952CFFE52EC39F506BAB3A
:100FD50029AA2AA92B852E8275830012060C605A30
:100FE500B42E04152C804FE52E2401FFE433FE7C3E
:100FF50000EFB52D1DECB50619AB29AA2AA92B853D
:101005002E8275830012060CFFE52C252EFDD200DD
:101015008017AB29AA2AA92B852E82758300120673
:101025000CFFE52C252EFDC20012110C7F017E0060
:0A1035001210F4E4F580052E808906
:01103F00228E
:081040008B238A2489258D26EB
:10104800E4F527F528AB23AA24A9258527827583EB
:101058000012060CFF6008642E6004052780E6ABCA
:1010680023AA24A925121139C3E5279FE49E50031A
:10107800852728AB23AA24A92585282DAD26020F6C
:01108800BDAA
:0210B0008D228F
:1010B2007526FF7527107528D38E298F2A7B017A12
:1010C20000790A12070B7B017A00790AAD2202101D
:0110D20040DD
:080E75008F158E148D138C12F1
:100E7D00AC16E41202848F0F8E0E8D0D8C0C7F003C
:100E8D007E007D207C41120C53AB15AA14A913A82A
:100E9D00121200FBC004C005C006C007E4FFFEFD32
:100EAD00FCAB15AA14A913A812120201600B40097C
:100EBD00E4FFFE7D807C3F8007E4FFFE7D807CBFEC
:100ECD00E4FBFAF9783F1200FBD003D002D001D039
:100EDD000012000A1202B87526FF7527107528D367
:100EED008E298F2A7B017A00790012070BE5166097
:100EFD00147B017A007900121139C3EF9516FFEEBC
:100F0D009400FE80047E007F008F2D7B017A007996
:060F1D0000AD17020FBD3C
:0B116500EF1FAC0670011E4C70F6225C
:1010F400AB07AA06EB1BAE0270011A4E60097F64AF
:081104007E0012116580ED224E
:10000300020324E86480F8E933E83360110460F004
:10001300ED33EC337009E8FCE9FDEAFEEBFF220463
:1000230060DED3EB9FEA9EE99DE8C2E78CF0C2F75E
:1000330095F0400CE8CCF8E9CDF9EACEFAEBCFFB2A
:100043001202EF85D0F05804700320D5B3E8047092
:10005300075002B2D502032E92D5EC0460F7E4CC2C
:10006300C0E0C398F8603B94186008400DD0E0FBF3
:10007300020306E4FBFAC9FC8028E830E406E4C97D
:10008300FBE4CAFCE830E305E4C9CACBFCE8540747
:100093006010F8C3E913F9EA13FAEB13FBEC13FC52
:1000A300D8F130F52FC3E49CFCEF9BFFEE9AFEEDF5
:1000B30099FDD0E0FBEF4E4D4C701222DB0302039F
:1000C3002BEC2CFCEF33FFEE33FEED33FDED30E78D
:1000D300EB020306EF2BFFEE3AFEED39FDD0E0FB1A
:1000E30050130BBB000302032EED13FDEE13FEEFC3
:0800F30013FFEC13FC020306ED
:1000FB00EC4D6011E8497017ED33EC3304600DE4FF
:10010B00FCFFFEFD22E933E8330470F802032412EE
:10011B0002EF58046009E4CC2481500628500902F0
:10012B00032E28400302032BC0E0EB4A7044B98036
:10013B0006D0E0FB02031AEF4E701CBD8008EBFFEC
:10014B00EAFEE9FD80EBE98DF0A4FEE5F00201E4A7
:10015B00E9CDF9EAFEEBFFEF89F0A4FCE5F0CE89DF
:10016B00F0A42EFFE435F0CD89F0A42DFEE435F09C
:10017B008067EF4E7005BD80D780C3EF8BF0A4ACCA
:10018B00F0EE8BF0A42CFCE435F0F8EF8AF0A42C05
:10019B00E5F038FCE433CB8DF0A42CFCE5F03BF818
:1001AB00EE8AF0A42CFCE5F038F8E433CF89F0A408
:1001BB002CFCE5F038CF3400CE89F0A42FFFE5F00E
:1001CB003EFEE433C98DF0A42EFEE5F039CD8AF066
:1001DB00A42FFFE5F03EFEE43DFD33D0E0FB5007DE
:1001EB000BBB000F02032EEC2CFCEF33FFEE33FEA8
:0601FB00ED33FD020306D6
:1002010074F8CC6480CCC86480C8F58204604FC3A4
:10021100EB9FF5F0EA9E42F0E99D42F0E89C45F043
:10022100603C501DE5825FFFE582D313CB5BCBF4CD
:100231002B5582FB50280ABA002409B900200880F6
:100241001DE5825BFBE582D313CF5FCFF4C3132F90
:100251005582FF50090EBE00050DBD00010CC3EB18
:100261009FF5F0EA9E42F0E99D42F0E89C45F0607E
:0902710007CC4820E701B3EC22A0
:10027A0075F020800E75F010800575F0087D007EFF
:10028A00007F003392D530D50312064BEC33401071
:10029A00EF33FFEE33FEED33FDEC33FCD5F0ED2208
:0E02AA00E5F0247EA2D513CC92E7CDCEFF2244
:1002B800EDD2E7CD33EC3392D524814006E4FFFE3E
:1002C800FDFC22FCE4CFCECDCC24E0501174FF809D
:1002D800EDC3CC13CCCD13CDCE13CECF13CF04703A
:0702E800F030D5DE02064BE9
:1006AF00E53A2426F8E6053A227823300702782621
:1006BF00E475F0011206790205F32000EB7F2ED2CC
:1006CF00008018EF540F2490D43440D4FF30040B23
:1006DF00EF24BFB41A0050032461FFE53B600215FD
:1006EF003B053EE53E7002053D30070D7823E4756E
:1006FF00F001120679EF0206390210897403D2074E
:10070F008003E4C207F53A8B238A248925E4F53B5D
:10071F00F53DF53EE53B60077F201206EA80F57553
:10072F003CFFC201C200C202C203C205C206C20818
:10073F001206B8FF700D3007057F001206FBAF3EA3
:10074F00AE3D22B4255FC2D5C2041206B8FF24D035
:10075F00B40A00501A75F00A783B30D50508B6FF79
:10076F000106C6A426F620D5047002D20380D92430
:10077F00CFB41A00EF5004C2E5D2040209E8D20147
:10078F0080C6D20080C0D20280BCD2D580BAD2053A
:10079F0080B47F201206EA2002077401B53B0040A7
:1007AF00F11206AFFF1206EA020723D208D2068023
:1007BF00951206AFFB1206AFFA1206AFF94A4B704D
:1007CF000679DF7A0A7BFF20022EE53B602A7E0046
:1007DF008E8275830012060C60060EEE653C70F07B
:1007EF00C2D5EBC0E0EAC0E0E9C0E0EE120A48D0A3
:1007FF00E0F9D0E0FAD0E0FB1205F3FF60AAEBC0FE
:10080F00E0EAC0E0E9C0E01206EAD0E02401F9D046
:10081F00E03400FAD0E0FBE53C0460DCD53CD98045
:10082F0087D20280A2120A2B60F7E53C70010412F6
:10083F000364A93C600DE53C600914F53C120AD233
:10084F00EF60F3EA30E702F404C3995077EAF42536
:10085F003C0430E701E404F53C800D120A2B60C123
:10086F00EA053C253C120364EA7839F630E701E4E7
:10087F00253C04D53C0420050114120A48E4C0E0CD
:10088F00120AD27839E6601320E70714F61206D25F
:10089F00802204F6D0E014C0E07F001206D2E53CBF
:1008AF0060071206C9153C800B3005031206C9D02C
:1008BF00E0020723D0E00480C5120A2B60A0E53CBC
:1008CF00041203647839EAF6E53C2005026001045E
:0508DF002404120A4888
:1008E40074FF04C0E0120AD21206D2E53C200502CD
:1008F40060031206C9D0E0B53CE87F451206DC78F7
:1009040039E67F2B30E7047F2DF404C0E01206EAB9
:10091400D0E075F00A84C0F01206D3D0E01206D3FA
:10092400020723791080027908C206C2088008D21F
:10093400D5790A8004790AC2D5E53C047002F53CF5
:10094400E4FAFDFEFF1206AFFC7B08200113120639
:10095400AFFD7B1030000A1206AFFE1206AFFF7B1C
:1009640020EC3382D592D55013C3E43000069FFFA8
:10097400E49EFEE42001039DFDE49CFCE4CBF8C26C
:1009840001EC700CCFCECDCCE824F8F870F38017CE
:10099400C3EF33FFEE33FEED33FDEC33FCEB33FBFF
:1009A400994002FB0FD8E9EB300105F8D0E0C448C8
:1009B400B201C0E00AEC4D4E4F78207B0070C2EAD1
:1009C400B53C0040BCC0E0120A4AD0F0D0E020019F
:1009D40004C4C0E0C4B201C0F01206D3D0F0D5F014
:1009E400EB02072312068907C05309275807914CC5
:1009F400078D42092B4F09334409334907A643099C
:100A04003955086A4608C8450834470AFF5007950F
:100A14002D07992E07BC2B079D2307BA200AE82A25
:100A2400075548000007B4E53CB4FF03753C0612C3
:100A340006AFFC1206AFFD1206AFFE1206AFFF783A
:100A440032020393790AA2D5200314300509B910A0
:100A5400020404B9080104A2D520060250010420AE
:100A640002689202B53B005034C0E07F2030031985
:100A74007F30A20272067205500F120AA1C202C28E
:100A840006C205C2087F30800F300503E9C0E012BA
:100A940006EA300503D0E0F9D0E0B53BCC300517C9
:100AA4007F30B9100C1206EA7F583004077F788033
:100AB40003B908031206EA3002057F2D0206EA7F15
:100AC400202008F87F2B2006F322920280CF7F009B
:100AD400B4070050052432F8E6FF22286E756C6CCA
:100AE4002900D2011206AF3001F8C201783B30D59B
:100AF4000108F60207552D504349581206AF240346
:100B0400B405004001E4900AFA931206DB743A1229
:0A0B140006DBD203753B040209273B
:100C53008F0B8E0A8D098C08E4FFFE7D807C3FABF1
:100C63000BAA0AA909A8081202017009AF0BAE0A60
:100C7300AD09AC0822AF0BAE0AAD09AC08120339BB
:100C8300FBAF0FAE0EAD0DAC0C120339FFBF010865
:100C9300E4FFFE7D807C3F22EF64046022EB64046A
:100CA300601DBB0127E4FFFEFDFCAB0FAA0EA90DDF
:100CB300A80C12020160084006E4FFFEFDFC22744A
:100CC300FFF50FF50EF50DF50C020D61E4F510F5CA
:100CD30011FFFEFDFCAB0BAA0AA909A80812020129
:100CE300504BAF0FAE0EAD0DAC0C1202B88E108F81
:100CF30011AC10AD11EC12027FC8ECC8C9EDC9CA22
:100D0300EECACBEFCBAF0FAE0EAD0DAC0C1200069F
:100D1300E4FBFAF9F812020170A5AF0BAE0AAD09B4
:100D2300AC081203538F0B8E0A8D098C08AF0BAEE0
:100D33000AAD09AC08120B52AB0FAA0EA90DA80CF1
:100D43001200FB120F5B8F0F8E0E8D0D8C0CE511B5
:100D530030E00B1203538F0F8E0E8D0D8C0CAF0FE3
:070D6300AE0EAD0DAC0C2239
:1002EF00E9D2E7C933E833F892D5EDD2E7CD33EC55
:0702FF0033FC5002B2D522CE
:10030600EC30E7100FBF000C0EBE00080DBD000458
:100316000BEB6014A2D5EB13FCED92E7FD2274FF04
:10032600FCFDFEFF22E480F8A2D574FF13FC7D805D
:03033600E480EF71
:10033900ED33EC33601004700FED547F70057402D7
:0A03490092E0227404220422E42250
:10035300ED33EC33600A047003BD8004ECB2E7FCB8
:010363002277
:10036400F920E72824F950037907E4F42402FB1860
:10037400DBFDE624FB5014E9600DE4F618E604F610
:0F038400B40A08E4F6D9F57401F60A22C2D522AC
:10039300ED33EC3392D5FA602AB4FF33EDC2E77B39
:1003A300FF60067A0379B8E4227A0379C120D50481
:1003B3007A0379BC224E614E002B494E46002D49EB
:1003C3004E4600E47A08F608DAFC7B00740722E85C
:1003D300C0E0ECC0E0EDC0E0EEC0E0EFC0E0EA75E5
:1003E300F010A4CAABF075F04DA42BFBE435F0FC80
:1003F300EA2410FAEB34C5FBEC34D9FCEDC2E7FF79
:1004030075F056A4F42411C5F0F434C58FF0A42A72
:10041300E5F03BE43CF620E714120566D0E0FFD09C
:10042300E0FED0E0FDD0E0FC1204998014F4041245
:100433000566D0E0FFD0E0FED0E0FDD0E0FC120086
:10044300FBD0E0F8E6FAEDD2E7CD33EC332482FBC0
:10045300E4C3CF33CFCE33CECD33CD33DBF37B0702
:1004630075F00A846004F6081B0AE5F0F6088FF0BD
:10047300740AA4FFACF08EF0740AA42CFEACF05006
:10048300010C8DF0740AA42CFDE435F0F608DBDED4
:03049300740722C9
:100F230033DA929E35B16011377FE5FE392184892A
:100F33003AAEC3FF3C1D955B3D6358473E75FDF0DC
:100F43003F3172183F800000C2D502032E020324F2
:100F5300BD80FA50F302032BED33EC330460F17BD5
:100F63003B7AAA79B8783F1200FBED33EC3392D584
:100F7300247B5011A2D570DB500BED448024045028
:100F830004A2D580CEEFFBEEFAEDF9ECF81202B82D
:100F9300EFF582F404FC12028412000AC082900F5F
:100FA3002374091205B5ED33CC33D0F092D525F077
:0A0FB300A2D57001C313CC13FD2278
:100B1E003E9248DA3ECCCCCD3F2AAAAB4000000034
:100B2E003F8000003F9837F03FB504F33FD744FCB9
:100B3E003E3172173EB172173F0515913EDE5BD9FD
:100B4E00D2098002C209EDD2E7F8CD33EC3304703E
:100B5E000BBD800592D502032E02032440FBD31455
:100B6E0060F2F5F07C3FEE7A00C39496C8948B4009
:100B7E00230AC89469C8941A401A0AC89468C8947B
:100B8E001F40110AC8945AC89425400805F07A00EF
:100B9E00CDC2E7CDC0F08C188D198E1A8F1BEA23AB
:100BAE0023C0E0242EF582E4340BF583120669127D
:100BBE00000AECC0E0EDC0E0EEC0E0EFC0E01206CF
:100BCE0059A818A919AA1AAB1B120006D0E0FBD01F
:100BDE00E0FAD0E0F9D0E0B2E7F81204998C188D63
:100BEE00198E1A8F1B900B1E74031205A6A818A936
:100BFE0019AA1AAB1B1200FBD0E0600F243AF58243
:100C0E00E4340BF58312066912000A8C188D198EC6
:100C1E001A8F1BD0E0C3947FFDE49400FC12027F78
:100C2E007B187A727931783F1200FBA818A919AA9D
:100C3E001AAB1B12000A30090B7BD97A5B79DE786E
:050C4E003E1200FB2234
:1004960002032EEC5D046005E85904700302032490
:1004A6001202EF580460F6EC4860F2EC7004FDFEB0
:1004B600FF22C860DB2481C85009C3986002500639
:1004C60002032B9850CAF582E9294B4A7005AB8284
:1004D60002031A75F0007C1A7880C3EF9BEE9AED42
:1004E60099400DC3EF9BFFEE9AFEED99FDE842F0B1
:1004F600DC23ACF0D0E0FFD0E0FED0E0FDAB822004
:10050600E7101BEB60BAEC2CFCEF33FFEE33FEED8D
:1005160033FD020306E803F830E705C0F075F00086
:10052600EF2FFFEE33FEED33FD40B830E7C280AA71
:100536003F8000004120000042C80000447A0000CD
:10054600461C400047C35000497424004B1896804F
:100556004CBEBC205A0E1BCA6753C21C749DC5AE46
:10056600FB60065407601C2323120594EB54386085
:100576000912058012058F1200FBECF8EDF9EEFA70
:10058600EFCB22EB12058F80F1543803241C900523
:1005960036FE93FC0EEE93FD0EEE930ECE93FF22E7
:1005A600C0E0EFFBEEFAEDF9ECF81200FBD0E0F557
:1005B600F0EFFBEEFAEDF9ECF8120659A3A3A3A3AC
:1005C600E8C0E0E9C0E0EAC0E0EBC0E0C0F012003D
:1005D600FB120669A3A3A3A312000AD0F0D0E0FB86
:0D05E600D0E0FAD0E0F9D0E0F8D5F0D42252
:0300000002114E9C
:0C114E00787FE4F6D8FD75813E02115A4E
:1005F300BB010689828A83E0225002E722BBFE0206
:09060300E32289828A83E4932238
:10060C00BB010CE58229F582E5833AF583E02250A3
:10061C0006E92582F8E622BBFE06E92582F8E222ED
:0D062C00E58229F582E5833AF583E4932207
:10063900BB010689828A83F0225002F722BBFE01A0
:02064900F3229A
:0E064B00C3E49FFFE49EFEE49DFDE49CFC22C0
:10065900E493FC740193FD740293FE740393FF22E7
:10066900E493F8740193F9740293FA740393FB22E7
:10067900FAE6FB0808E6F925F0F618E6CA3AF62282
:10068900D083D082F8E4937012740193700DA3A300
:1006990093F8740193F5828883E473740293686014
:0606A900EFA3A3A380DF14
:10108900EFB40A07740D121094740A309811A899D4
:10109900B8130CC2983098FDA899C298B811F630C7
:0710A90099FDC299F599229F
:10113900E4FFFE1205F3600C0FEF70010E09E97070
:05114900F20A80EF2214
:00000001FF
