:0703C00002092400010B32C9
:0D03F200AD0AAC09E4FF1200DCD28C80FEE5
:03000B0002018A65
:10018A00C0E0C0F0C083C082C0D075D000C000C03B
:0D019A0001C002C003C004C005C006C007BC
:1001A700AE09AF0AAB07AA06E4C39BFFE49AFE7445
:1001B700019400FDE49400FCE4FB7A01F9F81202D3
:1001C700A7AF038F8AAE09AF0AAB07AA06E4C39BA2
:1001D700FFE49AFE74019400FDE49400FCE4FB7ACA
:1001E70001F9F81202A78F8CE508C3950B40087533
:0901F700080012031D8002050836
:10020000D007D006D005D004D003D002D001D00052
:0B021000D0D0D082D083D0F0D0E032FC
:0B03FF00EF1FAC0670011E4C70F622D0
:10039000AB07AA06EB1BAE0270011A4E60097F6420
:0803A0007E001203FF80ED2234
:0903C700011400011201011301EF
:1003D100EF14FFF87401088002C333D8FCF452A073
:0103E10022F9
:1003E200EF14FFF87401088002C333D8FC42A02244
:1003A800EF14FEF8E5A0088002C313D8FC540160DE
:0703B800030203D11203E26E
:0103BF00221B
:0402EB008E0C8F0DD9
:1002EF00E4F50EE50E04FF1203D1AF0DAE0C1203B1
:1002FF00FF050EE50EC3940840E9E4F50EE50E0484
:0D030F00FF1203E2050EE50EC3940840F056
:01031C0022BE
:040349008E0F8F1074
:10034D00E4F511E51104FF1203D1AF10AE0F120346
:10035D00FFE51104FF1203E20511E511C3940840F6
:01036D00E2AD
:01036E00226C
:10036F00E512D394084012E4F514751201FEEE0461
:10037F00FF1203E20EBE08F622AF121203D10512CE
:01038F00224B
:10031D00E51364016007E513D394084010751301CC
:10032D00AF131203D17F081203E2051322E5131454
:0B033D00FF1203E2AF131203D10513FF
:010348002292
:1000DC008C158D16EF146056046003020189438958
:1000EC0001AE15AF16AB07AA06E4C39BFFE49AFE5C
:1000FC0074019400FDE49400FCE4FB7A01F9F8121D
:10010C0002A7AF038F8AAE15AF16AB07AA06E4C3DE
:10011C009BFFE49AFE74019400FDE49400FCE4FB64
:10012C007A01F9F81202A78F8CD2AFD2A922438997
:10013C0010AE15AF16AB07AA06E4C39BFFE49AFEFC
:10014C0074019400FDE49400FCE4FB7A01F9F812CC
:10015C0002A7AF038F8BAE15AF16AB07AA06E4C38D
:10016C009BFFE49AFE74019400FDE49400FCE4FB14
:0E017C007A01F9F81202A78F8DD2AFD2AB2212
:0300000002021BDE
:0C021B00787FE4F6D8FD758116020262BF
:1002A700C2D5E830E70FB2D5E4C39BFBE49AFAE482
:1002B70099F9E498F8EC30E717B2D51202DD12008D
:1002C7004AE4C39BFBE49AFAE499F9E498F88003BB
:1002D70012004A30D50DE4C39FFFE49EFEE49DFD66
:0402E700E49CFC2275
:100227000203F2E493A3F8E493A34003F68001F2F8
:1002370008DFF48029E493A3F85407240CC8C333D8
:10024700C4540F4420C8834004F456800146F6DFA7
:10025700E4800B01020408102040809003C0E47E74
:10026700019360BCA3FF543F30E509541FFEE4939C
:10027700A360010ECF54C025E060A840B8E493A363
:10028700FAE493A3F8E493A3C8C582C8CAC583CA8E
:10029700F0A3C8C582C8CAC583CADFE9DEE780BE46
:0103D000002C
:10000E0075F008758200EF2FFFEE33FECD33CDCCA9
:10001E0033CCC58233C5829BED9AEC99E58298402C
:10002E000CF582EE9BFEED9AFDEC99FC0FD5F0D609
:10003E00E4CEFBE4CDFAE4CCF9A88222B800C1B933
:10004E000059BA002DEC8BF084CFCECDFCE5F0CB71
:10005E00F97818EF2FFFEE33FEED33FDEC33FCEBAA
:10006E0033FB10D703994004EB99FB0FD8E5E4F965
:10007E00FA227818EF2FFFEE33FEED33FDEC33FC52
:10008E00C933C910D7059BE99A4007EC9BFCE99A46
:10009E00F90FD8E0E4C9FAE4CCFB2275F010EF2F8B
:1000AE00FFEE33FEED33FDCC33CCC833C810D7078B
:1000BE009BEC9AE899400AED9BFDEC9AFCE899F8C6
:0E00CE000FD5F0DAE4CDFBE4CCFAE4C8F92259
:00000001FF
